:020000040000FA
:060000000A128A110C280F
:10000800FE00030EF0000A08F1000A128A11C52C3E
:100018000A128A110F2883120313A001A101A20159
:10002800A301A401A501A601A701A801A901AA018C
:10003800AB01AC01AD0183010A128A112328831692
:100048000313071044300A128A11F2230A128A1184
:100058000A128A1174220A128A110A128A11B12408
:100068000A128A11D0300A128A11D9240A128A1166
:1000780007300A128A11FD240A128A1100300A1266
:100088008A11FD240A128A110A128A110F250A12EE
:100098008A110A128A11A0210A128A1105308312C4
:1000A8000313B2003208F60001300A128A11D02276
:1000B8000A128A110A30F2000030F3008312031387
:1000C8002508F5002408F4000A128A1120230A12D0
:1000D8008A117208303E0A128A115C230A128A11A8
:1000E8000A30F2000030F300831203132508F500EC
:1000F8002408F4000A128A1195230A128A11720838
:10010800303E0A128A115C230A128A113A300A1206
:100118008A115C230A128A110A30F2000030F300B7
:10012800831203132308F5002208F4000A128A1127
:1001380020230A128A117208303E0A128A115C239F
:100148000A128A110A30F2000030F30083120313F6
:100158002308F5002208F4000A128A1195230A12CE
:100168008A117208303E0A128A115C230A128A1117
:100178003A300A128A115C230A128A110A30F200F4
:100188000030F300831203132108F5002008F4005F
:100198000A128A1120230A128A117208303E0A12A2
:1001A8008A115C230A128A110A30F2000030F30027
:1001B800831203132108F5002008F4000A128A119B
:1001C80095230A128A117208303E0A128A115C239A
:1001D8000A128A11043083120313B2003208F6009F
:1001E80002300A128A11D0220A128A110A30F20049
:1001F8000030F300831203132908F5002808F400DF
:100208000A128A1120230A128A117208303E0A1231
:100218008A115C230A128A110A30F2000030F300B6
:10022800831203132908F5002808F4000A128A111A
:1002380095230A128A117208303E0A128A115C2329
:100248000A128A113A300A128A115C230A128A1198
:100258000A30F2000030F300831203132B08F50074
:100268002A08F4000A128A1120230A128A11720835
:10027800303E0A128A115C230A128A110A30F200EF
:100288000030F300831203132B08F5002A08F4004A
:100298000A128A1195230A128A117208303E0A122C
:1002A8008A115C230A128A113A300A128A115C23D5
:1002B8000A128A1101300A128A111B240A128A11A1
:1002C8000A30F2000030F300831203132D08F50002
:1002D8002C08F4000A128A1120230A128A117208C3
:1002E800303E0A128A115C230A128A110A30F2007F
:1002F8000030F300831203132D08F5002C08F400D6
:100308000A128A1195230A128A117208303E0A12BB
:100318008A115C230A128A111A3083120313B4005B
:100328005E30B3006D30B200B20B9829B30B982938
:10033800B40B98299F294D28D0300A128A11D92444
:100348000A128A1100300A128A11FD240A128A112F
:10035800D1300A128A11EB240A128A1100300A12CB
:100368008A115E240A128A11FA00FB017A088312A4
:100378000313A0007B08A10000300A128A115E2432
:100388000A128A11FA00FB017A0883120313A200E9
:100398007B08A30000300A128A115E240A128A110F
:1003A800FA00FB017A0883120313A4007B08A50056
:1003B80000300A128A115E240A128A11FA00FB011F
:1003C8007A0883120313A6007B08A70000300A12DC
:1003D8008A115E240A128A11FA00FB017A08831234
:1003E8000313A8007B08A90000300A128A115E24B2
:1003F8000A128A11FA00FB017A0883120313AA0071
:100408007B08AB0001300A128A115E240A128A1195
:10041800FA00FB017A0883120313AC007B08AD00D5
:100428000A128A110F250A128A118312031321084E
:10043800F9002008F8000A128A11C7230A128A1143
:10044800790883120313A1007808A0002308F90093
:100458002208F8000A128A11C7230A128A11790899
:1004680083120313A3007808A2002508F9002408C2
:10047800F8000A128A11C7230A128A11790883120E
:100488000313A5007808A4002908F9002808F80033
:100498000A128A11C7230A128A11790883120313D0
:1004A800A9007808A8002B08F9002A08F8000A1201
:1004B8008A11C7230A128A11790883120313AB0021
:1004C8007808AA002D08F9002C08F8000A128A11E9
:1004D800C723790883120313AD007808AC0008001D
:1004E80000300A128A1197240A128A118230F70002
:1004F800DD30F600F60B7E2AF70B7E2A832A0330BE
:100508000A128A117D240A128A112130F7007630E6
:10051800F600F60B8D2AF70B8D2A000003300A121D
:100528008A117D240A128A114830F7006C30F600CF
:10053800F60B9C2AF70B9C2A000003300A128A113A
:100548007D240A128A1102300A128A117D240A12A5
:100558008A1102300A128A117D240A128A1108307F
:100568000A128A117D240A128A1100300A128A118D
:100578007D240A128A110C300A128A117D240A126B
:100588008A1100300A128A117D240A128A11063053
:100598000A128A117D24080083120313AE002E0369
:1005A800031DF92A76087F3EF7007708B100310865
:1005B800F70004300310F70CFF3E031DDE2A77080E
:1005C800F8007808AF0031080F39F7007708B00055
:1005D8002F080A128A117D240A128A118312031322
:1005E80030080A128A117D24080002302E06031DE5
:1005F80008007608BF3EF7007708B1003108F70019
:1006080004300310F70CFF3E031D052B7708F80094
:100618007808AF0031080F39F7007708B0002F08C5
:100628000A128A117D240A128A11831203133008D0
:100638000A128A117D240800F701F8017208730470
:100648000319572BF901F90AF31B362B0130031054
:10065800F20DF30DFF3E031D2B2B0130F60076083B
:10066800F907282B01300310F70DF80DFF3E031D85
:10067800372B73087502031D432B72087402031C81
:100688004C2B7208F4027308031CF503F502771467
:1006980001300310F30CF20CFF3E031D4D2B01300B
:1006A800F902031D362B7808F3007708F2000800DA
:1006B800F60076080F39F3007308F4007608F0396D
:1006C800F3007308F5008312031308147508F30088
:1006D80004300310F30CFF3E031D6D2B73080A1240
:1006E8008A1197240A128A1183120313881442303C
:1006F800F300F30B7D2B000083120313881074089A
:100708000A128A1197240A128A1183120313881471
:100718004230F300F30B8E2B000083120313881072
:100728000800720873040319C22BF701F70AF31BB8
:10073800A92B01300310F20DF30DFF3E031D9E2B74
:100748000130F6007608F7079B2B73087502031D26
:10075800AF2B72087402031CB72B7208F4027308DB
:10076800031CF503F50201300310F30CF20CFF3EF5
:10077800031DB82B0130F702031DA92B7508F300E0
:100788007408F20008000F30780583120313AE00D6
:1007980000307905AF00780E0F39F200790EF03984
:1007A800F204790E0F39F300F030F31D0030F30432
:1007B8000A30F4000030F5000A128A113D2473084B
:1007C80083120313B1007208B0002E083007F80036
:1007D8002F0803182F0A3107F9000800F400042C29
:1007E8008316031385010800831603138601080086
:1007F8008316031387010800831603138801080072
:100808007408F200F3017308003A03190C2C1A2C2F
:100818007208413A0319F42B033A0319F82B013AE9
:100828000319FC2B073A0319002C1A2C0800F900AD
:10083800F701F8017708790784000A128A111B2545
:100848000A128A11003A0319080077087907840008
:100858000A128A111B250A128A110A128A115C23AC
:100868000A128A110130F7070318F80A0030F8074E
:100878001E2CF601F701721C472C7408F6070318A2
:10088800F70A7508F70701300310F40DF50DFF3E60
:10089800031D482C01300310F30CF20CFF3E031D1E
:1008A8004F2C72087304031D3F2C7708F300760859
:1008B800F2000800F300831603139115141C622C30
:1008C800831203131308F2007208F4007308031D5F
:1008D800732C0A128A112B250A128A11782C0A12F3
:1008E8008A1124250A128A110A128A1132257408DB
:1008F8000800F50083120313081075080A128A11FC
:1009080097240A128A118312031388141A30F400E8
:10091800F830F300F30B8E2CF40B8E2C00008312AE
:10092800031388100800F200721C9E2C8312031314
:100938000815A12C831203130811F21CA52C881585
:10094800A62C8811721DAA2C0816AB2C0812F21DB1
:10095800AF2C881608008812080083160313871521
:10096800071650309400283083120313940083161E
:1009780003139101313093008C15831203138C11EA
:100988000800831603130C1CD22C831203130C1CAF
:10099800D22C013087068F018E010C1071088A0055
:1009A800700E8300FE0E7E0E0900F30083160313FB
:1009B80011141118DD2C831203138C1183160313E1
:1009C800941D080073080A128A11FD240800F30018
:1009D8008316031391149118EF2C831203138C11AF
:1009E80083160313941D080073080A128A11FD2444
:1009F8000800F20072088312031393000A128A1186
:100A080032250A128A1183160313111F0D2D013086
:100A18000800023008008316031311151119122D4E
:100A2800831203138C11831603131408080005306E
:100A38008A000408840A82070034323430340034CF
:100A48008316031391161116111E0800282D8316FC
:100A5800031391121116111E08002F2D8312031370
:080A68008C1D322D8C110800D9
:02400E003A3F37
:00000001FF
