:020000040000FA
:060000000A128A1110280B
:10000800FE00030E83120313CD000A08CE007F08FA
:10001800CF000A168A15372C0A128A11132883165C
:1000280003170A128A11FD27EE00E701E801E9012A
:10003800EA01EB01EC01ED0183120313E401E50190
:1000480083010A128A1128283F3083160317DE001D
:100058000030DD000030DC000030DB004230DA0028
:10006800C830D9000030D8000030D7003930D60069
:100078006130D5008C30D4007730D3000030D20006
:100088000030D1000030D0000030CF0000308312A3
:100098000313E3000030E2000030E1000030E0002C
:1000A800630883160317E20083120313620883169A
:1000B8000317E10083120313610883160317E00096
:1000C80083120313600883160317DF006208E60033
:1000D8006108E5006008E4005F08E300003083126F
:1000E8000313D7000030D6000030D5000030D4000C
:1000F8005708DB005608DA005508D9005408D8001C
:100108005B08DF005A08DE005908DD005808DC00EB
:100118000030D3000030D2000030D1000030D000D1
:10012800530883160317CE0083120313520883164D
:100138000317CD0083120313510883160317CC004D
:1001480083120313500883160317CB008316031377
:1001580005148514061486100714871407158312CE
:1001680003130817881786100A168A159E240A1280
:100178008A110A168A15AA210A128A110A168A15DC
:100188009A210A128A110A168A1588210A128A11D6
:1001980083160313A401A40A01300A168A152C2316
:1001A8000A128A1120300A168A154A220A128A115E
:1001B80083160313A401A40A02300A168A152C23F5
:1001C8000A128A1111300A168A154A220A128A114D
:1001D8008312031387188C2C413083160317C4002D
:1001E800ED30C300C30BF628C40BF628FB28831296
:1001F800031387188C2C413083160317C400ED3085
:10020800C300C30B0529C40B05290A29831203134C
:10021800871C0A29081388170B160A168A158F21B6
:100228000A128A1183160313A401A40A01300A16BC
:100238008A152C230A128A1139300A168A154A227D
:100248000A128A1183160313A401A40A02300A169B
:100258008A152C230A128A112D300A168A154A2269
:100268000A128A1100300A128A1505200A128A1108
:1002780083160313200883160317C300831603137A
:10028800210883160317C400C501C6014608831652
:100298000313AC0083160317450883160313AB003A
:1002A80083160317440883160313AA00831603173B
:1002B800430883160313A90000300A128A15472041
:1002C8000A128A11831603132C08BE002B08BD00DE
:1002D8002A08BC002908BB003E30BA00F930B90032
:1002E800DB30B8002330B7000A128A15EC200A1256
:1002F8008A11831603133A08831603179700831687
:100308000313390883160317960083160313380856
:1003180083160317950083160313370883160317EC
:1003280094003F309300003092000030910000307C
:1003380090000A168A1116250A128A1183160317C5
:100348001308AB001208AA001108A9001008A80099
:100358000A168A1577250A128A118316031729089F
:10036800EC002808EB0001300A128A1505200A1251
:100378008A1183160313200883160317C3008316F4
:100388000313210883160317C400C501C6014608D4
:1003980083160313BF008316031745088316031338
:1003A800BE0083160317440883160313BD00831683
:1003B8000317430883160313BC000030C300003042
:1003C800C2000030C1000030C0000030C70000305B
:1003D800C6000330C500FF30C4000030CB00003039
:1003E800CA000030C9000030C8000030CF0000301B
:1003F800CE001F30CD004030CC000A128A11C4262E
:100408000A128A11831603133D0883120313E500A9
:10041800831603133C0883120313E400831603179F
:100428006B08E9070318EA0A6C08EA0709306D0245
:100438000318232A0130C3004308ED07492A0A306C
:1004480083160313A7000030A800831603176A0851
:1004580083160313AA008316031769088316031368
:10046800A9000A168A157F230A128A118316031314
:10047800280883160317E800831603132708831632
:100488000317E700E901EA01ED010730C30043085B
:1004980083160313A40001300A168A152C230A12A6
:1004A8008A110A3083160313A7000030A8008316A8
:1004B8000317680883160313AA008316031767082F
:1004C80083160313A9000A168A157F230A128A11B4
:1004D800831603132708303E0A168A15DA230A12F0
:1004E8008A110A3083160313A0000030A100831676
:1004F8000317680883160313A300831603176708F6
:1005080083160313A2000A168A15DF220A128A111B
:10051800831603132008303E0A168A15DA230A12B6
:100528008A11073083160317C30043088316031381
:10053800A40002300A168A152C230A128A110030E8
:1005480083160313CF000030CE000030CD000030FA
:10055800CC000030CB000030CA000030C900643045
:10056800C8000030C7000030C6000330C500FF30A7
:10057800C4000030C3000030C2000030C1000030A9
:10058800C00001300A128A1505200A128A11831642
:100598000313200883160317C300831603132108C7
:1005A80083160317C400C501C60146088316031342
:1005B800BF0083160317450883160313BE0083166E
:1005C8000317440883160313BD0083160317430853
:1005D80083160313BC000A128A11C4260A128A1150
:1005E800831603133F0883160317CA0083160313E1
:1005F8003E0883160317C900831603133D088316A4
:100608000317C800831603133C0883160317C70093
:10061800003083160313B0000030AF000030AE0086
:100628006430AD00831603174A0883160313B40019
:1006380083160317490883160313B3008316031799
:10064800480883160313B200831603174708831656
:100658000313B1000A168A1102200A128A1183169E
:1006680003132D08303E0A168A15DA230A128A1156
:10067800003083160313CF000030CE000030CD00C9
:100688000030CC000030CB000030CA000030C90078
:100698006430C8000030C7000030C6000330C50011
:1006A800FF30C4000030C3000030C2000030C10079
:1006B8000030C00001300A128A1505200A128A117A
:1006C80083160313200883160317C3008316031326
:1006D800210883160317C400C501C60146088316FE
:1006E8000313BF0083160317450883160313BE00C0
:1006F80083160317440883160313BD0083160317D4
:10070800430883160313BC000A128A11C4260A126E
:100718008A11831603133F08E7003E08E6003D08E8
:10072800E5003C08E4000030E3000030E20000305F
:10073800E1006430E0000A168A15E4250A128A11DD
:1007480083160313630883160317CA00831603135B
:10075800620883160317C9008316031361088316FA
:100768000317C80083160313600883160317C7000E
:10077800003083160313B0000030AF000030AE0025
:100788000A30AD00831603174A0883160313B40012
:1007980083160317490883160313B3008316031738
:1007A800480883160313B2008316031747088316F5
:1007B8000313B1000A168A1102200A128A1183163D
:1007C80003132D08303E0A168A15DA230A128A11F5
:1007D800003083160313E3000030E2000030E1002C
:1007E8000A30E0000030CF000030CE000030CD00ED
:1007F8000030CC000030CB000030CA000030C90007
:100808006430C8000030C7000030C6000330C5009F
:10081800FF30C4000030C3000030C2000030C10007
:100828000030C00001300A128A1505200A128A1108
:1008380083160313200883160317C30083160313B4
:10084800210883160317C400C501C601460883168C
:100858000313BF0083160317450883160313BE004E
:1008680083160317440883160313BD008316031762
:10087800430883160313BC000A128A11C4260A12FD
:100888008A11831603133F08E7003E08E6003D0877
:10089800E5003C08E4000A168A15E4250A128A11C4
:1008A800831603136008303E0A168A15DA230A12E3
:1008B8008A11831203130718802C413083160317FB
:1008C800C400ED30C300C30B672CC40B672C6C2C21
:1008D800831203130718802C413083160317C400B2
:1008E800ED30C300C30B762CC40B762C7B2C831203
:1008F80003130718AC2C7B2C413083160317C40054
:10090800ED30C300C30B862CC40B862C8B2C3629E8
:100918000719EC28413083160317C400ED30C300D3
:10092800C30B942CC40B942C992C83120313071912
:10093800EC28413083160317C400ED30C300C30B05
:10094800A32CC40BA32CA82C83120313071DA82CBB
:100958000B16081788130A168A158F210A128A118E
:1009680083160313A401A40A01300A168A152C233E
:100978000A128A1139300A168A154A220A128A116D
:1009880083160313A401A40A02300A168A152C231D
:100998000A128A1101300A168A154A220A128A1185
:1009A80000300A128A1505200A128A1183160313C9
:1009B800200883160317C300831603132108831620
:1009C8000317C400C501C601460883160313AC000B
:1009D80083160317450883160313AB008316031702
:1009E800440883160313AA008316031743088316C3
:1009F8000313A90000300A128A1547200A128A1127
:100A0800831603132C08BE002B08BD002A08BC005F
:100A18002908BB003E30BA00F930B900DB30B80015
:100A28002330B7000A128A15EC200A128A1183169D
:100A380003133A088316031797008316031339081C
:100A480083160317960083160313380883160317B3
:100A580095008316031337088316031794003F3055
:100A680093000030920000309100003090000A1688
:100A78008A1116250A128A11831603171308AB0068
:100A88001208AA001108A9001008A8000A168A1559
:100A980077250A128A11831603172908EC002808FB
:100AA800EB006C08B4006B08B3006E08C300C40107
:100AB8004308B5004408B6000A128A1501240A1230
:100AC8008A1183160317340883120313E50083166B
:100AD8000317330883120313E400831603176B0804
:100AE800E9070318EA0A6C08EA0709306D020318D7
:100AF800822D0130C3004308ED07A82D0A30831664
:100B08000313A7000030A800831603176A0883168A
:100B18000313AA0083160317690883160313A90091
:100B28000A168A157F230A128A11831603132808C6
:100B380083160317E8008316031327088316031781
:100B4800E700E901EA01ED01831203138718072E74
:100B58005030831603176E020318072E4130831690
:100B68000317C400ED30C300C30BB82DC40BB82D58
:100B7800BD2D831203138718072E503083160317D1
:100B88006E020318072E413083160317C400ED3098
:100B9800C300C30BCD2DC40BCD2DD22D831203134F
:100BA8008718072E5030831603176E02031CFD2D7D
:100BB800072E0130C3004308EE076E08C300430840
:100BC80083160313B0008316031767080A128A11E5
:100BD8006A270A128A11073083160317C50058308E
:100BE800C4005930C300C30BF72DC40BF72DC50B38
:100BF800F72D831203138718072E50308316031717
:100C08006E02031CDD2D831203130719642E29308D
:100C1800831603176E02031C642E413083160317D4
:100C2800C400ED30C300C30B172EC40B172E1C2EA7
:100C3800831203130719642E2930831603176E02D3
:100C4800031C642E413083160317C400ED30C30023
:100C5800C30B2C2EC40B2C2E312E83120313071911
:100C6800642E2930831603176E0203185A2E642E39
:100C78000130EE026E08C300430883160313B00068
:100C88008316031767080A128A116A270A128A113B
:100C9800073083160317C5005830C4005930C30005
:100CA800C30B542EC40B542EC50B542E831203139E
:100CB8000719642E2930831603176E0203183C2E79
:100CC800831203130718872E413083160317C400B5
:100CD800ED30C300C30B6E2EC40B6E2E732E831221
:100CE80003130718872E413083160317C400ED300D
:100CF800C300C30B7D2EC40B7D2E822E83120313DB
:100D080007180E29822E0718A82E413083160317BC
:100D1800C400ED30C300C30B8F2EC40B8F2E942E4E
:100D2800831203130718A82E413083160317C40033
:100D3800ED30C300C30B9E2EC40B9E2EA32E831230
:100D4800031307180E29A32E831603176E08C30072
:100D5800430883160313B0008316031767080A12A3
:100D68008A116A270A128A11413083160317C400B0
:100D7800ED30C300C30BBE2EC40BBE2EC32ED42C25
:100D8800831603134408D0004508D1004608D20052
:100D98004708D3004008D0024108031C410FD52E54
:100DA800D62ED1024208031C420FDB2EDC2ED202C3
:100DB8004308031C430FE12EE22ED3025308B00070
:100DC8005208AF005108AE005008AD003C08D400EE
:100DD8003D08D5003E08D6003F08D7004008D40299
:100DE8004108031C410FF92EFA2ED5024208031CB4
:100DF800420FFF2E002FD6024308031C430F052F76
:100E0800062FD7025708A3005608A2005508A100CC
:100E18005408A0004C08D8004D08D9004E08DA0044
:100E28004F08DB004808D8024908031C490F1D2F4A
:100E38001E2FD9024A08031C4A0F232F242FDA0237
:100E48004B08031C4B0F292F2A2FDB025B08A70036
:100E58005A08A6005908A5005808A4000A168A15B9
:100E68009E220A128A11831603132308B40022084B
:100E7800B3002108B2002008B1000A168A11022026
:100E8800831603132D084807DC00003003180130CF
:100E98002E07DE010318DE0A4907DD000318DE0A03
:100EA8002F085E07DF010318DF0A4A07DE00031870
:100EB800DF0A30085F074B07DF005F08BF005E08E6
:100EC800BE005D08BD005C08BC0008008316031363
:100ED800B3000730B1003108A40001300A168A15A2
:100EE8002C230A128A110A3083160313A700003034
:100EF800A8003308B100B2013108A9003208AA00DD
:100F08000A168A157F230A128A11831603132708E3
:100F1800303E0A168A15DA230A128A110A30831615
:100F28000313A0000030A1003308B100B20131085A
:100F3800A2003208A3000A168A15DF220A128A11B3
:100F4800831603132008303E0A168A15DA230A127C
:100F58008A110B3083160313B1003108A400023044
:100F68000A168A152C230A128A110A3083160313CB
:100F7800A7000030A8003008B100B2013108A20073
:100F88003208A3006430A0000030A1000A168A15B8
:100F9800DF220A128A11831603132108AA002008E7
:100FA800A9000A168A157F230A128A1183160313C9
:100FB8002708303E0A168A15DA230A128A110A30DF
:100FC80083160313A0000030A1003008B100B2015D
:100FD8003108A2003208A3000A168A15DF220A1275
:100FE8008A11831603132008303E0A168A15DA235D
:040FF8000800323487
:10100A0083160313A8000130A200220883120313D7
:10101A009F05831603132808A20002300310A20DAD
:10102A00FF3E031D13280310220DA3002308831279
:10103A0003139F040D3083160313A300FB30A20091
:10104A00A20B2528A30B2528831203131F151F198A
:10105A002C281E0883160313A200A3012208A60047
:10106A002308A7002608A300A2011E082207A4003D
:10107A000030031801302307A5002408A000250822
:10108A00A100080083160313B1003108031DAC1F29
:10109A005E282909B3002A09B4002B09B5002C09D6
:1010AA00B600B30A0319B40A0319B50A0319B60A32
:1010BA0066282C08B6002B08B5002A08B4002908AF
:1010CA00B3002C082B042A042904031D75280030B8
:1010DA00AC000030AB000030AA000030A9000800C4
:1010EA009630AD002D08B200FE3036050319A62849
:1010FA000130AD002D08B20701300310B60CB50C53
:10110A00B40CB30CFF3E031D822879280130AD00D0
:10111A002D08B2070130B307003003180130B407B5
:10112A00003003180130B507003003180130B60744
:10113A0001300310B60CB50CB40CB30CFF3E031D02
:10114A009E28FF3036050319BA288B28023032024E
:10115A00031CBC280130B2020130AD000310B30DEC
:10116A00B40DB50DB60DAD0BB328B51FAB283218AB
:10117A00C628FF30B305FF30B4057F30B505FF3010
:10118A00B6050310B20C3208AD00AE01AF01B001D2
:10119A0018300310AD0DAE0DAF0DB00DFF3E031D9F
:1011AA00CE282D08B3042E08B4042F08B50430083D
:1011BA00B6043108031DAC1FE328B6173608AC0085
:1011CA003508AB003408AA003308A90008008316C2
:1011DA0003133A088039BF003F08C4003A08BF0029
:1011EA003F07C0004008CA00B91B4A144A0803193D
:1011FA000B294A0A031D09290030BA000030B90038
:10120A000030B8000030B700B91713290030BA000F
:10121A000030B9000030B8000030B7003E0880390D
:10122A00BF003F08C4063E08BF003F07C000400891
:10123A00C900BD1B4914490803193029490A031D6D
:10124A002E290030BE000030BD000030BC00003046
:10125A00BB00BD1738290030BE000030BD00003089
:10126A00BC000030BB004908031D4A08031D46297B
:10127A000030BA000030B9000030B8000030B700C2
:10128A0008003708BF003F08A0003D080A168A1563
:10129A0025220A128A15831603132108D000200872
:1012AA00CF004F08BF00C001C101C2014208C800F7
:1012BA004108C7004008C6003F08C5005008BF00E3
:1012CA00C001C101C2014208CE004108CD00400858
:1012DA00CC003F08CB003808BF003F08A0003C08FC
:1012EA000A168A1525220A128A158316031321085B
:1012FA00D0002008CF004F08BF00C001C101C201C1
:10130A003F08C507400803110318013E031DC6071D
:10131A00410803110318013E031DC70742080311C0
:10132A000318013E031DC8075008BF00C001C101D0
:10133A00C2013F08CB07400803110318013E031DF1
:10134A00CC07410803110318013E031DCD074208CB
:10135A0003110318013E031DCE073908BF003F08D9
:10136A00A0003B080A168A1525220A128A15831636
:10137A0003132108D0002008CF004F08BF00C00186
:10138A00C101C2013F08C507400803110318013E05
:10139A00031DC607410803110318013E031DC707B1
:1013AA00420803110318013E031DC8075008BF0075
:1013BA00C001C101C2013F08CB074008031103184D
:1013CA00013E031DCC07410803110318013E031D0A
:1013DA00CD07420803110318013E031DCE0708304A
:1013EA00BF000310C50DC60DC70DC80DBF0BF629EA
:1013FA003808BF003F08A0003B080A168A152522B4
:10140A000A128A15831603132108D0002008CF0078
:10141A004F08BF005008C000C101C2013F08C507FC
:10142A00400803110318013E031DC60741080311B2
:10143A000318013E031DC707420803110318013EA2
:10144A00031DC8073708BF003F08A0003C080A165A
:10145A008A1525220A128A15831603132108D00039
:10146A002008CF004F08BF005008C000C101C201C8
:10147A003F08C507400803110318013E031DC607AC
:10148A00410803110318013E031DC707420803114F
:10149A000318013E031DC8070830BF000310C50D1D
:1014AA00C60DC70DC80DBF0B532A3708BF003F082A
:1014BA00A0003B080A168A1525220A128A158316E5
:1014CA0003132108D0002008CF004F08BF0050089E
:1014DA00C000C101C2013F08C50740080311031833
:1014EA00013E031DC607410803110318013E031DEF
:1014FA00C707420803110318013E031DC80738082D
:10150A00BF003F08A0003D080A168A1525220A12C4
:10151A008A15831603132108D0002008CF004F082C
:10152A00BF005008C000C101C2013F08CB074008F4
:10153A0003110318013E031DCC07410803110318C8
:10154A00013E031DCD07420803110318013E031D86
:10155A00CE073908BF003F08A0003C080A168A15C2
:10156A0025220A128A15831603132108D00020089F
:10157A00CF004F08BF005008C000C101C2013F0898
:10158A00CB07400803110318013E031DCC0741088D
:10159A0003110318013E031DCD0742080311031866
:1015AA00013E031DCE073908BF003F08A0003D08D1
:1015BA000A168A1525220A128A1583160313210888
:1015CA00D0002008CF004F08BF005008C000C1015A
:1015DA00C20108300310BF0DC00DC10DC20DFF3E80
:1015EA00031DEF2A3F08CB07400803110318013EE9
:1015FA00031DCC07410803110318013E031DCD0743
:10160A00420803110318013E031DCE074508BF0017
:10161A004608C0004708C1004808C2001830031035
:10162A00C20CC10CC00CBF0CFF3E031D142B3F089B
:10163A00CB07400803110318013E031DCC074108DC
:10164A0003110318013E031DCD07420803110318B5
:10165A00013E031DCE070830BF000310C50DC60D9D
:10166A00C70DC80DBF0B322B4A084907BF00C0017E
:10167A00C00D3F08823ECF0040080318013EFF3EDE
:10168A00D000CD1B632B0130BF000310CB0DCC0D56
:10169A00CD0DCE0DBF0B4A2BC81B4B140130BF001A
:1016AA000310C50DC60DC70DC80DBF0B552BFF3056
:1016BA00CF070318D00AFF30D007462BC901C81F2D
:1016CA007C2BFF304505BF00FF304605C000FF30C8
:1016DA004705C1007F304805C20042084104400462
:1016EA003F0403194B187A2B7C2BC901C90A4908F4
:1016FA000319AE2B0130CB07003003180130CC0799
:10170A00003003180130CD07003003180130CE072E
:10171A004E1CAE2B4B08BF004C08C0004D08C10040
:10172A004E08C2000130C300420DC20CC10CC00CED
:10173A00BF0CC30B992B4208CE004108CD004008CC
:10174A00CC003F08CB000130CF070318D00A003085
:10175A00D0075008803AFF0080307F02031DB72B64
:10176A00FF304F02031CC42B7F3083160313CE00B5
:10177A008030CD000030CC000030CB00F42B831633
:10178A0003135008803AFF0080307F02031DCF2BDD
:10179A0001304F020318DD2B003083160313CE00ED
:1017AA000030CD000030CC000030CB00C401F42B57
:1017BA00831603134F08BF003F08CA00FF30CB054A
:1017CA00FF30CC057F30CD050030CE054A18CD1745
:1017DA004A08BF0003103F0CC0004008CE0044086E
:1017EA00BF003F08CE044E08BA004D08B9004C08A5
:1017FA00B8004B08B70008008316031733083502F0
:10180A0083160313A900831603173408031C340A2A
:10181A00360283160313AA00AB01AC0100300A1288
:10182A008A1547200A128A15831603132C08831671
:10183A000317E600831603132B0883160317E50024
:10184A00831603132A0883160317E4008316031367
:10185A00290883160317E3005A08930059089200CF
:10186A005808910057089000403083160313D4009B
:10187A000030D3000030D2000030D10083160317A5
:10188A005E0883160313BA00831603175D088316CE
:10189A000313B900831603175C0883160313B800F1
:1018AA00831603175B0883160313B70083160317FF
:1018BA00560883160313BE008316031755088316AA
:1018CA000313BD0083160317540883160313BC00C1
:1018DA0083160317530883160313BB000A128A15CB
:1018EA00EC200A128A15831603133A08D80039081D
:1018FA00D7003808D6003708D5000A168A113421CD
:10190A000A128A15831603135408831603179700BD
:10191A0083160313530883160317960083160313BB
:10192A00520883160317950083160313510883166A
:10193A00031794000A168A1116250A128A158316A5
:10194A0003171308C2001208C1001108C0001008CA
:10195A00BF00403083160313D4000030D300003098
:10196A00D2000030D10083160317520883160313DE
:10197A00D80083160317510883160313D70083165A
:10198A000317500883160313D600831603174F084C
:10199A0083160313D5000A168A1134210A128A15EE
:1019AA00831603135408831603179300831603132D
:1019BA0053088316031792008316031352088316DB
:1019CA000317910083160313510883160317900017
:1019DA004208970041089600400895003F08940085
:1019EA000A168A1116250A128A158316031713086E
:1019FA0083120313DF0083160317120883120313DB
:101A0A00DE0083160317110883120313DD00831601
:101A1A000317100883120313DC00831603175A08EE
:101A2A00A3005908A2005808A1005708A000403096
:101A3A0083160313D4000030D3000030D2000030E4
:101A4A00D100831603175E0883160313BA008316A0
:101A5A0003175D0883160313B900831603175C087E
:101A6A0083160313B800831603175B088316031340
:101A7A00B70083160317560883160313BE0083168E
:101A8A000317550883160313BD008316031754085A
:101A9A0083160313BC008316031753088316031314
:101AAA00BB000A128A15EC200A128A158316031340
:101ABA003A08D8003908D7003808D6003708D500C0
:101ACA000A168A1134210A128A1583160313540836
:101ADA0083160317A70083160313530883160317E5
:101AEA00A60083160313520883160317A50083164C
:101AFA000313510883160317A4000A168A15032232
:101B0A000A128A15831603172308BA002208B90095
:101B1A002108B8002008B7005E0883160313D40012
:101B2A00831603175D0883160313D300831603175E
:101B3A005C0883160313D200831603175B08831607
:101B4A000313D1004030BA000030B9000030B800A9
:101B5A000030B70083160317520883160313BE001A
:101B6A0083160317510883160313BD008316031740
:101B7A00500883160313BC00831603174F088316F5
:101B8A000313BB000A128A15EC200A128A1583165F
:101B9A0003133A08D8003908D7003808D60037089E
:101BAA00D5000A168A1134210A128A1583160313DC
:101BBA00540883160317A3008316031353088316C6
:101BCA000317A20083160313520883160317A100F2
:101BDA0083160313510883160317A0003A08A700B7
:101BEA003908A6003808A5003708A4000A168A157D
:101BFA0003220A128A158316031723088312031372
:101C0A00DB0083160317220883120313DA008316F4
:101C1A000317210883120313D90083160317200818
:101C2A0083120313D800831603175E08831603135F
:101C3A00D400831603175D0883160313D300831693
:101C4A0003175C0883160313D200831603175B0875
:101C5A0083160313D100831603175208831603133E
:101C6A00D80083160317510883160313D700831667
:101C7A000317500883160313D600831603174F0859
:101C8A0083160313D5000A168A1134210A128A15FB
:101C9A0083160313540883120313D70083160313FE
:101CAA00530883120313D6008316031352088312B0
:101CBA000313D50083160313510883120313D400A8
:101CCA0053088316031793008312031352088316CB
:101CDA000317920083120313510883160317910006
:101CEA0083120313500883160317900083120313F9
:101CFA005F0883160313BA00831203135E08831660
:101D0A000313B900831203135D0883160313B80083
:101D1A00831203135C0883160313B7008316031791
:101D2A00660883160313BE00831603176508831615
:101D3A000313BD0083160317640883160313BC003C
:101D4A0083160317630883160313BB000A128A1546
:101D5A00EC200A128A15831603133A08831603170E
:101D6A009700831603133908831603179600831600
:101D7A0003133808831603179500831603133708CD
:101D8A008316031794000A168A1116250A128A1551
:101D9A00831603171308C2001208C1001108C000F5
:101DAA001008BF00831203135B0883160313BA00DB
:101DBA00831203135A0883160313B90083120313F9
:101DCA00590883160313B80083120313580883169D
:101DDA000313B70083160317620883160313BE00A2
:101DEA0083160317610883160313BD0083160317AE
:101DFA00600883160313BC00831603175F08831653
:101E0A000313BB000A128A15EC200A128A158316DC
:101E1A0003133A088316031793008316031339082A
:101E2A0083160317920083160313380883160317C1
:101E3A00910083160313370883160317900042088C
:101E4A00970041089600400895003F0894000A163A
:101E5A008A1116250A128A15831603171308BE005B
:101E6A001208BD001108BC001008BB00831203133E
:101E7A00570883160313BA008312031356088316EE
:101E8A000313B90083120313550883160313B8000A
:101E9A0083120313540883160313B7008312031320
:101EAA00630883160313BE008312031362088316A2
:101EBA000313BD0083120313610883160313BC00C6
:101ECA0083120313600883160313BB000A128A15D0
:101EDA00EC200A128A15831603133A08831603178D
:101EEA009300831603133908831603179200831687
:101EFA000313380883160317910083160313370850
:101F0A008316031790003E0897003D0896003C0888
:101F1A0095003B0894000A168A1116250A128A159A
:101F2A00831603171308CE001208CD001108CC003F
:101F3A001008CB004E0883120313D300831603172D
:101F4A004D0883120313D200831603174C08831219
:101F5A000313D100831603174B0883120313D0000F
:101F6A0083160317620883120313E3008316031709
:101F7A00610883120313E2008316031760088312B1
:101F8A000313E100831603175F0883120313E000AB
:101F9A00831603176608E2006508E1006408E0009A
:101FAA006308DF004530A700BB30A6008030A500DB
:101FBA000030A4004E08A3004D08A2004C08A1005E
:101FCA004B08A0000A168A1503220A128A158316DC
:101FDA0003172308AB002208AA002108A900200839
:101FEA00A8000A168A157725831603172908B4004C
:061FFA002808B3000800F6
:1020040083160313B701B01F1428AD09AE09AF0935
:10201400B009AD0A0319AE0A0319AF0A0319B00ACD
:10202400B701B70AB41F2528B109B209B309B40925
:10203400B10A0319B20A0319B30A0319B40A013025
:10204400B5003508B7060030BB000030BA000030D8
:10205400B9000030B80030082F042E042D040319F1
:102064007A28B601B60AB01B45280130B500031022
:10207400AD0DAE0DAF0DB00DB50B39280130B50067
:102084003508B60735280130B5000310B80DB90D71
:10209400BA0DBB0DB50B472830083402031D5C286C
:1020A4002F083302031D5C282E083202031D5C280E
:1020B4002D083102031C6D282D08B1022E08031CC3
:1020C4002E0FB2022F08031C2F0FB3023008031C7B
:1020D400300FB402381401300310B00CAF0CAE0C46
:1020E400AD0CFF3E031D6E280130B602031D4528CA
:1020F400370803198828B809B909BA09BB09B80A05
:102104000319B90A0319BA0A0319BB0A3B08B00038
:102114003A08AF003908AE003808AD000800F800EE
:102124007808031DF31FA6287009FA007109FB0043
:102134007209FC007309FD00FA0A0319FB0A03196A
:10214400FC0A0319FD0AAE287308FD007208FC009E
:102154007108FB007008FA007308720471047004BB
:10216400031DBD280030F3000030F2000030F10000
:102174000030F00008009630F4007408F900FE30D6
:102184007D050319EE280130F4007408F9070130C5
:102194000310FD0CFC0CFB0CFA0CFF3E031DCA28BB
:1021A400C1280130F4007408F9070130FA0700303F
:1021B40003180130FB07003003180130FC0700301E
:1021C40003180130FD0701300310FD0CFC0CFB0C5F
:1021D400FA0CFF3E031DE628FF307D050319022992
:1021E400D32802307902031C04290130F90201309A
:1021F400F4000310FA0DFB0DFC0DFD0DF40BFB2890
:10220400FC1FF32879180E29FF30FA05FF30FB056F
:102214007F30FC05FF30FD050310F90C7908F4004C
:10222400F501F601F70118300310F40DF50DF60D64
:10223400F70DFF3E031D16297408FA047508FB0404
:102244007608FC047708FD047808031DF31F2B2986
:10225400FD177D08F3007C08F2007B08F1007A0882
:10226400F00008008316031358088039D900590870
:10227400E2005808D9005907DA005A08E900D71BC8
:102284006914690803195429690A031D5129003086
:10229400D8000030D7000030D6000030D500D71762
:1022A400D8015C290030D8000030D7000030D600B7
:1022B4000030D50054088039D9005908E206540882
:1022C400D9005907DA005A08EA00D31B6A146A08CD
:1022D40003197A296A0A031D77290030D4000030D3
:1022E400D3000030D2000030D100D317D4018229AA
:1022F4000030D4000030D3000030D2000030D100D0
:102304005408530452045104031DA1290030D80079
:102314000030D7000030D6000030D5008030D7041C
:102324007F30D8046208D9005908D8045808D4006A
:102334005708D3005608D2005508D1000800690890
:10234400031DAD290030D4000030D3000030D2008A
:102354000030D10008006908D900DA015A08DC000D
:102364006A085902DB00031CDC035B087F3EE300C0
:102374005C080318013E003EE4005808E1005708D9
:10238400E0005608DF005508DE000030D8000030B9
:10239400D7000030D6000030D5000030E80000300F
:1023A400E7000030E6000030E500EA011A306A0276
:1023B4000318202A6A080319FC290130D9000310E4
:1023C400DE0DDF0DE00DE10DD90BE1290130D9005F
:1023D4000310D50DD60DD70DD80DD90BEA29E81B5E
:1023E40055140130D9000310E50DE60DE70DE80D95
:1023F400D90BF52954086102031D0A2A5308600207
:10240400031D0A2A52085F02031D0A2A51085E02AC
:10241400031C1B2A68175108DE025208031C520FC2
:10242400DF025308031C530FE0025408031C540F2B
:10243400E1020130D9005908EA07D829610860048B
:102444005F045E04031D6514D71B432A0130D900C1
:102454000310D50DD60DD70DD80DD90B2A2AE81B9C
:1024640055140130D9000310E50DE60DE70DE80D14
:10247400D90B352AFF30E3070318E40AFF30E407D9
:10248400262AEA01E81F5C2AFF306505D900FF30DF
:102494006605DA00FF306705DB007F306805DC0085
:1024A4005C085B045A045904031955185A2A5C2A17
:1024B400EA01EA0A6A0803198E2A0130D5070030B6
:1024C40003180130D607003003180130D707003055
:1024D40003180130D807581C8E2A5508D90056080D
:1024E400DA005708DB005808DC000130DD005C0D21
:1024F400DC0CDB0CDA0CD90CDD0B792A5C08D80077
:102504005B08D7005A08D6005908D5000130E30704
:102514000318E40A0030E4076408803AFF008030BE
:102524007F02031D972AFF306302031CA72AFF3092
:1025340083160313E3000030E4000030D8000030B9
:10254400D7000030D6000030D5008316031364088A
:10255400803AFF0080307F02031DB22A01306302FB
:102564000318C12A83160313E301E4010030D800E1
:102574000030D7000030D6000030D500E2018316C9
:1025840003136308D9005908E900691CCB2AD7173B
:10259400CF2A7F30D9005908D7056908D90003101C
:1025A400590CDA005A08D800942973088039831228
:1025B4000313A0002008F8007308A0002007A1005E
:1025C4002108FA00F21B7A147A080319F72A7A0A06
:1025D400031DF42A0030F3000030F2000030F10053
:1025E4000030F000F217F301FF2A0030F30000304E
:1025F400F2000030F1000030F00077088039A000CC
:102604002008F90079087806031D78177708A000D8
:102614002007A1002108F900F61B79147908031991
:10262400212B790A031D1E2B0030F7000030F60021
:102634000030F5000030F400F617F701292B0030C4
:10264400F7000030F6000030F5000030F4007A089E
:10265400790203186F2B781F332B8030A0002008D9
:10266400F8067A08A0002008FB007908A0002008DA
:10267400FA007B08A0002008F9007008A0002008D8
:10268400FB007408A0002008F0007B08A0002008CC
:10269400F4007108A0002008FB007508A0002008C1
:1026A400F1007B08A0002008F5007208A0002008B3
:1026B400FB007608A0002008F2007B08A000200898
:1026C400F6007308A0002008FB007708A00020088B
:1026D400F3007B08A0002008F700FB017908A000A4
:1026E400A1012108A3007A082002A200031CA3036D
:1026F4002308803AFF0080307F02031D832B1A30A9
:102704002202031CC02B73087204710470040319A1
:102714008D2B01308E2B003083120313A000200870
:10272400FB000030F3000030F2000030F100003014
:10273400F0007908A0002008FA00C42B7B1CAD2B04
:102744007B0883120313A0000310200C0138A1009E
:102754002108FB00AF2B0310FB0C7018FB17013092
:1027640083120313A000730DF30CF20CF10CF00CA4
:10277400A00BB52B0130A0002008FA0779087A02D3
:10278400031CA02B781B092C7A08031DD22B0030C4
:10279400F3000030F2000030F1000030F0000800D7
:1027A4007408F007750803110318013E031DF107AF
:1027B400760803110318013E031DF207770803117D
:1027C4000318013E031DF307731CAF2C7B1CF52B70
:1027D4007B0883120313A0000310200C0138A1000E
:1027E4002108FB00F72B0310FB0C7018FB170130BA
:1027F40083120313A000730DF30CF20CF10CF00C14
:10280400A00BFD2B0130A0002008FA07AF2C7308A1
:10281400803AFF007708803A7F02031D1B2C76085C
:102824007202031D1B2C75087102031D1B2C7408F6
:1028340070020318752CFF3083120313A000FF30BD
:10284400A100FF30A200FF30A3007408A4007508A3
:10285400A5007608A6007708A7007008A4027108EE
:10286400031C710F362C372CA5027208031C720F3F
:102874003C2C3D2CA6027308031C730F422C432CE2
:10288400A7022408A00725080318250F4A2C4B2C5F
:10289400A10726080318260F502C512CA20727083D
:1028A4000318270AA3072308F3002208F2002108CB
:1028B400F1002008F0008030A0002008F806FB0991
:1028C400FB0A7B08031D832C0130F007003003183A
:1028D4000130F107003003180130F207003003180B
:1028E4000130F307832C7408F0027508031C750F7C
:1028F400F1027608031C760FF2027708031C770FA7
:10290400F3027308720471047004031DAD2C7B0878
:10291400031DAD2C0030F3000030F2000030F10054
:102924000030F0000800013083120313A0000310EC
:10293400F00DF10DF20DF30DA00B992CFB1B70148F
:102944007B1CA62C0314A72C0310FB0D7A08031977
:10295400AD2C0130FA02F21F952CF901FB1FBA2CA1
:102964007B087F3903197018B82CBA2CF901F90ABD
:1029740079080319EF2C0130F007003003180130F7
:10298400F107003003180130F2070030031801305A
:10299400F307731CEF2C700883120313A000710853
:1029A400A1007208A2007308A3000130A400230D43
:1029B400A30CA20CA10CA00CA40BD92C2308F3008B
:1029C4002208F2002108F1002008F0007A0A031915
:1029D400EF2C0130A0002008FA077A0A031D7A08B8
:1029E400031DFF2C0030F3000030F2000030F10032
:1029F4000030F0007A080319F8017A1C032DF2174D
:102A0400092D7F3083120313A0002008F2057A08F1
:102A140083120313A0000310200CA1002108F3006B
:102A2400F81F0800F31708008316031713088039EA
:102A34009800180883160313EB0083160317130872
:102A4400980018079900190883160313ED008316DC
:102A54000317921F302D831603136D1403136D088F
:102A64000319462D6D0A031D412D003083160317EB
:102A740093000030920000309100003090008316E3
:102A8400031792179301502D0030831603179300F8
:102A94000030920000309100003090001708803917
:102AA4009800180883160313EC006C086B06031DCA
:102AB4006B1783160317170898001807990019084D
:102AC40083160313EC0083160317961F6C2D8316CD
:102AD40003136C1403136C080319822D6C0A031D71
:102AE4007D2D0030831603179700003096000030C8
:102AF40095000030940083160317961797018C2DC8
:102B040000308316031797000030960000309500BC
:102B140000309400831603136D086C020318062E0C
:102B24006B1F9C2D8030831603179800180883169A
:102B34000313EB066D088316031798001808831611
:102B44000313EE006C088316031798001808831605
:102B54000313ED006E0883160317980018088316F4
:102B64000313EC0083160317100898001808831643
:102B74000313EE0083160317140898001808900036
:102B8400831603136E08831603179800180894001D
:102B940011089800180883160313EE008316031710
:102BA4001508980018089100831603136E088316FD
:102BB400031798001808950012089800180883163F
:102BC4000313EE00831603171608980018089200E2
:102BD400831603136E0883160317980018089600CB
:102BE40013089800180883160313EE0083160317BE
:102BF4001708980018089300831603136E088316A9
:102C040003179800180897000313EE016C08831645
:102C140003179800990119089B00831603136D0884
:102C24008316031718029A00031C9B031B08803A9F
:102C3400FF0080307F02031D212E1A301A02031C6C
:102C4400712E8316031713081204110410040319B8
:102C54002D2E01302E2E00309800180883160313F1
:102C6400EE0000308316031793000030920000300A
:102C7400910000309000831603136C088316031729
:102C84009800180883160313ED00772E6E1C572E38
:102C94006E088316031798000310180C0138990066
:102CA400190883160313EE00592E0310EE0C831635
:102CB4000317101C602E83160313EE1701308316BE
:102CC40003179800130D930C920C910C900C980B15
:102CD400642E01309800180883160313ED07831639
:102CE40003136C086D02031C482E6B1BCB2E6D085E
:102CF400031D872E003083160317930000309200C3
:102D04000030910000309000080083160317140867
:102D14009007150803110318013E031D91071608B7
:102D240003110318013E031D92071708031103182A
:102D3400013E031D9307131C812F831603136E1C7E
:102D4400B02E6E088316031798000310180C013870
:102D54009900190883160313EE00B22E0310EE0C2B
:102D640083160317101CB92E83160313EE170130B4
:102D7400831603179800130D930C920C910C900C6E
:102D8400980BBD2E01309800180883160313ED0725
:102D9400812F831603171308803AFF001708803A1F
:102DA4007F02031DDF2E16081202031DDF2E1508F5
:102DB4001102031DDF2E1408100203183B2FFF30ED
:102DC4009800FF309900FF309A00FF309B001408F0
:102DD4009C0015089D0016089E0017089F00100807
:102DE4009C021108031C110FF82EF92E9D021208E3
:102DF400031C120FFE2EFF2E9E021308031C130F3A
:102E0400042F052F9F021C0898071D0803181D0F87
:102E14000C2F0D2F99071E0803181E0F122F132FA6
:102E24009A071F0803181F0A9B071B0893001A0818
:102E34009200190891001808900080309800180832
:102E440083160313EB06EE09EE0A6E08031D492FE1
:102E540001308316031790070030031801309107DF
:102E64000030031801309207003003180130930733
:102E7400492F140890021508031C150F9102160817
:102E8400031C160F92021708031C170F93028316D4
:102E940003171308120411041004031D7D2F831655
:102EA40003136E08031D7D2F003083160317930050
:102EB4000030920000309100003090000800013092
:102EC40098000310900D910D920D930D980B632FA4
:102ED40083160313EE1F712F8316031710140313A5
:102EE4006E1C762F0314772F0310EE0D6D08031953
:102EF4007D2F0130ED0283160317921F612F0313F8
:102F0400EC01EE1F902F6E087F39031D8D2F831661
:102F14000317101C902F0313EC01EC0A03136C0825
:102F24000319CC2F013083160317900700300318C0
:102F34000130910700300318013092070030031864
:102F440001309307131CCC2F100898001108990026
:102F540012089A0013089B0001309C001B0D9B0C67
:102F64009A0C990C980C9C0BB02F1B0893001A0810
:102F740092001908910018089000831603136D0A33
:102F84000319CC2F013083160317980018088316F1
:102F94000313ED0703136D0A031D6D08031DE12FD1
:102FA4000030831603179300003092000030910024
:102FB40000309000831603136D080319EB016D1C98
:102FC400E72F831603179217ED2F7F30831603170D
:102FD400980018089205831603136D0883160317C7
:102FE40098000310180C9900190893008316031312
:102FF400EB1F0800831603179317080018308A0084
:103004000408840A82070034533465347434203449
:10301400743465346D3470343A34203420342034BC
:1030240020346F344334003432342E3420344E345C
:103034004F3452344D3441344C3420344D344F34B5
:1030440044344534003431342E342034543445343B
:103054005334543420344D344F34443445340034E0
:1030640044347534743479343A342034203420347C
:103074002034203425340034543465346D347034B1
:103084003A3420342034203420346F344334003430
:1033100083160313061401178B170B1708000030D0
:103320000A168A15C2210A168A1501300A168A154C
:10333000C2210800831203138F018E019012101214
:10334000901110119010831603130C1083120313A5
:1033500010100800831603131F109F101F159F11D4
:10336000831203131F139F17831603131F179F172F
:10337000831203131F14831603130C1383120313F6
:103380000C13080083160313A30083120313081001
:103390008316031323080A168A1570220A168A1543
:1033A000831203138814043083160313A2003D30E4
:1033B000A100A10BD929A20BD929831203138810CC
:1033C0000800803083120313BD064108F300400853
:1033D000F2003F08F1003E08F0003D08F7003C080D
:1033E000F6003B08F5003A08F4000A168A11D722C5
:1033F000730883120313BD007208BC007108BB0080
:103400007008BA000800803083160317A306270847
:1034100093002608920025089100240890002308B4
:1034200097002208960021089500200894000A16AB
:103430008A111625831603171308A3001208A20089
:103440001108A1001008A000080083160313A800AB
:10345000A401A5012008A200A3012208A6002308B8
:10346000A700281C392A2608A4070318A50A27083C
:10347000A50701300310A60DA70DFF3E031D3A2A34
:103480000310A80C2808031D312A2508A1002408D0
:10349000A000080083160313A800A601A7012608B0
:1034A000280784000A168A1500200A168A15003A91
:1034B000031908002608280784000A168A15002028
:1034C0000A168A150A168A15DA230A168A15013091
:1034D00083160313A6070318A70A0030A7074F2A6D
:1034E00083160313A000201C792A831203130815E6
:1034F0007C2A83120313081183160313A01C842A49
:10350000831203138815872A8312031388118316E5
:103510000313201D8F2A831203130816922A831285
:103520000313081283160313A01D9A2A8312031390
:1035300088160800831203138812080000308316CF
:103540000313AC000030AB000030AA000030A9002B
:10355000201CBE2A2408A907250803110318013ED0
:10356000031DAA07260803110318013E031DAB071C
:10357000270803110318013E031DAC070130A80002
:103580000310A40DA50DA60DA70DA80BC02A013090
:103590000310A30CA20CA10CA00CFF3E031DC82A13
:1035A0002308220421042004031DA82A2C08A300B8
:1035B0002B08A2002A08A1002908A00008008316F1
:1035C0000313A601A31FEB2AA209A309A20A031948
:1035D000A30AA601A60AA11FF22AA009A109A00A0E
:1035E0000319A10A2008210403191F2BA501A50A0C
:1035F000A11B062B01300310A00DA10DFF3E031DE2
:10360000FB2A0130A4002408A507F82A2108230278
:10361000031D0C2B20082202031C142B2008A202DD
:103620002108031CA303A30201300310A10CA00C6A
:10363000FF3E031D152B0130A502031D062B260896
:103640000319272BA209A309A20A0319A30A230815
:10365000A1002208A000080083160313A700270377
:10366000031D562B24087F3EA5002508AA002A0822
:10367000A50004300310A50CFF3E031D3A2B2508BE
:10368000A6002608A9002A080F39A5002508A800C9
:1036900029080A168A15C2210A168A1583160313E9
:1036A00028080A168A15C2210A168A1502308316BE
:1036B00003132706031D08002408BF3EA5002508A4
:1036C000AA002A08A50004300310A50CFF3E031D24
:1036D000642B2508A6002608A9002A080F39A50092
:1036E0002508A80029080A168A15C2210A168A1573
:1036F0008316031328080A168A15C22108008316A8
:103700000313AD01A81F8B2BA709A809A70A03194A
:10371000A80AAD01AD0AAA1F962BA909AA09A90AF0
:103720000319AA0A0130AB002B08AD06AE01AF01A8
:10373000270828040319CD2BAC01AC0AA81BAC2B1D
:1037400001300310A70DA80DFF3E031DA12B013072
:10375000AB002B08AC079E2B01300310AE0DAF0D54
:10376000FF3E031DAD2B28082A02031DB92B270895
:103770002902031CC22B2708A9022808031CAA033C
:10378000AA022E1401300310A80CA70CFF3E031D43
:10379000C32B0130AC02031DAC2B2D080319D52B14
:1037A000AE09AF09AE0A0319AF0A2F08A8002E0808
:1037B000A700080083160313A50025080F39A100F0
:1037C0002108A3002508F039A1002108A4008312D4
:1037D00003130814831603132408A10004300310F4
:1037E000A10CFF3E031DEF2B21080A168A1570223B
:1037F0000A168A15831203138814043083160313E0
:10380000A2003D30A100A10B032CA20B032C8312BC
:1038100003138810043083160313A2003D30A10067
:10382000A10B102CA20B102C8316031323080A16CD
:103830008A1570220A168A1583120313881404301D
:1038400083160313A2003D30A100A10B252CA20B6F
:10385000252C831203138810043083160313A2004F
:103860003D30A100A10B322CA20B322C08000B1A08
:103870008B1C952C861010140C1C3C2C10104730FF
:10388000C1007F30C000FF30BF000030BE006408C0
:10389000F43EF00065080318013E013EF100F2011C
:1038A000F30100300A168A1191200A168A1573084E
:1038B00083120313A7007208A6007108A500700800
:1038C000A4003E30A3004C30A200CC30A100CD308B
:1038D000A0000A168A155D260A168A15831203139C
:1038E0002308BD002208BC002108BB002008BA0044
:1038F0000A168A15E1210A168A15831203133D0858
:10390000C5003C08C4003B08C3003A08C2000A16C0
:103910008A150A250A168A158312031343088F0095
:1039200042088E000C1086148B104F08FF004E08C2
:103930008A004D0E8300FE0E7E0E090083160313CF
:1039400088010810881000300A168A1570220A169D
:103950008A15C33083160313A500CC30A400A40B32
:10396000AF2CA50BAF2C0000043083160313A50069
:103970003D30A400A40BBA2CA50BBA2C03300A16B8
:103980008A15C2210A168A15213083160313A50051
:103990007530A400A40BCA2CA50BCA2CCF2C033065
:1039A0000A168A15C2210A168A15F93083160313DE
:1039B000A400A40BD92C03300A168A15C2210A16BA
:1039C0008A1502300A168A15C2210A168A15023093
:1039D0000A168A15C2210A168A1508300A168A158F
:1039E000C2210A168A1500300A168A15C2210A1643
:1039F0008A150C300A168A15C2210A168A1500305B
:103A00000A168A15C2210A168A1506300A168A1560
:103A1000C2210800031083120313440D450DC60094
:103A20004608CC004C08031D1E2D0030C500003098
:103A3000C4000030C3000030C20008004208C600C5
:103A40004308C7004408C8004508C9001F300310D8
:103A5000C90CC80CC70CC60CFF3E031D272D460819
:103A6000CA004A08CB00C417FF30C205FF30C305A7
:103A7000FF30C4050030C5059630CC02CC1F552D53
:103A80004C08803A973E031C152D01300310C50CDD
:103A9000C40CC30CC20CFF3E031D462D0130C600F2
:103AA0004608CC070319682D452D20304C02031819
:103AB000152D4C080319682D0130C6000310C20DE6
:103AC000C30DC40DC50DC60B5E2D0130CC02592DA2
:103AD0004B0803190800C209C309C409C509C20A71
:103AE0000319C30A0319C40A0319C50A08000310FD
:103AF000831603172A0D2B0DAC002C08B2003208D8
:103B0000031D8B2D0030AB000030AA000030A9004F
:103B10000030A80008002808AC002908AD002A08D9
:103B2000AE002B08AF001F300310AF0CAE0CAD0C75
:103B3000AC0CFF3E031D942D2C08B0003008B100E2
:103B4000AA17FF30A805FF30A905FF30AA050030ED
:103B5000AB059630B202B21FC22D3208803A973EB2
:103B6000031C822D01300310AB0CAA0CA90CA80C6D
:103B7000FF3E031DB32D0130AC002C08B207031922
:103B8000D52DB22D203032020318822D32080319B0
:103B9000D52D0130AC000310A80DA90DAA0DAB0D59
:103BA000AC0BCB2D0130B202C62D31080319080031
:103BB000A809A909AA09AB09A80A0319A90A03199E
:103BC000AA0A0319AB0A080083160313EA01E71FC8
:103BD000F62DE409E509E609E709E40A0319E50A0F
:103BE0000319E60A0319E70AEA01EA0AE31F032EAA
:103BF000E009E109E209E309E00A0319E10A03190E
:103C0000E20A0319E30A6308620461046004031909
:103C1000462EE901E90AE31B1B2E0130E8000310E0
:103C2000E00DE10DE20DE30DE80B0F2E0130E80091
:103C30006808E9070B2E63086702031D292E620836
:103C40006602031D292E61086502031D292E6008E6
:103C50006402031C392E6008E4026108031C610F32
:103C6000E5026208031C620FE6026308031C630F8F
:103C7000E70201300310E30CE20CE10CE00CFF3E24
:103C8000031D3A2E0130E902031D1B2E6A08031999
:103C9000542EE409E509E609E709E40A0319E50AEF
:103CA0000319E60A0319E70A6708E3006608E20059
:103CB0006508E1006408E000080083120313270888
:103CC0008039A8002808B1002708A8002807A90003
:103CD0002908B800A61B3814380803197D2E380AA5
:103CE000031D7A2E0030A7000030A6000030A5008A
:103CF0000030A400A617A701852E0030A7000030D1
:103D0000A6000030A5000030A40023088039A800D8
:103D10002808B1062308A8002807A9002908B90027
:103D2000A21B391439080319A32E390A031DA02E2A
:103D30000030A3000030A2000030A1000030A0003D
:103D4000A217A301AB2E0030A3000030A200003068
:103D5000A1000030A0002308220421042004031D38
:103D6000CA2E0030A7000030A6000030A5000030A9
:103D7000A4008030A6047F30A7043108A8002808DA
:103D8000A7042708A3002608A2002508A1002408EC
:103D9000A00008003808031DD62E0030A300003014
:103DA000A2000030A1000030A00008003808A800E0
:103DB000A9012908AB0039082802AA00031CAB039B
:103DC0002A087F3EB2002B080318013E003EB300D4
:103DD0002708B0002608AF002508AE002408AD0073
:103DE0000030A7000030A6000030A5000030A4007D
:103DF0000030B7000030B6000030B5000030B4002D
:103E0000B9011A3039020318492F39080319252F2F
:103E10000130A8000310AD0DAE0DAF0DB00DA80B15
:103E20000A2F0130A8000310A40DA50DA60DA70DA3
:103E3000A80B132FB71B24140130A8000310B40DD6
:103E4000B50DB60DB70DA80B1E2F23083002031DAC
:103E5000332F22082F02031D332F21082E02031DAA
:103E6000332F20082D02031C442F37172008AD02E2
:103E70002108031C210FAE022208031C220FAF02EF
:103E80002308031C230FB0020130A8002808B9073B
:103E9000012F30082F042E042D04031D3414A61BFB
:103EA0006C2F0130A8000310A40DA50DA60DA70DC1
:103EB000A80B532FB71B24140130A8000310B40D16
:103EC000B50DB60DB70DA80B5E2FFF30B207031866
:103ED000B30AFF30B3074F2FB901B71F852FFF304B
:103EE0003405A800FF303505A900FF303605AA00CB
:103EF0007F303705AB002B082A0429042804031956
:103F00002418832F852FB901B90A39080319B72F4F
:103F10000130A407003003180130A5070030031852
:103F20000130A607003003180130A707271CB72F60
:103F30002408A8002508A9002608AA002708AB0025
:103F40000130AC002B0DAB0CAA0CA90CA80CAC0BCF
:103F5000A22F2B08A7002A08A6002908A5002808D8
:103F6000A4000130B2070318B30A0030B3073308C6
:103F7000803AFF0080307F02031DC02FFF303202E5
:103F8000031CD02FFF3083120313B2000030B300A4
:103F90000030A7000030A6000030A5000030A400CB
:103FA000831203133308803AFF0080307F02031D21
:103FB000DB2F013032020318EA2F83120313B20100
:103FC000B3010030A7000030A6000030A50000308B
:103FD000A400B101831203133208A8002808B80016
:103FE000381CF42FA617F82F7F30A8002808A60544
:103FF0003808A8000310280CA9002908A700BD2E26
:02400E003A3F37
:00000001FF
