:020000040000FA
:060000000A128A11FC2F18
:10000E00F30083120313081073080A128A15362799
:10001E000A128A118312031388141A30F200F83070
:10002E00F100F10B1828F20B1828000083120313AD
:10003E0088100800FB01FC01760877040319582884
:10004E00FD01FD0AF71B372801300310F60DF70DE1
:10005E00FF3E031D2C280130FA007A08FD072928DF
:10006E0001300310FB0DFC0DFF3E031D38287708F1
:10007E007902031D442876087802031C4D28760861
:10008E00F8027708031CF903F9027B140130031000
:10009E00F70CF60CFF3E031D4E280130FD02031D2A
:1000AE0037287C08F7007B08F6000800F700770376
:1000BE00031D822874087F3EF5007508FA007A0841
:1000CE00F50004300310F50CFF3E031D692875087A
:1000DE00F6007608F8007A080F39F5007508F90071
:1000EE0078080A128A1107200A128A1179080A1250
:1000FE008A110720080002307706031D08007408D5
:10010E00BF3EF5007508FA007A08F50004300310BA
:10011E00F50CFF3E031D8E287508F6007608F800D4
:10012E007A080F39F5007508F90078080A128A1155
:10013E0007200A128A1179080A128A11072008006C
:10014E00053083120313A2002208F40001300A12B4
:10015E008A115D200A128A116430F6000030F70011
:10016E00831203132108F9002008F8000A128A11DD
:10017E0021200A128A117608303E0A128A15C727E4
:10018E000A128A110A30F6000030F70083120313A8
:10019E002108F3002008F2006430F0000030F10076
:1001AE000A128A1595270A128A117108F900700829
:1001BE00F8000A128A1121200A128A117608303E9E
:1001CE000A128A15C7270A128A110A30F000003067
:1001DE00F100831203132108F3002008F2000A1223
:1001EE008A1595270A128A117008303E0A128A154E
:1001FE00C727080000300A128A1536270A128A11FC
:10020E008230F500DD30F400F40B0B29F50B0B29D1
:10021E00102903300A128A1107200A128A1121307E
:10022E00F5007630F400F40B1A29F50B1A290000AC
:10023E0003300A128A1107200A128A114830F5007B
:10024E006C30F400F40B2929F50B2929000003303A
:10025E000A128A1107200A128A1102300A128A1112
:10026E0007200A128A1102300A128A1107200A1276
:10027E008A1108300A128A1107200A128A110030D8
:10028E000A128A1107200A128A110C300A128A11D8
:10029E0007200A128A1100300A128A1107200A1248
:1002AE008A1106300A128A110720080003108312E1
:1002BE0003133C0D3D0DBE003E08C4004408031D53
:1002CE0071290030BD000030BC000030BB00003092
:1002DE00BA0008003A08BE003B08BF003C08C00048
:1002EE003D08C1001F300310C10CC00CBF0CBE0C6A
:1002FE00FF3E031D7A293E08C2004208C300BC1708
:10030E00FF30BA05FF30BB05FF30BC050030BD0520
:10031E009630C402C41FA8294408803A973E031C95
:10032E00682901300310BD0CBC0CBB0CBA0CFF3E8F
:10033E00031D99290130BE003E08C4070319BB29CD
:10034E009829203044020318682944080319BB2950
:10035E000130BE000310BA0DBB0DBC0DBD0DBE0BA2
:10036E00B1290130C402AC29430803190800BA09A7
:10037E00BB09BC09BD09BA0A0319BB0A0319BC0A99
:10038E000319BD0A0800F8007808031DF31FDF29C2
:10039E007009FA007109FB007209FC007309FD0077
:1003AE00FA0A0319FB0A0319FC0A0319FD0AE729C5
:1003BE007308FD007208FC007108FB007008FA005B
:1003CE007308720471047004031DF6290030F300E3
:1003DE000030F2000030F1000030F00008009630DE
:1003EE00F4007408F900FE307D050319272A013048
:1003FE00F4007408F90701300310FD0CFC0CFB0C23
:10040E00FA0CFF3E031D032AFA290130F40074088A
:10041E00F9070130FA07003003180130FB070030EE
:10042E0003180130FC07003003180130FD070130BE
:10043E000310FD0CFC0CFB0CFA0CFF3E031D1F2AD7
:10044E00FF307D0503193B2A0C2A02307902031C6A
:10045E003D2A0130F9020130F4000310FA0DFB0DB4
:10046E00FC0DFD0DF40B342AFC1F2C2A7918472A9B
:10047E00FF30FA05FF30FB057F30FC05FF30FD0530
:10048E000310F90C7908F400F501F601F7011830A4
:10049E000310F40DF50DF60DF70DFF3E031D4F2A5B
:1004AE007408FA047508FB047608FC047708FD044A
:1004BE007808031DF31F642AFD177D08F3007C08DE
:1004CE00F2007B08F1007A08F0000800831603138F
:1004DE008801061086140A128A1101210A128A1145
:1004EE0001300A128A1550270A128A110930831216
:1004FE000313C5004508F40001300A128A115D206D
:10050E000A128A1106300A128A1550270A128A1107
:10051E00831203130614623083120313C600653070
:10052E00C500C50B982AC60B982A83120313061012
:10053E00861C9F2A10148618A22A10100E08F0008E
:10054E000F08F100F201F30100300A128A11CA21DC
:10055E000A128A11730883120313A7007208A600E9
:10056E007108A5007008A4003E30A3004C30A20014
:10057E00CC30A100CD30A0000A128A11E7240A1255
:10058E008A11831203132308BD002208BC00210820
:10059E00BB002008BA000A128A115D210A128A11C4
:1005AE00831203133B08C9003A08C8004808F0003C
:1005BE004908F100F201F30100300A128A11CA2132
:1005CE000A128A11730883120313A7007208A60079
:1005DE007108A5007008A4004230A3006B30A20081
:1005EE004730A100AE30A0000A128A1144230A122D
:1005FE008A11831203132308BD002208BC002108B0
:10060E00BB002008BA000A128A115D210A128A1153
:10061E00831203133B08C9003A08C8000030490290
:10062E00023003194802031C282B01304902913075
:10063E00031948020318282B4908A1004808A000F6
:10064E002B2B0030A000A1000A128A11A7200A123B
:10065E008A11831203138E018F011A308312031332
:10066E00C7005E30C6006D30C500C50B3C2BC60BF7
:10067E003C2BC70B3C2B432B8F2A831203132708CB
:10068E008039A8002808B1002708A8002807A9006B
:10069E002908B800A61B381438080319642B380A29
:1006AE00031D612B0030A7000030A6000030A5000E
:1006BE000030A400A617A7016C2B0030A700003055
:1006CE00A6000030A5000030A40023088039A80041
:1006DE002808B1062308A8002807A9002908B90090
:1006EE00A21B3914390803198A2B390A031D872BCB
:1006FE000030A3000030A2000030A1000030A000A6
:10070E00A217A301922B0030A3000030A2000030EC
:10071E00A1000030A0002308220421042004031DA0
:10072E00B12B0030A7000030A6000030A50000302D
:10073E00A4008030A6047F30A7043108A800280842
:10074E00A7042708A3002608A2002508A100240854
:10075E00A00008003808031DBD2B0030A300003098
:10076E00A2000030A1000030A00008003808A80048
:10077E00A9012908AB0039082802AA00031CAB0303
:10078E002A087F3EB2002B080318013E003EB3003C
:10079E002708B0002608AF002508AE002408AD00DB
:1007AE000030A7000030A6000030A5000030A400E5
:1007BE000030B7000030B6000030B5000030B40095
:1007CE00B9011A3039020318302C390803190C2CD0
:1007DE000130A8000310AD0DAE0DAF0DB00DA80B7E
:1007EE00F12B0130A8000310A40DA50DA60DA70D29
:1007FE00A80BFA2BB71B24140130A8000310B40D5C
:10080E00B50DB60DB70DA80B052C23083002031D30
:10081E001A2C22082F02031D1A2C21082E02031D4A
:10082E001A2C20082D02031C2B2C37172008AD0282
:10083E002108031C210FAE022208031C220FAF0257
:10084E002308031C230FB0020130A8002808B907A3
:10085E00E82B30082F042E042D04031D3414A61B80
:10086E00532C0130A8000310A40DA50DA60DA70D45
:10087E00A80B3A2CB71B24140130A8000310B40D9A
:10088E00B50DB60DB70DA80B452CFF30B2070318EA
:10089E00B30AFF30B307362CB901B71F6C2CFF30EB
:1008AE003405A800FF303505A900FF303605AA0033
:1008BE007F303705AB002B082A04290428040319BE
:1008CE0024186A2C6C2CB901B90A390803199E2C0C
:1008DE000130A407003003180130A50700300318BB
:1008EE000130A607003003180130A707271C9E2CE5
:1008FE002408A8002508A9002608AA002708AB008E
:10090E000130AC002B0DAB0CAA0CA90CA80CAC0B37
:10091E00892C2B08A7002A08A6002908A50028085C
:10092E00A4000130B2070318B30A0030B30733082E
:10093E00803AFF0080307F02031DA72CFF30320269
:10094E00031CB72CFF3083120313B2000030B30028
:10095E000030A7000030A6000030A5000030A40033
:10096E00831203133308803AFF0080307F02031D89
:10097E00C22C013032020318D12C83120313B201A0
:10098E00B3010030A7000030A6000030A5000030F3
:10099E00A400B101831203133208A8002808B8007E
:1009AE00381CDB2CA617DF2C7F30A8002808A605E4
:1009BE003808A8000310280CA9002908A700A42BAA
:1009CE008312031323088039A8002808AD002308DA
:1009DE00A8002807A9002908B300A21B3314330866
:1009EE000319062D330A031D042D0030A300003019
:1009FE00A2000030A1000030A000A2170E2D003082
:100A0E00A3000030A2000030A1000030A000270893
:100A1E008039A8002808AD062708A8002807A900D5
:100A2E002908B200A61B3214320803192B2D320AE4
:100A3E00031D292D0030A7000030A6000030A500B0
:100A4E000030A400A617332D0030A7000030A600FA
:100A5E000030A5000030A4003208031D3308031D2A
:100A6E00412D0030A3000030A2000030A100003064
:100A7E00A00008002008A8002808F00026080A1286
:100A8E008A1572270A128A11710883120313B9008C
:100A9E007008B8003808A800A901AA01AB012B08FC
:100AAE00B1002A08B0002908AF002808AE003908A6
:100ABE00A800A901AA01AB012B08B7002A08B600AD
:100ACE002908B5002808B4002108A8002808F0005D
:100ADE0025080A128A1572270A128A1171088312C2
:100AEE000313B9007008B8003808A800A901AA01BC
:100AFE00AB012808AE07290803110318013E031D98
:100B0E00AF072A0803110318013E031DB0072B0877
:100B1E0003110318013E031DB1073908A800A901EE
:100B2E00AA01AB012808B407290803110318013ED6
:100B3E00031DB5072A0803110318013E031DB6074E
:100B4E002B0803110318013E031DB7072208A80046
:100B5E002808F00024080A128A1572270A128A1130
:100B6E00710883120313B9007008B8003808A80082
:100B7E00A901AA01AB012808AE0729080311031821
:100B8E00013E031DAF072A0803110318013E031D82
:100B9E00B0072B0803110318013E031DB1073908D6
:100BAE00A800A901AA01AB012808B407290803115E
:100BBE000318013E031DB5072A0803110318013E51
:100BCE00031DB6072B0803110318013E031DB707BB
:100BDE000830A8000310AE0DAF0DB00DB10DA80B6F
:100BEE00F12D2108A8002808F00024080A128A1501
:100BFE0072270A128A11710883120313B900700842
:100C0E00B8003808A8003908A900AA01AB012808C5
:100C1E00AE07290803110318013E031DAF072A086A
:100C2E0003110318013E031DB0072B08031103180F
:100C3E00013E031DB1072008A8002808F000250872
:100C4E000A128A1572270A128A1171088312031367
:100C5E00B9007008B8003808A8003908A900AA0120
:100C6E00AB012808AE07290803110318013E031D26
:100C7E00AF072A0803110318013E031DB0072B0806
:100C8E0003110318013E031DB1070830A80003101D
:100C9E00AE0DAF0DB00DB10DA80B4E2E2008A80055
:100CAE002808F00024080A128A1572270A128A11DF
:100CBE00710883120313B9007008B8003808A80031
:100CCE003908A900AA01AB012808AE0729080311AB
:100CDE000318013E031DAF072A0803110318013E36
:100CEE00031DB0072B0803110318013E031DB107A6
:100CFE002108A8002808F00026080A128A15722773
:100D0E000A128A11710883120313B9007008B80011
:100D1E003808A8003908A900AA01AB012808B407B1
:100D2E00290803110318013E031DB5072A080311F4
:100D3E000318013E031DB6072B0803110318013ECD
:100D4E00031DB7072208A8002808F00025080A127C
:100D5E008A1572270A128A11710883120313B900B9
:100D6E007008B8003808A8003908A900AA01AB011C
:100D7E002808B407290803110318013E031DB507FF
:100D8E002A0803110318013E031DB6072B08031191
:100D9E000318013E031DB7072208A8002808F0001B
:100DAE0026080A128A1572270A128A1171088312EE
:100DBE000313B9007008B8003808A8003908A90054
:100DCE00AA01AB0108300310A80DA90DAA0DAB0D99
:100DDE00FF3E031DEA2E2808B40729080311031845
:100DEE00013E031DB5072A0803110318013E031D1A
:100DFE00B6072B0803110318013E031DB7072E0873
:100E0E00A8002F08A9003008AA003108AB0018303E
:100E1E000310AB0CAA0CA90CA80CFF3E031D0F2F40
:100E2E002808B407290803110318013E031DB5074E
:100E3E002A0803110318013E031DB6072B080311E0
:100E4E000318013E031DB7070830A8000310AE0DAE
:100E5E00AF0DB00DB10DA80B2D2F33083207A80022
:100E6E00A901A90D2808823EB80029080318013EE1
:100E7E00FF3EB900B61B5E2F0130A8000310B40D63
:100E8E00B50DB60DB70DA80B452FB11B341401309F
:100E9E00A8000310AE0DAF0DB00DB10DA80B502F65
:100EAE00FF30B8070318B90AFF30B907412FB20156
:100EBE00B11F772FFF302E05A800FF302F05A90098
:100ECE00FF303005AA007F303105AB002B082A0415
:100EDE002904280403193418752F772FB201B20A8A
:100EEE0032080319A92F0130B4070030031801305E
:100EFE00B507003003180130B60700300318013073
:100F0E00B707371CA92F3408A8003508A9003608E2
:100F1E00AA003708AB000130AC002B0DAB0CAA0CAD
:100F2E00A90CA80CAC0B942F2B08B7002A08B600FE
:100F3E002908B5002808B4000130B8070318B90A0B
:100F4E000030B9073908803AFF0080307F02031D58
:100F5E00B22FFF303802031CBF2F7F3083120313D2
:100F6E00B7008030B6000030B5000030B400EF2F6F
:100F7E00831203133908803AFF0080307F02031D6D
:100F8E00CA2F013038020318D82F003083120313F2
:100F9E00B7000030B6000030B5000030B400AD012F
:100FAE00EF2F831203133808A8002808B300FF3070
:100FBE00B405FF30B5057F30B6050030B7053318E0
:100FCE00B6173308A8000310280CA9002908B7008B
:100FDE002D08A8002808B7043708A3003608A20079
:100FEE003508A1003408A000080083010A128A11F6
:100FFE006D2A08308A000408840A820700345334AC
:0E100E0020343D342034003463346D3400341B
:101E6C00F000701C3D2F831203130815402F8312B2
:101E7C0003130811F01C442F8815452F8811701D71
:101E8C00492F08164A2F0812F01D4E2F88160800ED
:101E9C0088120800F700F501F60175087707840031
:101EAC000A128A1500200A128A15003A0319080032
:101EBC007508770784000A128A1500200A128A1501
:101ECC000A128A15C7270A128A150130F50703185A
:101EDC00F60A0030F607532FF800F401F5017008EC
:101EEC00F200F3017208F6007308F700781C842FD7
:101EFC007608F4070318F50A7708F5070130031084
:101F0C00F60DF70DFF3E031D852F0310F80C780816
:101F1C00031D7C2F7508F1007408F0000800700890
:101F2C0071040319C22FF501F50AF11BA92F013019
:101F3C000310F00DF10DFF3E031D9E2F0130F40038
:101F4C007408F5079B2F71087302031DAF2F7008DF
:101F5C007202031CB72F7008F2027108031CF30302
:101F6C00F30201300310F10CF00CFF3E031DB82FEF
:101F7C000130F502031DA92F7308F1007208F0005F
:101F8C000800F40074080F39F1007108F2007408AD
:101F9C00F039F1007108F30083120313081473086D
:101FAC00F10004300310F10CFF3E031DD82F710813
:101FBC000A128A1536270A128A15831203138814FB
:101FCC004230F100F10BE82F00008312031388104C
:101FDC0072080A128A1536270A128A1583120313FD
:101FEC0088144230F100F10BF92F00008312031317
:041FFC008810080041
:02400E003A3F37
:00000001FF
