:020000040000FA
:060000000A128A110C280F
:10000800FE00030EF0000A08F1000A168A11BA2E43
:100018000A128A110F2883160313E401E501E60189
:10002800E701E801E901EA01EB01EC01ED018301D7
:100038000A128A15BD2B8316031331083302F20006
:100048003208031C320A3402F300F401F5010030CF
:100058000A128A1114270A128A11750883160313C3
:10006800E3007408E2007308E1007208E0008316F8
:1000780003171B0883120313A900831603171A0812
:1000880083120313A8008316031719088312031396
:10009800A70083160317180883120313A6008316F4
:1000A80003135F08A3005E08A2005D08A1005C08B6
:1000B800A0006308A7006208A6006108A500600800
:1000C800A4000A128A1508200A128A11831603133B
:1000D800230883120313AD00831603132208831227
:1000E8000313AC0083160313210883120313AB0018
:1000F80083160313200883120313AA000A128A1115
:10010800FF230A128A11831203132908831603177F
:10011800A70083120313280883160317A600831267
:100128000313270883160317A50083120313260851
:1001380083160317A4003F3083120313A90000306D
:10014800A8000030A7000030A600831603172F0868
:1001580083120313AD00831603172E0883120313AB
:10016800AC00831603172D0883120313AB00831604
:1001780003172C0883120313AA000A128A11FF23FB
:100188000A128A1183120313290883160313B8006D
:1001980083120313280883160313B700831203136B
:1001A800270883160313B600831203132608831641
:1001B8000313B5005B0883120313A9008316031306
:1001C8005A0883120313A8008316031359088312CD
:1001D8000313A70083160313580883120313A600FA
:1001E80083160313380883120313AD008316031311
:1001F800370883120313AC008316031336088312DF
:100208000313AB0083160313350883120313AA00E4
:100218000A128A11FF230A128A118312031329086A
:1002280083160313BC0083120313280883160313D1
:10023800BB0083120313270883160313BA00831223
:100248000313260883160313B9003C08831203130B
:10025800A900831603133B0883120313A80083160F
:1002680003133A0883120313A700831603133908EC
:1002780083120313A600831603135F088312031364
:10028800C300831603135E0883120313C200831688
:1002980003135D0883120313C100831603135C085C
:1002A80083120313C0008316031363088312031316
:1002B800C70083160313620883120313C60083164C
:1002C8000313610883120313C50083160313600820
:1002D80083120313C4000A128A15D1250A128A113F
:1002E800831203134308AD004208AC004108AB0079
:1002F8004008AA000A128A11FF230A128A118312DF
:100308000313290883160317A3008312031328086D
:1003180083160317A20083120313270883160317F3
:10032800A10083120313260883160317A000403088
:1003380083120313A9000030A8000030A700003082
:10034800A600831603135F0883120313AD008316F8
:1003580003135E0883120313AC00831603135D08AE
:1003680083120313AB00831603135C088312031371
:10037800AA000A128A11FF230A128A118312031390
:10038800290883160313A30083120313280883166E
:100398000313A20083120313270883160313A10073
:1003A80083120313260883160313A0006308A7000B
:1003B8006208A6006108A5006008A4000A128A1550
:1003C80008200A128A11831603132308C000220882
:1003D800BF002108BE002008BD005B08831203137C
:1003E800D700831603135A0883120313D600831603
:1003F8000313590883120313D500831603135808EF
:1004080083120313D40083160317170883120313E8
:10041800A90083160317160883120313A80083166E
:100428000317150883120313A7008316031714086C
:1004380083120313A600831603172B0883120313D2
:10044800C300831603172A0883120313C2008316F6
:100458000317290883120313C100831603172808FA
:1004680083120313C0008316031340088312031377
:10047800C700831603133F0883120313C6008316AD
:1004880003133E0883120313C500831603133D08A4
:1004980083120313C4000A128A15D1250A128A117D
:1004A800831203134308AD004208AC004108AB00B7
:1004B8004008AA000A128A11FF230A128A1183121D
:1004C80003132908DB002808DA002708D9002608C2
:1004D800D8000A128A151A220A128A1183120313E3
:1004E8005708831603179F008312031356088316B1
:1004F80003179E00831203135508831603179D00E4
:10050800831203135408831603179C0027088312C9
:100518000313C30083160317260883120313C200AC
:1005280083160317250883120313C10083160317C4
:10053800240883120313C0008316031713088312B9
:100548000313C70083160317120883120313C60088
:1005580083160317110883120313C50083160317A4
:10056800100883120313C4000A128A15D1250A122F
:100578008A1183120313430883160313C4008312DA
:100588000313420883160313C3008312031341089D
:1005980083160313C2008312031340088316031340
:1005A800C10083160317230883120313C30083169D
:1005B8000317220883120313C200831603172108A6
:1005C80083120313C1008316031720088312031331
:1005D800C00083160313440883120313C70083164D
:1005E8000313430883120313C60083160313420838
:1005F80083120313C50083160313410883120313E0
:10060800C4000A128A15D1250A128A11831203130B
:10061800430883160313C800831203134208831682
:100628000313C70083120313410883160313C6007C
:1006380083120313400883160313C5008316031798
:100648001F0883120313C300831603171E0883129F
:100658000313C200831603171D0883120313C10076
:10066800831603171C0883120313C0008316031391
:10067800480883120313C70083160313470883121D
:100688000313C60083160313460883120313C50019
:1006980083160313450883120313C4000A128A152C
:1006A800D1250A128A1183120313430883160313F0
:1006B800D70083120313420883160313D60083124C
:1006C8000313410883160313D5008312031340084C
:1006D80083160313D4005708831603179300831651
:1006E800031356088316031792008316031355083D
:1006F80083160317910083160313540883160317F0
:100708009000831603135F0883160317AB00831644
:1007180003135E0883160317AA00831603135D08E4
:1007280083160317A900831603135C08831603179F
:10073800A800831603136308DF006208DE0061085F
:10074800DD006008DC004530F500BB30F400803087
:10075800F3000030F2005708F9005608F800550871
:10076800F7005408F6000A128A1585210A128A1120
:100778000318C82B453083160313D700BB30D600A7
:100788008030D5000030D400831603135708F500D5
:100798005608F4005508F3005408F2000030F90038
:1007A8000030F8000030F7000030F6000A128A1511
:1007B80085210A128A110318EB2B003083160313C4
:1007C800D7000030D6000030D5000030D4008316A2
:1007D80003135708AB005608AA005508A900540887
:1007E800A8000A128A150221831603132908B200E9
:1007F8002808B10008008312031329088039AE00C5
:100808002E08B3002908AE002E07AF002F08B90044
:10081800A81B3914390803191E2C390A031D1C2C6E
:100828000030A9000030A8000030A7000030A60062
:10083800A817262C0030A9000030A8000030A70017
:100848000030A6002D088039AE002E08B3062D080A
:10085800AE002E07AF002F08B800AC1B38143808BC
:100868000319432C380A031D412C0030AD00003019
:10087800AC000030AB000030AA00AC174B2C0030A5
:10088800AD000030AC000030AB000030AA003808E2
:10089800031D3908031D592C0030A9000030A80099
:1008A8000030A7000030A60008002608AE002E0879
:1008B800F2002C080A168A11FC260A128A117308FB
:1008C80083120313BF007208BE003E08AE00AF01DA
:1008D800B001B1013108B7003008B6002F08B500E3
:1008E8002E08B4003F08AE00AF01B001B1013108D5
:1008F800BD003008BC002F08BB002E08BA0027082E
:10090800AE002E08F2002B080A168A11FC260A12DD
:100918008A11730883120313BF007208BE003E08D1
:10092800AE00AF01B001B1012E08B4072F080311C2
:100938000318013E031DB507300803110318013ED3
:10094800031DB607310803110318013E031DB7073D
:100958003F08AE00AF01B001B1012E08BA072F0859
:1009680003110318013E031DBB07300803110318C8
:10097800013E031DBC07310803110318013E031D86
:10098800BD072808AE002E08F2002A080A168A11A8
:10099800FC260A128A11730883120313BF00720817
:1009A800BE003E08AE00AF01B001B1012E08B40789
:1009B8002F0803110318013E031DB5073008031162
:1009C8000318013E031DB607310803110318013E41
:1009D800031DB7073F08AE00AF01B001B1012E08F3
:1009E800BA072F0803110318013E031DBB0730087F
:1009F80003110318013E031DBC0731080311031836
:100A0800013E031DBD070830AE000310B40DB50D3F
:100A1800B60DB70DAE0B092D2708AE002E08F20053
:100A28002A080A168A11FC260A128A1173088312E8
:100A38000313BF007208BE003E08AE003F08AF00B7
:100A4800B001B1012E08B4072F0803110318013EA5
:100A5800031DB507300803110318013E031DB6072F
:100A6800310803110318013E031DB7072608AE001D
:100A78002E08F2002B080A168A11FC260A128A117F
:100A8800730883120313BF007208BE003E08AE004D
:100A98003F08AF00B001B1012E08B4072F080311B9
:100AA8000318013E031DB507300803110318013E62
:100AB800031DB607310803110318013E031DB707CC
:100AC8000830AE000310B40DB50DB60DB70DAE0B62
:100AD800662D2608AE002E08F2002A080A168A118A
:100AE800FC260A128A11730883120313BF007208C6
:100AF800BE003E08AE003F08AF00B001B1012E08AD
:100B0800B4072F0803110318013E031DB507300869
:100B180003110318013E031DB6073108031103181A
:100B2800013E031DB7072708AE002E08F2002C0867
:100B38000A168A11FC260A128A11730883120313F3
:100B4800BF007208BE003E08AE003F08AF00B0010B
:100B5800B1012E08BA072F0803110318013E031D1F
:100B6800BB07300803110318013E031DBC073108F9
:100B780003110318013E031DBD072808AE002E0807
:100B8800F2002B080A168A11FC260A128A11730829
:100B980083120313BF007208BE003E08AE003F0870
:100BA800AF00B001B1012E08BA072F0803110318CE
:100BB800013E031DBB07300803110318013E031D46
:100BC800BC07310803110318013E031DBD0728089F
:100BD800AE002E08F2002C080A168A11FC260A120A
:100BE8008A11730883120313BF007208BE003E08FF
:100BF800AE003F08AF00B001B10108300310AE0DE0
:100C0800AF0DB00DB10DFF3E031D022E2E08BA0721
:100C18002F0803110318013E031DBB0730080311F9
:100C28000318013E031DBC07310803110318013ED8
:100C3800031DBD073408AE003508AF003608B00004
:100C48003708B10018300310B10CB00CAF0CAE0C63
:100C5800FF3E031D272E2E08BA072F08031103187D
:100C6800013E031DBB07300803110318013E031D95
:100C7800BC07310803110318013E031DBD070830E6
:100C8800AE000310B40DB50DB60DB70DAE0B452E65
:100C980039083807AE00AF01AF0D2E08823EBE00FE
:100CA8002F080318013EFF3EBF00BC1B762E013003
:100CB800AE000310BA0DBB0DBC0DBD0DAE0B5D2E05
:100CC800B71B3A140130AE000310B40DB50DB60DC4
:100CD800B70DAE0B682EFF30BE070318BF0AFF30F2
:100CE800BF07592EB801B71F8F2EFF303405AE004D
:100CF800FF303505AF00FF303605B0007F303705CF
:100D0800B100310830042F042E0403193A188D2E2F
:100D18008F2EB801B80A38080319C12E0130BA0756
:100D2800003003180130BB07003003180130BC073E
:100D3800003003180130BD073D1CC12E3A08AE0033
:100D48003B08AF003C08B0003D08B1000130B200DC
:100D5800310DB10CB00CAF0CAE0CB20BAC2E31088F
:100D6800BD003008BC002F08BB002E08BA000130B7
:100D7800BE070318BF0A0030BF073F08803AFF00CC
:100D880080307F02031DCA2EFF303E02031CD72E7F
:100D98007F3083120313BD008030BC000030BB00DD
:100DA8000030BA00072F831203133F08803AFF0070
:100DB80080307F02031DE22E01303E020318F02E20
:100DC800003083120313BD000030BC000030BB00AC
:100DD8000030BA00B301072F831203133E08AE0098
:100DE8002E08B900FF30BA05FF30BB057F30BC05BF
:100DF8000030BD053918BC173908AE0003102E0C99
:100E0800AF002F08BD003308AE002E08BD043D0812
:100E1800A9003C08A8003B08A7003A08A60008005B
:100E280083120313A0002008031DF51F2B2F72093E
:100E3800A2007309A3007409A4007509A500A20AF9
:100E48000319A30A0319A40A0319A50A332F75085D
:100E5800A5007408A4007308A3007208A20075080E
:100E6800740473047204031D422F0030F50000302F
:100E7800F4000030F3000030F20008009630F6006D
:100E88007608A100FE3025050319732F0130F600FE
:100E98007608A10701300310A50CA40CA30CA20C22
:100EA800FF3E031D4F2F462F0130F6007608A1079D
:100EB8000130A207003003180130A30700300318DF
:100EC8000130A407003003180130A50701300310D2
:100ED800A50CA40CA30CA20CFF3E031D6B2FFF3026
:100EE80025050319872F582F02302102031C892F4B
:100EF8000130A1020130F6000310A20DA30DA40DCC
:100F0800A50DF60B802FA41F782F2118932FFF30E3
:100F1800A205FF30A3057F30A405FF30A505031007
:100F2800A10C2108F600F701F801F90118300310A7
:100F3800F60DF70DF80DF90DFF3E031D9B2F7608F2
:100F4800A2047708A3047808A4047908A504200853
:100F5800031DF51FB02FA5172508F5002408F40078
:100F68002308F3002208F2000800F4008316031394
:100F78001F109F101F159F11831203131F139F1714
:100F8800831603131F179F17831203131F14831647
:100F980003130C13831203130C13E22F831603138A
:100FA8000514080083160313851408008316031319
:100FB8000515080083160313851508007408F20048
:100FC800F3017308003A0319EA2FF82F7208013A5F
:100FD8000319D22F033A0319D62F013A0319DA2F2E
:0A0FE800073A0319DE2FF82F080066
:1010000083160313061401178B170B170B16080012
:10101000803083160313A306270883120313C3002B
:1010200083160313260883120313C20083160313C7
:10103000250883120313C1008316031324088312A7
:101040000313C00083160313230883120313C7007E
:1010500083160313220883120313C6008316031397
:10106000210883120313C50083160313200883127B
:101070000313C4000A128A15D125831203134308EF
:1010800083160313A300831203134208831603136A
:10109000A20083120313410883160313A1008312D5
:1010A0000313400883160313A000080083120313E0
:1010B000A0002003031D7F2876087F3EF7007708F5
:1010C000A3002308F70004300310F70CFF3E031DB4
:1010D00064287708F8007808A10023080F39F70082
:1010E0007708A20021080A168A11A0260A128A157A
:1010F0008312031322080A168A11A0260800023060
:101100002006031D08007608BF3EF7007708A300FD
:101110002308F70004300310F70CFF3E031D8B2853
:101120007708F8007808A10023080F39F70077083E
:10113000A20021080A168A11A0260A128A15831213
:10114000031322080A168A11A026080000300A1686
:101150008A1186260A128A158230F700DD30F600E1
:10116000F60BB028F70BB028B52803300A168A1101
:10117000A0260A128A152130F7007630F600F60B09
:10118000BF28F70BBF28000003300A168A11A026DB
:101190000A128A154830F7006C30F600F60BCE289C
:1011A000F70BCE28000003300A168A11A0260A1277
:1011B0008A1502300A168A11A0260A128A150230F0
:1011C0000A168A11A0260A128A1508300A168A11F0
:1011D000A0260A128A1500300A168A11A0260A12C1
:1011E0008A150C300A168A11A0260A128A150030B8
:1011F0000A168A11A0260A128A1506300A168A11C2
:10120000A02608000310831603132A0D2B0DAC0033
:101210002C0883120313EF006F08031D1A290030F6
:1012200083160313AB000030AA000030A900003081
:10123000A8000800831603132808AC002908AD0095
:101240002A08AE002B08AF001F300310AF0CAE0C05
:10125000AD0CAC0CFF3E031D25292C08B000300856
:1012600083120313EE0083160313AA17FF30A80599
:10127000FF30A905FF30AA050030AB059630831278
:101280000313EF02EF1F5D296F08803A973E031C9E
:101290000F290130031083160313AB0CAA0CA90C01
:1012A000A80CFF3E031D4A290130AC002C08831214
:1012B0000313EF0703197429492920306F0203181B
:1012C0000F296F0803197429013083160313AC002A
:1012D0000310A80DA90DAA0DAB0DAC0B68290130A8
:1012E00083120313EF0261296E08031908008316A5
:1012F0000313A809A909AA09AB09A80A0319A90A8D
:101300000319AA0A0319AB0A0800003072058312F8
:101310000313A00000307305A10080307405A20003
:101320007F307505A3002308220421042004031D37
:10133000A1290030F5000030F4000030F300003047
:10134000F20000307605A00000307705A100803063
:101350007805A2007F307905A30023082204210428
:101360002004031DBB290030F9000030F8000030D4
:10137000F7000030F600F51FE1290030A000003032
:10138000A1000030A2008030A3007208A002730800
:10139000031C730FCC29CD29A1027408031C740F00
:1013A000D229D329A2027508031C750FD829D9297F
:1013B000A3022308F5002208F4002108F300200806
:1013C000F200F91F072A0030A0000030A100003011
:1013D000A2008030A3007608A0027708031C770FD4
:1013E000F229F329A1027808031C780FF829F929BA
:1013F000A2027908031C790FFE29FF29A302230802
:10140000F9002208F8002108F7002008F6008030D3
:10141000F5068030F90679087502031D0800780882
:101420007402031D080077087302031D0800760884
:1014300072020800831203135B088039DC005C0829
:10144000E5005B08DC005C07DD005D08EC00DA1BF2
:101450006C146C0803193A2A6C0A031D372A0030F1
:10146000DB000030DA000030D9000030D800DA1795
:10147000DB01422A0030DB000030DA000030D90006
:101480000030D80057088039DC005C08E5065708B2
:10149000DC005C07DD005D08ED00D61B6D146D08F7
:1014A0000319602A6D0A031D5D2A0030D700003041
:1014B000D6000030D5000030D400D617D701682AF6
:1014C0000030D7000030D6000030D5000030D40006
:1014D0005708560455045404031D872A0030DB00C6
:1014E0000030DA000030D9000030D8008030DA0453
:1014F0007F30DB046508DC005C08DB045B08D70098
:101500005A08D6005908D5005808D40008006C08BD
:10151000031D932A0030D7000030D6000030D500DC
:101520000030D40008006C08DC00DD015D08DF003D
:101530006D085C02DE00031CDF035E087F3EE600F0
:101540005F080318013E003EE7005B08E4005A080C
:10155000E3005908E2005808E1000030DB000030E9
:10156000DA000030D9000030D8000030EB00003045
:10157000EA000030E9000030E800ED011A306D02A9
:101580000318062B6D080319E22A0130DC00031052
:10159000E10DE20DE30DE40DDC0BC72A0130DC00A8
:1015A0000310D80DD90DDA0DDB0DDC0BD02AEB1BA7
:1015B00058140130DC000310E80DE90DEA0DEB0DC5
:1015C000DC0BDB2A57086402031DF02A560863026D
:1015D000031DF02A55086202031DF02A5408610217
:1015E000031C012B6B175408E1025508031C550F0F
:1015F000E2025608031C560FE3025708031C570F5C
:10160000E4020130DC005C08ED07BE2A64086304D4
:1016100062046104031D6814DA1B292B0130DC000D
:101620000310D80DD90DDA0DDB0DDC0B102BEB1BE5
:1016300058140130DC000310E80DE90DEA0DEB0D44
:10164000DC0B1B2BFF30E6070318E70AFF30E70728
:101650000C2BED01EB1F422BFF306805DC00FF3047
:101660006905DD00FF306A05DE007F306B05DF00B5
:101670005F085E045D045C0403195818402B422B7C
:10168000ED01ED0A6D080319742B0130D807003005
:1016900003180130D907003003180130DA07003091
:1016A00003180130DB075B1C742B5808DC00590859
:1016B000DD005A08DE005B08DF000130E0005F0D4E
:1016C000DF0CDE0CDD0CDC0CE00B5F2B5F08DB00BD
:1016D0005E08DA005D08D9005C08D8000130E60732
:1016E0000318E70A0030E7076708803AFF008030F8
:1016F0007F02031D7D2BFF306602031C8D2BFF3004
:1017000083120313E6000030E7000030DB000030F6
:10171000DA000030D9000030D800831203136708C4
:10172000803AFF0080307F02031D982B0130660253
:101730000318A72B83120313E601E7010030DB0037
:101740000030DA000030D9000030D800E501831203
:1017500003136608DC005C08EC006C1CB12BDA1784
:10176000B52B7F30DC005C08DA056C08DC00031068
:101770005C0CDD005D08DB007A2A3F308316031322
:10178000DB000030DA000030D9000030D8004130F2
:10179000831603179B0088309A00003099000030B0
:1017A00098003D30AF004C30AE00CC30AD00CD30B5
:1017B000AC003D3097004C309600CC309500CD30D9
:1017C00094000030AB000030AA000030A9000030C7
:1017D000A8002B0883160313DF00831603172A08BB
:1017E00083160313DE0083160317290883160313D9
:1017F000DD0083160317280883160313DC005F0837
:10180000E3005E08E2005D08E1005C08E0000030F3
:10181000831603179F0000309E0000309D000030AB
:101820009C001F08A3001E08A2001D08A1001C08A0
:10183000A0002308A7002208A6002108A500200870
:10184000A40000309300003092000030910000307E
:101850009000130883160313D7008316031712088A
:1018600083160313D6008316031711088316031378
:10187000D50083160317100883160313D4003C30D9
:10188000D0000030D1008801831203138801831631
:1018900003130710861301300A128A11B9270A129E
:1018A0008A150A128A15A6200A128A150A168A11A2
:1018B00076260A128A150A128A1500200A128A153B
:1018C00001300A168A11DA260A128A15F601F60A7A
:1018D00002300A128A1556200A128A1510300A168A
:1018E0008A11DA260A128A1500300A168A118A2706
:1018F0000A128A15730883160313CF007208CE00EC
:101900004E08F2004F08F300F401F50100300A120E
:101910008A1114270A128A15750883120313AD0061
:101920007408AC007308AB007208AA003E30A9002E
:10193000F930A800DB30A7002330A6000A128A1174
:10194000FF230A128A15831203132908C7002808E7
:10195000C6002708C5002608C4003F30C300003079
:10196000C2000030C1000030C0000A128A15D12523
:101970000A128A1583120313430883160313AB005C
:1019800083120313420883160313AA00831203135E
:10199000410883160313A90083120313400883161A
:1019A0000313A8000A128A1502210A128A15831647
:1019B00003132908D3002808D2004730A70080303D
:1019C000A6000030A5000030A4004C08E83EF2005C
:1019D0004D080318013E033EF300F401F501003009
:1019E0000A128A1114270A128A1575088312031322
:1019F000DB007408DA007308D9007208D8003F30A1
:101A0000D700CC30D600CC30D500CD30D4000A126F
:101A10008A151A220A128A1583120313570883168D
:101A20000313A30083120313560883160313A200A3
:101A300083120313550883160313A10083120313A3
:101A4000540883160313A0000A128A1508200A12EC
:101A50008A15831603132308AB002208AA00210865
:101A6000A9002008A8000A128A1502210A128A1564
:101A7000831603132908ED002808EC000F30C90075
:101A80004908F60001300A128A1556200A128A15F2
:101A90000A30F2000030F300831603135108F500FA
:101AA0005008F4000A168A11C4270A128A1572080F
:101AB000303E0A168A1151270A128A150A30F2009E
:101AC0000030F300831603135108F5005008F400AA
:101AD0000A168A111F270A128A157208303E0A1642
:101AE0008A1151270A128A150B3083160313C90075
:101AF0004908F60002300A128A1556200A128A1581
:101B00000A30F2000030F300831603135308F50087
:101B10005208F4000A168A11C4270A128A1572089C
:101B2000303E0A168A1151270A128A150A30F2002D
:101B30000030F300831603135308F5005208F40035
:101B40000A168A111F270A128A157208303E0A16D1
:101B50008A1151270A128A15831603135308B200FB
:101B60005208B1005108B4005008B3000A128A119B
:101B70001F200A128A15831603133208CD0031087C
:101B8000CC000D3083160313CB00AF30CA00B53044
:101B9000C900C90BC92DCA0BC92DCB0BC92DD02D1E
:101BA000742C8312031343088039C8004808D000FE
:101BB0004308C8004807C9004908D200C21B521494
:101BC00052080319F12D520A031DEE2D0030C300F7
:101BD0000030C2000030C1000030C000C217C30195
:101BE000F92D0030C3000030C2000030C1000030C9
:101BF000C00047088039C8004808D1005108500685
:101C0000031D50174708C8004807C9004908D100FC
:101C1000C61B5114510803191B2E510A031D182EFF
:101C20000030C7000030C6000030C5000030C400DE
:101C3000C617C701232E0030C7000030C600003091
:101C4000C5000030C400520851020318692E501F0D
:101C50002D2E8030C8004808D0065208C800480819
:101C6000D3005108C8004808D2005308C8004808EB
:101C7000D1004008C8004808D3004408C8004808FC
:101C8000C0005308C8004808C4004108C8004808FC
:101C9000D3004508C8004808C1005308C8004808D8
:101CA000C5004208C8004808D3004608C8004808D4
:101CB000C2005308C8004808C6004308C8004808C6
:101CC000D3004708C8004808C3005308C8004808A4
:101CD000C700D3015108C800C9014908CB00520808
:101CE0004802CA00031CCB034B08803AFF00803037
:101CF0007F02031D7D2E1A304A02031CB62E83126A
:101D0000031343084204410440040319892E01309F
:101D10008A2E0030C8004808D3000030C3000030CD
:101D2000C2000030C1000030C0005108C80048089F
:101D3000D200BC2E531CA52E5308C8000310480C1B
:101D40000138C9004908D300A72E0310D30C40184E
:101D5000D3170130C800430DC30CC20CC10CC00C1A
:101D6000C80BAB2E0130C8004808D20783120313FA
:101D700051085202031C9A2E501BFD2E5208031DBF
:101D8000CA2E0030C3000030C2000030C100003055
:101D9000C00008004408C007450803110318013EAD
:101DA000031DC107460803110318013E031DC207A6
:101DB000470803110318013E031DC307431C9F2F4F
:101DC000531CEB2E5308C8000310480C0138C900FF
:101DD0004908D300ED2E0310D30C4018D31701305F
:101DE000C800430DC30CC20CC10CC00CC80BF12EB3
:101DF0000130C8004808D2079F2F4308803AFF00EF
:101E00004708803A7F02031D0F2F46084202031D38
:101E10000F2F45084102031D0F2F440840020318ED
:101E2000672FFF30C800FF30C900FF30CA00FF3005
:101E3000CB004408CC004508CD004608CE0047083A
:101E4000CF004008CC024108031C410F282F292F46
:101E5000CD024208031C420F2E2F2F2FCE02430823
:101E6000031C430F342F352FCF024C08C8074D08F1
:101E700003184D0F3C2F3D2FC9074E0803184E0F76
:101E8000422F432FCA074F0803184F0ACB074B08AE
:101E9000C3004A08C2004908C1004808C000803099
:101EA000C8004808D006D309D30A5308031D752F6C
:101EB0000130C007003003180130C107003003189B
:101EC0000130C207003003180130C307752F4408E2
:101ED000C0024508031C450FC1024608031C460FFB
:101EE000C2024708031C470FC302430842044104CF
:101EF0004004031D9D2F5308031D9D2F0030C30078
:101F00000030C2000030C1000030C00008000130C5
:101F1000C8000310C00DC10DC20DC30DC80B892F21
:101F2000D31B4014531C962F0314972F0310D30D6B
:101F3000520803199D2F0130D202C21F872FD101F1
:101F4000D31FAA2F53087F3903194018A82FAA2F8F
:101F5000D101D10A51080319DD2F0130C00700302B
:101F600003180130C107003003180130C2070030E8
:101F700003180130C307431CDD2F4008C800410887
:101F8000C9004208CA004308CB000130CC004B0D09
:101F9000CB0CCA0CC90CC80CCC0BC72F4B08C30008
:101FA0004A08C2004908C1004808C000520A031983
:101FB000DD2F0130C8004808D207520A031D52081D
:101FC000031DED2F0030C3000030C2000030C100FF
:101FD0000030C00052080319D001521CF12FC21763
:101FE000F52F7F30C8004808C2055208C80003100A
:101FF000480CC9004908C300D01F0800C3170800D7
:1020000010308A000408840A820700344E34683491
:10201000693465347434203464346F342034643467
:10202000613474343A34203400344E3468346934C2
:1020300065347434203464346F343A3420340034DA
:102CEC00831203138F018E01901610169011101180
:102CFC009010831603130C1083120313101008008A
:102D0C00F200721C8D2E831203130815902E831261
:102D1C0003130811F21C942E8815952E8811721D20
:102D2C00992E08169A2E0812F21D9E2E881608004F
:102D3C0088120800F50083120313081075080A1690
:102D4C008A1186260A168A118312031388141A30E4
:102D5C00F400F830F300F30BB12EF40BB12E00009D
:102D6C0083120313881008000B1A8B1CD32E8312AA
:102D7C000313071010140C1CC12E10108316031310
:102D8C006D08831203138F00831603136C088312D0
:102D9C0003138E000C1007148B1071088A00700E30
:102DAC008300FE0E7E0E0900F900F701F80177088A
:102DBC00790784000A168A1100200A168A11003A33
:102DCC00031908007708790784000A168A11002075
:102DDC000A168A110A168A1151270A168A1101300D
:102DEC00F7070318F80A0030F807DD2EFA00F60191
:102DFC00F7017208F400F5017408F8007508F90081
:102E0C007A1C0E2F7808F6070318F70A7908F707CB
:102E1C0001300310F80DF90DFF3E031D0F2F0310A9
:102E2C00FA0C7A08031D062F7708F3007608F200D7
:102E3C0008007208730403194C2FF701F70AF31BEF
:102E4C00332F01300310F20DF30DFF3E031D282F1D
:102E5C000130F6007608F707252F73087502031D5D
:102E6C00392F72087402031C412F7208F402730884
:102E7C00031CF503F50201300310F30CF20CFF3EBA
:102E8C00031D422F0130F702031D332F7508F30089
:102E9C007408F2000800F60076080F39F300730886
:102EAC00F4007608F039F3007308F500831203136D
:102EBC0008147508F30004300310F30CFF3E031DD7
:102ECC00622F73080A168A1186260A168A11831233
:102EDC00031388144230F300F30B722F000083129B
:102EEC000313881074080A168A1186260A168A118A
:102EFC008312031388144230F300F30B832F00006A
:102F0C008312031388100800FA0004307A02031CA1
:102F1C00922FF201F30108007A08F400023003103A
:102F2C00F40DFF3E031D952F0310740DF50075086D
:102F3C00831203139F041030F400F40BA32F000032
:102F4C00831203131F151F19A92F1E08F400F50176
:102F5C007408F8007508F9007808F500F401831678
:102F6C0003131E087407F6000030031801307507B0
:102F7C00F7007608F2007708F3000800F701F80173
:102F8C00720873040319FB2FF901F90AF31BDA2FEA
:102F9C0001300310F20DF30DFF3E031DCF2F013056
:102FAC00F6007608F907CC2F01300310F70DF80D59
:102FBC00FF3E031DDB2F73087502031DE72F7208FC
:102FCC007402031CF02F7208F4027308031CF5033F
:102FDC00F502771401300310F30CF20CFF3E031DC5
:102FEC00F12F0130F902031DDA2F7808F30077086E
:042FFC00F2000800D7
:02400E003A3F37
:00000001FF
