:020000040000FA
:060000000A128A11FC2F18
:100B8A00F00070088312031393000800F300831621
:100B9A0003138712731DD52D720894008715D92D5A
:100BAA007008720494008711730871048312031386
:100BBA00940008007008710403190C2EF501F50A57
:100BCA00F11BF32D01300310F00DF10DFF3E031D53
:100BDA00E82D0130F4007408F507E52D7108730259
:100BEA00031DF92D70087202031C012E7008F2020F
:100BFA007108031CF303F30201300310F10CF00C2B
:100C0A00FF3E031D022E0130F502031DF32D73086A
:100C1A00F1007208F0000800FB01FC017608770475
:100C2A000319482EFD01FD0AF71B272E0130031078
:100C3A00F60DF70DFF3E031D1C2E0130FA007A084F
:100C4A00FD07192E01300310FB0DFC0DFF3E031D9D
:100C5A00282E77087902031D342E76087802031CA1
:100C6A003D2E7608F8027708031CF903F9027B1473
:100C7A0001300310F70CF60CFF3E031D3E2E013027
:100C8A00FD02031D272E7C08F7007B08F6000800EA
:100C9A00F200831603131F109F101F159F11831252
:100CAA0003131F139F17831603131F179F1783120C
:100CBA0003131F14831603130C13831203130C1349
:100CCA00762E83160313051408008316031385145E
:100CDA0008008316031305150800831603138515E8
:100CEA0008007208F000F1017108003A03197E2E1B
:100CFA008C2E7008013A0319662E033A03196A2EDC
:100D0A00013A03196E2E073A0319722E8C2E080027
:100D1A00F8000130F2007208831203139F050430B1
:100D2A007802031C9B2EF001F10108007808F200FA
:100D3A0002300310F20DFF3E031D9E2E0310720DAA
:100D4A00F30073089F040D30F300FB30F200F20B3E
:100D5A00AC2EF30BAC2EB12E831203131F151F19E1
:100D6A00B42E1E08F200F3017208F6007308F700A9
:100D7A007608F300F201831603131E087207F400C3
:100D8A000030031801307307F5007408F000750885
:100D9A00F1000800F001F101F20120300A128A1173
:100DAA00CB250A128A1100300A128A114D260A121C
:100DBA008A1101300A128A114D260A128A1100304C
:100DCA000A128A118D260A128A11710883120313D4
:100DDA00A3007008A20001300A128A118D260A1295
:100DEA008A11710883120313A5007008A4003A300F
:100DFA000A128A11C5250A128A110F3083120313A7
:100E0A00A000A00B062F092FE830F6000330F700E8
:100E1A00831203132308F9002208F8000A128A1120
:100E2A0011260A128A1176080A128A11C5250A128F
:100E3A008A116430F6000030F70083120313230886
:100E4A00F3002208F200E830F0000330F1000A1241
:100E5A008A11DF250A128A117108F9007008F80050
:100E6A000A128A1111260A128A1176080A128A119E
:100E7A00C5250A128A110A30F6000030F7008312DB
:100E8A0003132308F3002208F2006430F000003054
:100E9A00F1000A128A11DF250A128A117108F90073
:100EAA007008F8000A128A1111260A128A117608A5
:100EBA000A128A11C5250A128A110A30F000003076
:100ECA00F100831203132308F3002208F2000A1226
:100EDA008A11DF250A128A1170080A128A11C52599
:100EEA000A128A11413083120313A100ED30A000C7
:100EFA00A00B7D2FA10B7D2F822FE830F600033047
:100F0A00F700831203132508F9002408F8000A12CF
:100F1A008A1111260A128A1176080A128A11C5251F
:100F2A000A128A116430F6000030F70083120313A4
:100F3A002508F3002408F200E830F0000330F1003D
:100F4A000A128A11DF250A128A117108F90070083B
:100F5A00F8000A128A1111260A128A1176080A1250
:100F6A008A11C5250A128A110A30F6000030F700E4
:100F7A00831203132508F3002408F2006430F000FA
:100F8A000030F1000A128A11DF250A128A1171084B
:100F9A00F9007008F8000A128A1111260A128A1139
:100FAA0076080A128A11C5250A128A110A30F00037
:100FBA000030F100831203132508F3002408F2001D
:100FCA000A128A11DF250A128A1170080A128A1176
:100FDA00C5250A128A11413083120313A100ED308C
:100FEA00A000A00BF62FA10BF62FFB2FE42E8301F6
:060FFA000A128A11CF2E3D
:02400E003A3F37
:00000001FF
