:020000040000FA
:060000000A128A110C280F
:10000800FE00030EF0000A08F1000A168A11BF2F3D
:100018000A128A110F288313B7308400C8300A16D1
:100028008A11482783010A128A111A288316031392
:100038000514871344300A128A1550200A128A11AF
:100048000A128A15F2210A128A110A168A117327CE
:100058000A128A110A128A11F2270A128A110A163A
:100068008A1161270A128A110A168A1150270A1260
:100078008A1111300A168A11DE270A128A11F6012E
:10008800F60A02300A128A15A2210A128A110130D0
:100098000A168A11DE270A128A1100300A128A15F6
:1000A800E4200A128A11730883160313C400720825
:1000B800C30003304402FD3003194302031C6D28BA
:1000C8008B120030BE000030BD000030BC00003094
:1000D800C8298B16430883120313B200831603132F
:1000E800440883120313B300B401B5010030B9000A
:1000F8000030B8000030B7000030B6000030BD0056
:100108000030BC000330BB00FF30BA000030C10033
:100118000030C0000030BF00F230BE000030C50023
:100128000030C4000030C3000030C2000A128A1533
:1001380065240A128A1183120313330883160313E2
:10014800C60083120313320883160313C500003058
:10015800A9000130AA0045082902F2004608031C3C
:10016800460A2A02F300F401F50100300A128A1542
:10017800C0230A128A11750883120313AD0074088C
:10018800AC007308AB007208AA003E30A9004C30DE
:10019800A800CC30A700CD30A6000A128A113A2355
:1001A8000A128A1183120313290883160313B20053
:1001B80083120313280883160313B1008312031351
:1001C800270883160313B000831203132608831627
:1001D8000313AF00320883120313AD008316031311
:1001E800310883120313AC008316031330088312FB
:1001F8000313AB00831603132F0883120313AA00FB
:100208004030A9000030A8000030A7000030A60048
:100218000A128A113A230A128A118312031329082F
:1002280083160313B60083120313280883160313D7
:10023800B50083120313270883160313B40083122F
:100248000313260883160313B30036088312031317
:10025800AD0083160313350883120313AC0083160D
:100268000313340883120313AB00831603133308F4
:1002780083120313AA004330A9008030A80000307D
:10028800A7000030A6000A128A113A230A128A111E
:1002980083120313290883160313AE008312031372
:1002A800280883160313AD00831203132708831647
:1002B8000313AC0083120313260883160313AB0041
:1002C8004C3083120313C7006430C600E130C50008
:1002D800C030C400831603132E0883120313AD0025
:1002E800831603132D0883120313AC00831603131C
:1002F8002C0883120313AB00831603132B088312F5
:100308000313AA004330A9004830A8000030A70012
:100318000030A6000A128A113A230A128A1183129F
:1003280003132908C3002808C2002708C1002608AB
:10033800C0000A128A114F260A128A118312031367
:10034800430883160313A30083120313420883167A
:100358000313A20083120313410883160313A10099
:1003680083120313400883160313A0000A128A1588
:10037800AE220A128A11831603132308BE0022082C
:10038800BD002108BC002008BB0083120313160817
:1003980083160313C200831203131508831603136D
:1003A800C1004108F2004208F300F401F5010030F1
:1003B8000A128A15C0230A128A11750883120313B8
:1003C800AD007408AC007308AB007208AA003E3098
:1003D800A9004C30A800CC30A700CD30A6000A12E6
:1003E8008A113A230A128A118312031329088316E1
:1003F8000313B20083120313280883160313B100F2
:1004080083120313270883160313B0008312031300
:10041800260883160313AF00320883120313AD00B6
:1004280083160313310883120313AC0083160313D6
:10043800300883120313AB00831603132F088312AB
:100448000313AA004130A9000030A8000030A7001B
:100458000030A6000A128A113A230A128A1183125E
:100468000313290883160313B600831203132808FD
:1004780083160313B5008312031327088316031387
:10048800B40083120313260883160313B3003A0833
:10049800F5003908F4003808F3003708F200003096
:1004A8000A128A15C0230A128A11750883120313C7
:1004B800E1007408E0007308DF007208DE004C30C9
:1004C800C7006430C600E130C500C030C4008316E0
:1004D8000313360883120313AD008316031335087C
:1004E80083120313AC008316031334088312031317
:1004F800AB0083160313330883120313AA00423098
:10050800A9002030A8000030A7000030A6000A1279
:100518008A113A230A128A11831203132908C30085
:100528002808C2002708C1002608C0000A128A113C
:100538004F260A128A11831203134308DD0042086A
:10054800DC004108DB004008DA000A128A15D125D0
:100558000A128A11831203135D0883160313A3007A
:10056800831203135C0883160313A2008312031378
:100578005B0883160313A100831203135A0883161A
:100588000313A0000A128A15AE220A128A118316D2
:1005980003132308BA002208B9002108B80020086C
:1005A800B700283047020318DE2A0130A9002908BD
:1005B800C707022B0030F5000030F4000030F300CC
:1005C8002830F2003A08F9003908F8003808F7002E
:1005D8003708F6000A128A154E220A128A11730881
:1005E80083160313C0007208BF000030BA00003041
:1005F800B9000030B8000030B700C7013E08031D3D
:10060800132B3D08031D132B3C08031D132B7530BA
:100618003B02031D0F2B0318132BBF01C001400819
:1006280083120313A500831603133F0883120313D1
:10063800A400831603133C0883120313A700831630
:1006480003133B0883120313A6000A128A150B250D
:100658000A128A11413083160313AA00ED30A9004B
:10066800A90B342BAA0B342B392B512883120313D3
:1006780029088039AE002E08B3002908AE002E07DD
:10068800AF002F08B900A81B391439080319592BD2
:10069800390A031D572B0030A9000030A80000308C
:1006A800A7000030A600A817612B0030A900003071
:1006B800A8000030A7000030A6002D088039AE0041
:1006C8002E08B3062D08AE002E07AF002F08B8007D
:1006D800AC1B3814380803197E2B380A031D7C2BF1
:1006E8000030AD000030AC000030AB000030AA0094
:1006F800AC17862B0030AD000030AC000030AB00EA
:100708000030AA003808031D3908031D942B003057
:10071800A9000030A8000030A7000030A60008009B
:100728002608AE002E08F2002C080A128A152D2081
:100738000A128A11730883120313BF007208BE00DD
:100748003E08AE00AF01B001B1013108B700300872
:10075800B6002F08B5002E08B4003F08AE00AF0160
:10076800B001B1013108BD003008BC002F08BB0042
:100778002E08BA002708AE002E08F2002B080A122D
:100788008A152D200A128A11730883120313BF00D9
:100798007208BE003E08AE00AF01B001B1012E08DC
:1007A800B4072F0803110318013E031DB5073008CD
:1007B80003110318013E031DB6073108031103187E
:1007C800013E031DB7073F08AE00AF01B001B101FC
:1007D8002E08BA072F0803110318013E031DBB0793
:1007E800300803110318013E031DBC07310803112B
:1007F8000318013E031DBD072808AE002E08F200AD
:100808002A080A128A152D200A128A1173088312DF
:100818000313BF007208BE003E08AE00AF01B0016E
:10082800B1012E08B4072F0803110318013E031D58
:10083800B507300803110318013E031DB607310838
:1008480003110318013E031DB7073F08AE00AF01AF
:10085800B001B1012E08BA072F0803110318013E91
:10086800031DBB07300803110318013E031DBC0715
:10087800310803110318013E031DBD070830AE00FF
:100888000310B40DB50DB60DB70DAE0B442C2708EB
:10089800AE002E08F2002A080A128A152D200A1224
:1008A8008A11730883120313BF007208BE003E0842
:1008B800AE003F08AF00B001B1012E08B4072F0801
:1008C80003110318013E031DB5073008031103186F
:1008D800013E031DB607310803110318013E031D2D
:1008E800B7072608AE002E08F2002B080A128A1550
:1008F8002D200A128A11730883120313BF0072088D
:10090800BE003E08AE003F08AF00B001B1012E089E
:10091800B4072F0803110318013E031DB50730085B
:1009280003110318013E031DB6073108031103180C
:10093800013E031DB7070830AE000310B40DB50D16
:10094800B60DB70DAE0BA12C2608AE002E08F2008E
:100958002A080A128A152D200A128A11730883128E
:100968000313BF007208BE003E08AE003F08AF0088
:10097800B001B1012E08B4072F0803110318013E76
:10098800031DB507300803110318013E031DB60700
:10099800310803110318013E031DB7072708AE00ED
:1009A8002E08F2002C080A128A152D200A128A1124
:1009B800730883120313BF007208BE003E08AE001E
:1009C8003F08AF00B001B1012E08BA072F08031184
:1009D8000318013E031DBB07300803110318013E2D
:1009E800031DBC07310803110318013E031DBD0791
:1009F8002808AE002E08F2002B080A128A152D20AE
:100A08000A128A11730883120313BF007208BE000A
:100A18003E08AE003F08AF00B001B1012E08BA078A
:100A28002F0803110318013E031DBB0730080311EB
:100A38000318013E031DBC07310803110318013ECA
:100A4800031DBD072808AE002E08F2002C080A1264
:100A58008A152D200A128A11730883120313BF0006
:100A68007208BE003E08AE003F08AF00B001B101F9
:100A780008300310AE0DAF0DB00DB10DFF3E031DD4
:100A88003D2D2E08BA072F0803110318013E031D38
:100A9800BB07300803110318013E031DBC073108CA
:100AA80003110318013E031DBD073408AE003508C5
:100AB800AF003608B0003708B10018300310B10C89
:100AC800B00CAF0CAE0CFF3E031D622D2E08BA070A
:100AD8002F0803110318013E031DBB07300803113B
:100AE8000318013E031DBC07310803110318013E1A
:100AF800031DBD070830AE000310B40DB50DB60DCB
:100B0800B70DAE0B802D39083807AE00AF01AF0D19
:100B18002E08823EBE002F080318013EFF3EBF008C
:100B2800BC1BB12D0130AE000310BA0DBB0DBC0DBE
:100B3800BD0DAE0B982DB71B3A140130AE00031053
:100B4800B40DB50DB60DB70DAE0BA32DFF30BE0716
:100B58000318BF0AFF30BF07942DB801B71FCA2D6D
:100B6800FF303405AE00FF303505AF00FF303605E5
:100B7800B0007F303705B100310830042F042E044F
:100B880003193A18C82DCA2DB801B80A380803192C
:100B9800FC2D0130BA07003003180130BB070030C4
:100BA80003180130BC07003003180130BD073D1C95
:100BB800FC2D3A08AE003B08AF003C08B0003D08E9
:100BC800B1000130B200310DB10CB00CAF0CAE0C5D
:100BD800B20BE72D3108BD003008BC002F08BB0060
:100BE8002E08BA000130BE070318BF0A0030BF073D
:100BF8003F08803AFF0080307F02031D052EFF303A
:100C08003E02031C122E7F3083120313BD00803076
:100C1800BC000030BB000030BA00422E8312031320
:100C28003F08803AFF0080307F02031D1D2E0130EF
:100C38003E0203182B2E003083120313BD00003030
:100C4800BC000030BB000030BA00B301422E831252
:100C580003133E08AE002E08B900FF30BA05FF3076
:100C6800BB057F30BC050030BD053918BC173908F5
:100C7800AE0003102E0CAF002F08BD003308AE00E5
:100C88002E08BD043D08A9003C08A8003B08A700A1
:100C98003A08A60008008312031347088039C800E1
:100CA8004808D1004708C8004807C9004908D800C3
:100CB800C61B5814580803196F2E580A031D6C2EAA
:100CC8000030C7000030C6000030C5000030C40046
:100CD800C617C701772E0030C7000030C6000030A5
:100CE800C5000030C40043088039C8004808D10650
:100CF8004308C8004807C9004908D900C21B59144D
:100D080059080319952E590A031D922E0030C30065
:100D18000030C2000030C1000030C000C217C3015B
:100D28009D2E0030C3000030C2000030C1000030EA
:100D3800C0004308420441044004031DBC2E003097
:100D4800C7000030C6000030C5000030C400803045
:100D5800C6047F30C7045108C8004808C7044708BC
:100D6800C3004608C2004508C1004408C000080086
:100D78005808031DC82E0030C3000030C2000030E0
:100D8800C1000030C00008005808C800C90149085F
:100D9800CB0059084802CA00031CCB034A087F3E0F
:100DA800D2004B080318013E003ED3004708D0008C
:100DB8004608CF004508CE004408CD000030C700E3
:100DC8000030C6000030C5000030C4000030D70035
:100DD8000030D6000030D5000030D400D9011A30D8
:100DE800590203183B2F59080319172F0130C8005F
:100DF8000310CD0DCE0DCF0DD00DC80BFC2E01303C
:100E0800C8000310C40DC50DC60DC70DC80B052FAE
:100E1800D71B44140130C8000310D40DD50DD60DCE
:100E2800D70DC80B102F43085002031D252F420869
:100E38004F02031D252F41084E02031D252F400890
:100E48004D02031C362F57174008CD024108031CDA
:100E5800410FCE024208031C420FCF024308031C75
:100E6800430FD0020130C8004808D907F32E5008B4
:100E78004F044E044D04031D5414C61B5E2F01304D
:100E8800C8000310C40DC50DC60DC70DC80B452FEE
:100E9800D71B44140130C8000310D40DD50DD60D4E
:100EA800D70DC80B502FFF30D2070318D30AFF30D5
:100EB800D307412FD901D71F772FFF305405C8001A
:100EC800FF305505C900FF305605CA007F30570569
:100ED800CB004B084A044904480403194418752FE9
:100EE800772FD901D90A59080319A92F0130C40746
:100EF800003003180130C507003003180130C60759
:100F0800003003180130C707471CA92F4408C80040
:100F18004508C9004608CA004708CB000130CC0084
:100F28004B0DCB0CCA0CC90CC80CCC0B942F4B081E
:100F3800C7004A08C6004908C5004808C40001306F
:100F4800D2070318D30A0030D3075308803AFF00AA
:100F580080307F02031DB22FFF305202031CC22FC4
:100F6800FF3083120313D2000030D3000030C700D3
:100F78000030C6000030C5000030C40083120313DF
:100F88005308803AFF0080307F02031DCD2F0130C7
:100F980052020318DC2F83120313D201D30100304D
:100FA800C7000030C6000030C5000030C400D101C1
:100FB800831203135208C8004808D800581CE62FAB
:100FC800C617EA2F7F30C8004808C6055808C80069
:100FD8000310480CC9004908C700AF2E0730831614
:100FE800031381008312031381018B168B170B17D0
:020FF8000800EF
:1010000008308A000408840A8207003454346F349C
:101010006334203464346F343A3420342034203440
:1010200020342034723470346D34003466346534C6
:10103000653464343A34203420342034203420346D
:101040002034723470346D340034453452345234A8
:041050004F340034E5
:10105A00FA00F601F7017208F400F5017408F800C5
:10106A007508F9007A1C3F287808F6070318F70A6A
:10107A007908F70701300310F80DF90DFF3E031D3B
:10108A0040280310FA0C7A08031D37287708F30062
:10109A007608F2000800F40062288316031385011B
:1010AA0008008316031386010800831603138701B9
:1010BA00080083160313880108007408F200F3017C
:1010CA007308003A03196A2878287208413A031902
:1010DA005228033A03195628013A03195A28073A9B
:1010EA0003195E2878280800720873040319A628D1
:1010FA00F701F70AF31B8D2801300310F20DF30DE7
:10110A00FF3E031D82280130F6007608F7077F2884
:10111A0073087502031D932872087402031C9B2826
:10112A007208F4027308031CF503F5020130031078
:10113A00F30CF20CFF3E031D9C280130F702031D3D
:10114A008D287508F3007408F2000800F600760886
:10115A000F39F3007308F4007608F039F3007308C6
:10116A00F5008312031308147508F3000430031002
:10117A00F30CFF3E031DBC2873080A168A118B273D
:10118A000A128A158312031388144230F300F30BF0
:10119A00CC28000083120313881074080A168A11D7
:1011AA008B270A128A158312031388144230F3001C
:1011BA00F30BDD2800008312031388100800FA00DD
:1011CA000130F4007408831203139F057A08F400AF
:1011DA0002300310F40DFF3E031DEE280310740DB8
:1011EA00F50075089F040D30F500FB30F400F40B90
:1011FA00FC28F50BFC280129831203131F151F195C
:10120A0004291E08F400F5017408F8007508F900AD
:10121A007808F500F401831603131E087407F60014
:10122A000030031801307507F7007608F2007708D6
:10123A00F300080083120313A101A20178087904BC
:10124A0003195829A301A30AF91B372901300310EE
:10125A00F80DF90DFF3E031D2C290130A0002008CE
:10126A00A307292901300310A10DA20DFF3E031D7A
:10127A00382979087B02031D442978087A02031C5D
:10128A004D297808FA027908031CFB03FB02211492
:10129A0001300310F90CF80CFF3E031D4E290130F2
:1012AA00A302031D37292208F9002108F8000800C3
:1012BA00003083120313A3000030A2000030A10003
:1012CA000030A000721C7F29760883120313A0073E
:1012DA00770803110318013E031DA10778080311BB
:1012EA000318013E031DA207790803110318013EE2
:1012FA00031DA3070130FA000310F60DF70DF80DD0
:10130A00F90DFA0B812901300310F50CF40CF30CDA
:10131A00F20CFF3E031D89297508740473047204D4
:10132A00031D6729831203132308F5002208F4001A
:10133A002108F3002008F200080083120313A0001A
:10134A002003031DCB2976087F3EF7007708A30008
:10135A002308F70004300310F70CFF3E031DB029E1
:10136A007708F8007808A10023080F39F7007708F2
:10137A00A20021080A168A11A5270A128A158312C1
:10138A00031322080A168A11A5270800023020062C
:10139A00031D08007608BF3EF7007708A30023085C
:1013AA00F70004300310F70CFF3E031DD729770816
:1013BA00F8007808A10023080F39F7007708A2007F
:1013CA0021080A168A11A5270A128A1583120313FD
:1013DA0022080A168A11A527080000300A168A115F
:1013EA008B270A128A158230F700DD30F600F60BD9
:1013FA00FC29F70BFC29012A03300A168A11A527B2
:10140A000A128A152130F7007630F600F60B0B2AFD
:10141A00F70B0B2A000003300A168A11A5270A12B5
:10142A008A154830F7006C30F600F60B1A2AF70BCB
:10143A001A2A000003300A168A11A5270A128A15E9
:10144A0002300A168A11A5270A128A1502300A16CC
:10145A008A11A5270A128A1508300A168A11A527A1
:10146A000A128A1500300A168A11A5270A128A1545
:10147A000C300A168A11A5270A128A1500300A1694
:10148A008A11A5270A128A1506300A168A11A52773
:10149A000800003083120313A3000030A2000030BA
:1014AA00A1000030A00075087404730472040319C3
:1014BA00A52AA401A40AF51B702A0130FA00031018
:1014CA00F20DF30DF40DF50DFA0B642A0130FA0052
:1014DA007A08A407602A0130FA000310A00DA10DB2
:1014EA00A20DA30DFA0B722A75087902031D872A29
:1014FA0074087802031D872A73087702031D872A56
:10150A0072087602031C982A7208F6027308031CF2
:10151A00730FF7027408031C740FF8027508031C92
:10152A00750FF902201401300310F50CF40CF30CBA
:10153A00F20CFF3E031D992A0130A402031D702AF2
:10154A002308F5002208F4002108F3002008F2001D
:10155A000800031083160313220D230DA400240888
:10156A0083120313EF006F08031DC62A0030831687
:10157A000313A3000030A2000030A1000030A00035
:10158A000800831603132008A4002108A5002208D6
:10159A00A6002308A7001F300310A70CA60CA50C51
:1015AA00A40CFF3E031DD12A2408A8002808831290
:1015BA000313EE0083160313A217FF30A005FF30B2
:1015CA00A105FF30A2050030A3059630831203134C
:1015DA00EF02EF1F092B6F08803A973E031CBB2AC4
:1015EA000130031083160313A30CA20CA10CA00C48
:1015FA00FF3E031DF62A0130A400240883120313B8
:10160A00EF070319202BF52A20306F020318BB2A93
:10161A006F080319202B013083160313A40003104B
:10162A00A00DA10DA20DA30DA40B142B0130831242
:10163A000313EF020D2B6E08031908008316031318
:10164A00A009A109A209A309A00A0319A10A031959
:10165A00A20A0319A30A080083120313AD01A71FE4
:10166A00432BA409A509A609A709A40A0319A50ACF
:10167A000319A60A0319A70AAD01AD0AAB1F542B19
:10168A00A809A909AA09AB09A80A0319A90A0319E9
:10169A00AA0A0319AB0A0130FB007B08AD06003029
:1016AA00B1000030B0000030AF000030AE002708B3
:1016BA002604250424040319A92BAC01AC0AA71B90
:1016CA00742B0130FB000310A40DA50DA60DA70D68
:1016DA00FB0B682B0130FB007B08AC07642B013045
:1016EA00FB000310AE0DAF0DB00DB10DFB0B762B49
:1016FA0027082B02031D8B2B26082A02031D8B2B7E
:10170A0025082902031D8B2B24082802031C9C2B65
:10171A002408A8022508031C250FA9022608031C71
:10172A00260FAA022708031C270FAB022E1401302A
:10173A000310A70CA60CA50CA40CFF3E031D9D2BA1
:10174A000130AC02031D742B2D080319B72BAE0907
:10175A00AF09B009B109AE0A0319AF0A0319B00AF1
:10176A000319B10A3108A7003008A6002F08A500FE
:10177A002E08A400080083120313A0002008031DEA
:10178A00F51FD72B7209A2007309A3007409A400DC
:10179A007509A500A20A0319A30A0319A40A0319C1
:1017AA00A50ADF2B7508A5007408A4007308A30016
:1017BA007208A2007508740473047204031DEE2BE8
:1017CA000030F5000030F4000030F3000030F20081
:1017DA0008009630F6007608A100FE3025050319A8
:1017EA001F2C0130F6007608A10701300310A50C62
:1017FA00A40CA30CA20CFF3E031DFB2BF22B013001
:10180A00F6007608A1070130A2070030031801305C
:10181A00A307003003180130A40700300318013071
:10182A00A50701300310A50CA40CA30CA20CFF3EC3
:10183A00031D172CFF3025050319332C042C023005
:10184A002102031C352C0130A1020130F6000310DD
:10185A00A20DA30DA40DA50DF60B2C2CA41F242C50
:10186A0021183F2CFF30A205FF30A3057F30A405C5
:10187A00FF30A5050310A10C2108F600F701F801B5
:10188A00F90118300310F60DF70DF80DF90DFF3EAA
:10189A00031D472C7608A2047708A3047808A40439
:1018AA007908A5042008031DF51F5C2CA517250837
:1018BA00F5002408F4002308F3002208F2000800C7
:1018CA00831203133A08C6003B08C7003C08C80045
:1018DA003D08C9003608C6023708031C370F762CA4
:1018EA00772CC7023808031C380F7C2C7D2CC802C1
:1018FA003908031C390F822C832CC9024908A70016
:10190A004808A6004708A5004608A4003208CA00ED
:10191A003308CB003408CC003508CD003608CA029B
:10192A003708031C370F9A2C9B2CCB023808031C50
:10193A00380FA02CA12CCC023908031C390FA62C75
:10194A00A72CCD024D08F5004C08F4004B08F30013
:10195A004A08F2004208CE004308CF004408D000EB
:10196A004508D1003E08CE023F08031C3F0FBE2C9B
:10197A00BF2CCF024008031C400FC42CC52CD00238
:10198A004108031C410FCA2CCB2CD1025108F90083
:10199A005008F8004F08F7004E08F6000A128A1598
:1019AA005D210A128A15750883120313AB007408A5
:1019BA00AA007308A9007208A8000A128A1531231E
:1019CA008312031324083E07D200003003180130A3
:1019DA002507D4010318D40A3F07D3000318D40AF1
:1019EA0026085407D5010318D50A4007D40003185E
:1019FA00D50A270855074107D5005508B5005408E8
:101A0A00B4005308B3005208B2000800073083122A
:101A1A000313A8002808F60001300A128A15A22129
:101A2A000A128A158312031324082504031D242D80
:101A3A0020300A168A11DE270A128A15772D643099
:101A4A00F8000030F9002508FB002408FA000A1201
:101A5A008A151F210A128A157808303E0A128A1539
:101A6A00AB200A128A150A30F8000030F9008312F6
:101A7A0003132508F5002408F4006430F20000304E
:101A8A00F3000A128A1579200A128A157308FB00D4
:101A9A007208FA000A128A151F210A128A15780892
:101AAA00303E0A128A15AB200A128A150A30F20051
:101ABA000030F300831203132508F5002408F4000C
:101ACA000A128A1579200A128A157208303E0A12F9
:101ADA008A15AB200A128A1520300A128A15AB2001
:101AEA000A128A15093083120313A8002808F6007F
:101AFA0002300A128A15A2210A128A156430F800E5
:101B0A000030F900831203132708FB002608FA00A5
:101B1A000A128A151F210A128A157808303E0A12FB
:101B2A008A15AB200A128A150A30F8000030F9002B
:101B3A00831203132708F5002608F4006430F20024
:101B4A000030F3000A128A1579200A128A157308DE
:101B5A00FB007208FA000A128A151F210A128A1556
:101B6A007808303E0A128A15AB200A128A150A3002
:101B7A00F2000030F300831203132708F500260849
:101B8A00F4000A128A1579200A128A157208303E60
:101B9A000A128A15AB200800831203135D088039E4
:101BAA00E2006208EA005D08E2006207E3006308F7
:101BBA00EC00DC1B6C146C080319F12D6C0A031D74
:101BCA00EE2D0030DD000030DC000030DB0000309C
:101BDA00DA00DC17DD01F92D0030DD000030DC0011
:101BEA000030DB000030DA0061088039E200620868
:101BFA00EB006B086A06031D6A176108E2006207B8
:101C0A00E3006308EB00E01B6B146B0803191B2E3F
:101C1A006B0A031D182E0030E1000030E00000308E
:101C2A00DF000030DE00E017E101232E0030E10082
:101C3A000030E0000030DF000030DE006C086B028C
:101C4A000318692E6A1F2D2E8030E2006208EA0608
:101C5A006C08E2006208ED006B08E2006208EC0022
:101C6A006D08E2006208EB005A08E2006208ED0023
:101C7A005E08E2006208DA006D08E2006208DE002F
:101C8A005B08E2006208ED005F08E2006208DB0020
:101C9A006D08E2006208DF005C08E2006208ED00FD
:101CAA006008E2006208DC006D08E2006208E000F9
:101CBA005D08E2006208ED006108E2006208DD00EA
:101CCA006D08E2006208E100ED016B08E200E30141
:101CDA006308E5006C086202E400031CE50365087A
:101CEA00803AFF0080307F02031D7D2E1A30640285
:101CFA00031CB62E831203135D085C045B045A04AA
:101D0A000319892E01308A2E0030E2006208ED00A4
:101D1A000030DD000030DC000030DB000030DA008B
:101D2A006B08E2006208EC00BC2E6D1CA52E6D0843
:101D3A00E2000310620C0138E3006308ED00A72EED
:101D4A000310ED0C5A18ED170130E2005D0DDD0CA1
:101D5A00DC0CDB0CDA0CE20BAB2E0130E200620881
:101D6A00EC07831203136B086C02031C9A2E6A1B7E
:101D7A00FD2E6C08031DCA2E0030DD000030DC0089
:101D8A000030DB000030DA0008005E08DA075F087E
:101D9A0003110318013E031DDB0760080311031832
:101DAA00013E031DDC07610803110318013E031DF0
:101DBA00DD075D1C9F2F6D1CEB2E6D08E2000310E2
:101DCA00620C0138E3006308ED00ED2E0310ED0C00
:101DDA005A18ED170130E2005D0DDD0CDC0CDB0C4E
:101DEA00DA0CE20BF12E0130E2006208EC079F2FB9
:101DFA005D08803AFF006108803A7F02031D0F2FB9
:101E0A0060085C02031D0F2F5F085B02031D0F2F82
:101E1A005E085A020318672FFF30E200FF30E30022
:101E2A00FF30E400FF30E5005E08E6005F08E700E7
:101E3A006008E8006108E9005A08E6025B08031C2A
:101E4A005B0F282F292FE7025C08031C5C0F2E2F3B
:101E5A002F2FE8025D08031C5D0F342F352FE9028E
:101E6A006608E20767080318670F3C2F3D2FE30750
:101E7A0068080318680F422F432FE40769080318FC
:101E8A00690AE5076508DD006408DC006308DB0011
:101E9A006208DA008030E2006208EA06ED09ED0A1B
:101EAA006D08031D752F0130DA0700300318013061
:101EBA00DB07003003180130DC070030031801305B
:101ECA00DD07752F5E08DA025F08031C5F0FDB026D
:101EDA006008031C600FDC026108031C610FDD024D
:101EEA005D085C045B045A04031D9D2F6D08031DE5
:101EFA009D2F0030DD000030DC000030DB000030B8
:101F0A00DA0008000130E2000310DA0DDB0DDC0D07
:101F1A00DD0DE20B892FED1B5A146D1C962F03144D
:101F2A00972F0310ED0D6C0803199D2F0130EC0259
:101F3A00DC1F872FEB01ED1FAA2F6D087F390319CC
:101F4A005A18A82FAA2FEB01EB0A6B080319DD2FE9
:101F5A000130DA07003003180130DB0700300318BC
:101F6A000130DC07003003180130DD075D1CDD2F6E
:101F7A005A08E2005B08E3005C08E4005D08E5003B
:101F8A000130E600650DE50CE40CE30CE20CE60B0F
:101F9A00C72F6508DD006408DC006308DB006208FF
:101FAA00DA006C0A0319DD2F0130E2006208EC073F
:101FBA006C0A031D6C08031DED2F0030DD00003094
:101FCA00DC000030DB000030DA006C080319EA019B
:101FDA006C1CF12FDC17F52F7F30E2006208DC055C
:101FEA006C08E2000310620CE3006308DD00EA1FDC
:061FFA000800DD170800DD
:102E900064008001840A0406031900340406492FE3
:102EA00083160313071583120313950196018316E6
:102EB00003130C158312031397111715971017148A
:102EC0000800831203138E018F01901610169011C3
:102ED000101190108B170B17831603130C1083120D
:102EE000031310140800831603131F109F101F11E3
:102EF0009F11831203131F179F13831603131F17AA
:102F00009F17831203131F14831603130C138312CA
:102F100003130C130800F200721C922F8312031388
:102F20000815952F831203130811F21C992F881589
:102F30009A2F8811721D9E2F08169F2F0812F21DBE
:102F4000A32F8816080088120800F50083120313C7
:102F5000081075080A168A118B270A168A1183121F
:102F6000031388141A30F400F830F300F30BB62F73
:102F7000F40BB62F00008312031388100800831689
:102F800003130C1DCA2F831203130C1DCA2F8E01AD
:102F90008F010C110B198B1ED72F803083128706DF
:102FA0008316031345088312031381000B11710864
:102FB0008A00700E8300FE0E7E0E0900F900F701F4
:102FC000F8017708790784000A128A1500200A168A
:102FD0008A11003A031908007708790784000A1259
:102FE0008A1500200A168A110A128A15AB200A16C1
:102FF0008A110130F7070318F80A0030F807E12FAB
:02400E003A3F37
:00000001FF
