:020000040000FA
:060000000A128A110C280F
:10000800FE00030EF0000A08F1000A168A11BC2D42
:100018000A128A110F2883160313E201E301E4018F
:10002800E501E601E701E801E901EA01EB01EC017C
:10003800ED0183010A128A150C2D83160313280873
:100048002A02F2002908031C290A2B02F300F401F2
:10005800F50100300A128A1595200A128A117508CE
:1000680083160313E1007408E0007308DF007208C8
:10007800DE00550883120313DD00831603135408AA
:1000880083120313DC00831603135308831203132C
:10009800DB0083160313520883120313DA0040307F
:1000A800C3000030C2000030C1000030C000831619
:1000B8000313590883120313A9008316031358085E
:1000C80083120313A800831603135708831203131C
:1000D800A70083160313560883120313A60083167A
:1000E8000313510883120313AD008316031350083A
:1000F80083120313AC00831603134F0883120313F0
:10010800AB00831603134E0883120313AA000A12C6
:100118008A117C240A128A11831203132908C70042
:100128002808C6002708C5002608C4000A128A1530
:100138003A210A128A11831203134308E100420884
:10014800E0004108DF004008DE000A128A15DD22BF
:100158000A128A11831203135D0883160313B7006A
:10016800831203135C0883160313B6008312031368
:100178005B0883160313B500831203135A0883160A
:100188000313B400403083120313C3000030C200CD
:100198000030C1000030C000831603134D088312DD
:1001A8000313C700831603134C0883120313C600F6
:1001B800831603134B0883120313C5008316031316
:1001C8004A0883120313C4000A128A153A210A1234
:1001D8008A11831203134308DD004208DC0041083A
:1001E800DB004008DA008316031337088312031371
:1001F800E10083160313360883120313E000831605
:100208000313350883120313DF008316031334081E
:1002180083120313DE000A128A15DD220A128A11DC
:10022800831203135D08831603179F0083120313B9
:100238005C08831603179E00831203135B0883165A
:1002480003179D00831203135A08831603179C0093
:10025800831603135508A3005408A2005308A100ED
:100268005208A000403083120313C3000030C200BC
:100278000030C1000030C0008316031359088312F0
:100288000313A90083160313580883120313A80045
:1002980083160313570883120313A7008316031347
:1002A800560883120313A6008316031351088312FA
:1002B8000313AD0083160313500883120313AC0015
:1002C800831603134F0883120313AB00831603131B
:1002D8004E0883120313AA000A128A117C240A12F8
:1002E8008A11831203132908C7002808C6002708A3
:1002F800C5002608C4000A128A153A210A128A1172
:1003080083120313430883160313A70083120313EE
:10031800420883160313A6008312031341088316A9
:100328000313A50083120313400883160313A400C4
:100338000A168A1106270A128A118316031323083C
:10034800AF002208AE002108AD002008AC00590813
:1003580083120313C300831603135808831203136D
:10036800C20083160313570883120313C1008316B0
:100378000313560883120313C0004030A90000304D
:10038800A8000030A7000030A600831603134D080C
:1003980083120313AD00831603134C08831203134F
:1003A800AC00831603134B0883120313AB008316A8
:1003B80003134A0883120313AA000A128A117C2421
:1003C8000A128A11831203132908C7002808C600D5
:1003D8002708C5002608C4000A128A153A210A12FD
:1003E8008A1183120313430883160313A30083128D
:1003F8000313420883160313A20083120313410850
:1004080083160313A10083120313400883160313F2
:10041800A0002F08A7002E08A6002D08A5002C086C
:10042800A4000A168A1106270A128A1183160313D2
:100438002308831603179B008316031322088316C9
:1004480003179A00831603132108831603179900CC
:1004580083160313200883160317980083160313C3
:10046800590883120313C300831603135808831211
:100478000313C20083160313570883120313C10022
:1004880083160313560883120313C000831603133D
:100498004D0883120313C700831603134C088312F5
:1004A8000313C600831603134B0883120313C500F6
:1004B800831603134A0883120313C4000A128A1509
:1004C8003A210A128A118312031343088316031769
:1004D80097008312031342088316031796008312AA
:1004E800031341088316031795008312031340086A
:1004F800831603179400130883120313DD00831671
:100508000317120883120313DC008316031711085C
:1005180083120313DB0083160317100883120313D7
:10052800DA00831603171F0883120313A900831622
:1005380003171E0883120313A800831603171D0848
:1005480083120313A700831603171C0883120313CF
:10055800A60083160313610883120313AD008316E4
:100568000313600883120313AC00831603135F0898
:1005780083120313AB00831603135E08831203135D
:10058800AA000A128A117C240A128A118312031300
:100598002908E1002808E0002708DF002608DE0017
:1005A8000A128A15DD220A128A11831203135D08C2
:1005B80083160313B700831203135C08831603130F
:1005C800B600831203135B0883160313B500831266
:1005D80003135A0883160313B400831603171B0862
:1005E80083120313A900831603171A08831203132F
:1005F800A80083160317190883120313A70083168C
:100608000317180883120313A600831603135D0843
:1006180083120313AD00831603135C0883120313BC
:10062800AC00831603135B0883120313AB00831615
:1006380003135A0883120313AA000A128A117C248E
:100648000A128A11831203132908DD002808DC0026
:100658002708DB002608DA008316031337088312FD
:100668000313E10083160313360883120313E00013
:1006780083160313350883120313DF00831603134D
:10068800340883120313DE000A128A15DD220A12C7
:100698008A11831203135D0883160313B3008312B0
:1006A80003135C0883160313B200831203135B0859
:1006B80083160313B100831203135A088316031316
:1006C800B00083160317170883120313A9008316B3
:1006D8000317160883120313A800831603171508B7
:1006E80083120313A7008316031714088312031336
:1006F800A60083160317230883120313AD0083167D
:100708000317220883120313AC008316031721086A
:1007180083120313AB0083160317200883120313F5
:10072800AA000A128A117C240A128A11831203135E
:100738002908DD002808DC002708DB002608DA0085
:1007480083160313330883120313E100831603137C
:10075800320883120313E00083160313310883124F
:100768000313DF0083160313300883120313DE001C
:100778000A128A15DD220A128A11831203135D08F0
:1007880083160313C900831203135C08831603132B
:10079800C800831203135B0883160313C700831270
:1007A80003135A0883160313C60049088316031750
:1007B80093008316031348088316031792008316C1
:1007C800031347088316031791008316031346087B
:1007D800831603179000831603135D088316031707
:1007E800A300831603135C0883160317A20083165D
:1007F80003135B0883160317A100831603135A0813
:1008080083160317A000831603136108DD00600830
:10081800DC005F08DB005E08DA004330F5007F305B
:10082800F4000030F3000030F2004908F9004808ED
:10083800F8004708F7004608F6000A128A15002053
:100848000A128A110318322C433083160313C90085
:100858007F30C8000030C7000030C600831603137D
:100868004908F5004808F4004708F3004608F20074
:100878000030F9000030F8000030F7000030F600D2
:100888000A128A1500200A128A110318552C003002
:1008980083160313C9000030C8000030C7000030B9
:1008A800C60083160313490883120313DD00831659
:1008B8000313480883120313DC0083160313470845
:1008C80083120313DB0083160313460883120313F2
:1008D800DA000A128A1191270A128A118312031365
:1008E8005B08E6005A08E5000A168A1195250800F3
:1008F8008312031329088039AE002E08B300290893
:10090800AE002E07AF002F08B900A81B391439080C
:1009180003199B2C390A031D992C0030A9000030BB
:10092800A8000030A7000030A600A817A32C0030AC
:10093800A9000030A8000030A7000030A6002D084C
:100948008039AE002E08B3062D08AE002E07AF0082
:100958002F08B800AC1B381438080319C02C380A03
:10096800031DBE2C0030AD000030AC000030AB00E1
:100978000030AA00AC17C82C0030AD000030AC0025
:100988000030AB000030AA003808031D3908031DE9
:10099800D62C0030A9000030A8000030A700003095
:1009A800A60008002608AE002E08F2002C080A1639
:1009B8008A113A260A128A11730883120313BF0098
:1009C8007208BE003E08AE00AF01B001B1013108A7
:1009D800B7003008B6002F08B5002E08B4003F084D
:1009E800AE00AF01B001B1013108BD003008BC0054
:1009F8002F08BB002E08BA002708AE002E08F20008
:100A08002B080A168A113A260A128A1173088312C9
:100A18000313BF007208BE003E08AE00AF01B0016C
:100A2800B1012E08B4072F0803110318013E031D56
:100A3800B507300803110318013E031DB607310836
:100A480003110318013E031DB7073F08AE00AF01AD
:100A5800B001B1012E08BA072F0803110318013E8F
:100A6800031DBB07300803110318013E031DBC0713
:100A7800310803110318013E031DBD072808AE0005
:100A88002E08F2002A080A168A113A260A128A1132
:100A9800730883120313BF007208BE003E08AE003D
:100AA800AF01B001B1012E08B4072F0803110318D4
:100AB800013E031DB507300803110318013E031D4D
:100AC800B607310803110318013E031DB7073F0895
:100AD800AE00AF01B001B1012E08BA072F0803110B
:100AE8000318013E031DBB07300803110318013E1C
:100AF800031DBC07310803110318013E031DBD0780
:100B08000830AE000310B40DB50DB60DB70DAE0B21
:100B1800862D2708AE002E08F2002A080A168A1128
:100B28003A260A128A11730883120313BF00720847
:100B3800BE003E08AE003F08AF00B001B1012E086C
:100B4800B4072F0803110318013E031DB507300829
:100B580003110318013E031DB607310803110318DA
:100B6800013E031DB7072608AE002E08F2002B0829
:100B78000A168A113A260A128A1173088312031375
:100B8800BF007208BE003E08AE003F08AF00B001CB
:100B9800B1012E08B4072F0803110318013E031DE5
:100BA800B507300803110318013E031DB6073108C5
:100BB80003110318013E031DB7070830AE000310E8
:100BC800B40DB50DB60DB70DAE0BE32D2608AE006E
:100BD8002E08F2002A080A168A113A260A128A11E1
:100BE800730883120313BF007208BE003E08AE00EC
:100BF8003F08AF00B001B1012E08B4072F08031158
:100C08000318013E031DB507300803110318013E00
:100C1800031DB607310803110318013E031DB7076A
:100C28002708AE002E08F2002C080A168A113A2668
:100C38000A128A11730883120313BF007208BE00D8
:100C48003E08AE003F08AF00B001B1012E08BA0758
:100C58002F0803110318013E031DBB0730080311B9
:100C68000318013E031DBC07310803110318013E98
:100C7800031DBD072808AE002E08F2002B080A162F
:100C88008A113A260A128A11730883120313BF00C5
:100C98007208BE003E08AE003F08AF00B001B101C7
:100CA8002E08BA072F0803110318013E031DBB07BE
:100CB800300803110318013E031DBC073108031156
:100CC8000318013E031DBD072808AE002E08F200D8
:100CD8002C080A168A113A260A128A1173088312F6
:100CE8000313BF007208BE003E08AE003F08AF0005
:100CF800B001B10108300310AE0DAF0DB00DB10D4C
:100D0800FF3E031D7F2E2E08BA072F080311031874
:100D1800013E031DBB07300803110318013E031DE4
:100D2800BC07310803110318013E031DBD07340831
:100D3800AE003508AF003608B0003708B1001830EB
:100D48000310B10CB00CAF0CAE0CFF3E031DA42E6B
:100D58002E08BA072F0803110318013E031DBB070D
:100D6800300803110318013E031DBC0731080311A5
:100D78000318013E031DBD070830AE000310B40D73
:100D8800B50DB60DB70DAE0BC22E39083807AE003B
:100D9800AF01AF0D2E08823EBE002F080318013E9A
:100DA800FF3EBF00BC1BF32E0130AE000310BA0D8E
:100DB800BB0DBC0DBD0DAE0BDA2EB71B3A140130BE
:100DC800AE000310B40DB50DB60DB70DAE0BE52E84
:100DD800FF30BE070318BF0AFF30BF07D62EB80181
:100DE800B71F0C2FFF303405AE00FF303505AF00BC
:100DF800FF303605B0007F303705B10031083004C8
:100E08002F042E0403193A180A2F0C2FB801B80A18
:100E1800380803193E2F0130BA0700300318013093
:100E2800BB07003003180130BC070030031801303D
:100E3800BD073D1C3E2F3A08AE003B08AF003C08FA
:100E4800B0003D08B1000130B200310DB10CB00C5A
:100E5800AF0CAE0CB20B292F3108BD003008BC0016
:100E68002F08BB002E08BA000130BE070318BF0ABE
:100E78000030BF073F08803AFF0080307F02031D23
:100E8800472FFF303E02031C542F7F308312031379
:100E9800BD008030BC000030BB000030BA00842F99
:100EA800831203133F08803AFF0080307F02031D3E
:100EB8005F2F01303E0203186D2F00308312031399
:100EC800BD000030BC000030BB000030BA00B301E8
:100ED800842F831203133E08AE002E08B900FF309A
:100EE800BA05FF30BB057F30BC050030BD05391899
:100EF800BC173908AE0003102E0CAF002F08BD0038
:100F08003308AE002E08BD043D08A9003C08A8001F
:100F18003B08A7003A08A600080003108312031331
:100F28005C0D5D0DDE005E08E4006408031DA52F5E
:100F38000030DD000030DC000030DB000030DA007B
:100F480008005A08DE005B08DF005C08E0005D0866
:100F5800E1001F300310E10CE00CDF0CDE0CFF3E5B
:100F6800031DAE2F5E08E2006208E300DC17FF30C5
:100F7800DA05FF30DB05FF30DC050030DD05963093
:100F8800E402E41FDC2F6408803A973E031C9C2F80
:100F980001300310DD0CDC0CDB0CDA0CFF3E031D0A
:100FA800CD2F0130DE005E08E4070319EF2FCC2FA8
:100FB8002030640203189C2F64080319EF2F0130B6
:100FC800DE000310DA0DDB0DDC0DDD0DDE0BE52F89
:100FD8000130E402E02F630803190800DA09DB098D
:100FE800DC09DD09DA0A0319DB0A0319DC0A03192B
:040FF800DD0A080006
:101000000030720583120313A00000307305A100A5
:1010100080307405A2007F307505A30023082204E8
:1010200021042004031D1C280030F5000030F400CA
:101030000030F3000030F20000307605A0000030F0
:101040007705A10080307805A2007F307905A300E4
:101050002308220421042004031D36280030F9004F
:101060000030F8000030F7000030F600F51F5C2873
:101070000030A0000030A1000030A2008030A300AA
:101080007208A0027308031C730F47284828A102A6
:101090007408031C740F4D284E28A2027508031C07
:1010A000750F53285428A3022308F5002208F400E2
:1010B0002108F3002008F200F91F82280030A00068
:1010C0000030A1000030A2008030A3007608A0020A
:1010D0007708031C770F6D286E28A1027808031C7F
:1010E000780F73287428A2027908031C790F7928D5
:1010F0007A28A3022308F9002208F8002108F70043
:101100002008F6008030F5068030F906790875026F
:10111000031D080078087402031D08007708730295
:10112000031D080076087202080083120313A00052
:101130002008031DF51FAC287209A2007309A30043
:101140007409A4007509A500A20A0319A30A0319CA
:10115000A40A0319A50AB4287508A5007408A400F8
:101160007308A3007208A200750874047304720463
:10117000031DC3280030F5000030F4000030F300F8
:101180000030F20008009630F6007608A100FE302C
:1011900025050319F4280130F6007608A10701306F
:1011A0000310A50CA40CA30CA20CFF3E031DD02819
:1011B000C7280130F6007608A1070130A2070030E9
:1011C00003180130A307003003180130A4070030D2
:1011D00003180130A50701300310A50CA40CA30CC3
:1011E000A20CFF3E031DEC28FF302505031908293A
:1011F000D92802302102031C0A290130A102013042
:10120000F6000310A20DA30DA40DA50DF60B0129E8
:10121000A41FF92821181429FF30A205FF30A305C7
:101220007F30A405FF30A5050310A10C2108F600AE
:10123000F701F801F90118300310F60DF70DF80D5C
:10124000F90DFF3E031D1C297608A2047708A304AC
:101250007808A4047908A5042008031DF51F312986
:10126000A5172508F5002408F4002308F300220838
:10127000F20008008312031347088039C8004808A9
:10128000D1004708C8004807C9004908D800C61B54
:101290005814580803195A29580A031D57290030B1
:1012A000C7000030C6000030C5000030C400C617BB
:1012B000C70162290030C7000030C6000030C500F9
:1012C0000030C40043088039C8004808D1064308EC
:1012D000C8004807C9004908D900C21B5914590859
:1012E00003198029590A031D7D290030C3000030ED
:1012F000C2000030C1000030C000C217C3018829FD
:101300000030C3000030C2000030C1000030C00017
:101310004308420441044004031DA7290030C700CC
:101320000030C6000030C5000030C4008030C60464
:101330007F30C7045108C8004808C7044708C300E5
:101340004608C2004508C1004408C000080058080B
:10135000031DB3290030C3000030C2000030C100BB
:101360000030C00008005808C800C9014908CB0077
:1013700059084802CA00031CCB034A087F3ED2002A
:101380004B080318013E003ED3004708D000460832
:10139000CF004508CE004408CD000030C700003023
:1013A000C6000030C5000030C4000030D700003057
:1013B000D6000030D5000030D400D9011A305902CF
:1013C0000318262A59080319022A0130C8000310FD
:1013D000CD0DCE0DCF0DD00DC80BE7290130C800C3
:1013E0000310C40DC50DC60DC70DC80BF029D71BC2
:1013F00044140130C8000310D40DD50DD60DD70DFF
:10140000C80BFB2943085002031D102A42084F0253
:10141000031D102A41084E02031D102A40084D02E8
:10142000031C212A57174008CD024108031C410F15
:10143000CE024208031C420FCF024308031C430F95
:10144000D0020130C8004808D907DE2950084F04EF
:101450004E044D04031D5414C61B492A0130C80014
:101460000310C40DC50DC60DC70DC80B302AD71B00
:1014700044140130C8000310D40DD50DD60DD70D7E
:10148000C80B3B2AFF30D2070318D30AFF30D3071B
:101490002C2AD901D71F622AFF305405C800FF301B
:1014A0005505C900FF305605CA007F305705CB00EF
:1014B0004B084A044904480403194418602A622A64
:1014C000D901D90A59080319942A0130C4070030F8
:1014D00003180130C507003003180130C60700307B
:1014E00003180130C707471C942A4408C800450860
:1014F000C9004608CA004708CB000130CC004B0D9C
:10150000CB0CCA0CC90CC80CCC0B7F2A4B08C700EB
:101510004A08C6004908C5004808C4000130D2077F
:101520000318D30A0030D3075308803AFF008030F5
:101530007F02031D9D2AFF305202031CAD2AFF309B
:1015400083120313D2000030D3000030C7000030F4
:10155000C6000030C5000030C400831203135308D6
:10156000803AFF0080307F02031DB82A013052020A
:101570000318C72A83120313D201D3010030C70016
:101580000030C6000030C5000030C400D101831215
:1015900003135208C8004808D800581CD12AC6179F
:1015A000D52A7F30C8004808C6055808C80003106F
:1015B000480CC9004908C7009A29831203135D0823
:1015C0008039E2006208EA005D08E2006207E30099
:1015D0006308EC00DC1B6C146C080319FD2A6C0A10
:1015E000031DFA2A0030DD000030DC000030DB0093
:1015F0000030DA00DC17DD01052B0030DD000030A3
:10160000DC000030DB000030DA0061088039E200E5
:101610006208EB006B086A06031D6A176108E200A6
:101620006207E3006308EB00E01B6B146B0803190F
:10163000272B6B0A031D242B0030E1000030E00053
:101640000030DF000030DE00E017E1012F2B00301A
:10165000E1000030E0000030DF000030DE006C0808
:101660006B020318752B6A1F392B8030E200620869
:10167000EA066C08E2006208ED006B08E20062080E
:10168000EC006D08E2006208EB005A08E200620814
:10169000ED005E08E2006208DA006D08E200620810
:1016A000DE005B08E2006208ED005F08E20062080D
:1016B000DB006D08E2006208DF005C08E2006208FF
:1016C000ED006008E2006208DC006D08E2006208DC
:1016D000E0005D08E2006208ED006108E2006208D7
:1016E000DD006D08E2006208E100ED016B08E20038
:1016F000E3016308E5006C086202E400031CE503F3
:101700006508803AFF0080307F02031D892B1A3064
:101710006402031CC22B831203135D085C045B0488
:101720005A040319952B0130962B0030E200620811
:10173000ED000030DD000030DC000030DB00003068
:10174000DA006B08E2006208EC00C82B6D1CB12BBC
:101750006D08E2000310620C0138E3006308ED003D
:10176000B32B0310ED0C5A18ED170130E2005D0D9C
:10177000DD0CDC0CDB0CDA0CE20BB72B0130E200E9
:101780006208EC07831203136B086C02031CA62B80
:101790006A1B092C6C08031DD62B0030DD000030BD
:1017A000DC000030DB000030DA0008005E08DA07F9
:1017B0005F0803110318013E031DDB0760080311D6
:1017C0000318013E031DDC07610803110318013EE5
:1017D000031DDD075D1CAB2C6D1CF72B6D08E200B3
:1017E0000310620C0138E3006308ED00F92B0310CD
:1017F000ED0C5A18ED170130E2005D0DDD0CDC0C2C
:10180000DB0CDA0CE20BFD2B0130E2006208EC0786
:10181000AB2C5D08803AFF006108803A7F02031D0F
:101820001B2C60085C02031D1B2C5F085B02031D60
:101830001B2C5E085A020318732CFF30E200FF30A5
:10184000E300FF30E400FF30E5005E08E6005F08DB
:10185000E7006008E8006108E9005A08E6025B0852
:10186000031C5B0F342C352CE7025C08031C5C0F57
:101870003A2C3B2CE8025D08031C5D0F402C412CE8
:10188000E9026608E20767080318670F482C492C2D
:10189000E30768080318680F4E2C4F2CE40769080B
:1018A0000318690AE5076508DD006408DC006308C1
:1018B000DB006208DA008030E2006208EA06ED0927
:1018C000ED0A6D08031D812C0130DA070030031882
:1018D0000130DB07003003180130DC07003003184B
:1018E0000130DD07812C5E08DA025F08031C5F0F00
:1018F000DB026008031C600FDC026108031C610F3F
:10190000DD025D085C045B045A04031DA92C6D080C
:10191000031DA92C0030DD000030DC000030DB00AE
:101920000030DA0008000130E2000310DA0DDB0DB0
:10193000DC0DDD0DE20B952CED1B5A146D1CA22C59
:101940000314A32C0310ED0D6C080319A92C01300E
:10195000EC02DC1F932CEB01ED1FB62C6D087F39D8
:1019600003195A18B42CB62CEB01EB0A6B080319B7
:10197000E92C0130DA07003003180130DB070030B2
:1019800003180130DC07003003180130DD075D1C4F
:10199000E92C5A08E2005B08E3005C08E4005D08FB
:1019A000E5000130E600650DE50CE40CE30CE20C0B
:1019B000E60BD32C6508DD006408DC006308DB005F
:1019C0006208DA006C0A0319E92C0130E2006208AF
:1019D000EC076C0A031D6C08031DF92C0030DD00B8
:1019E0000030DC000030DB000030DA006C08031946
:1019F000EA016C1CFD2CDC17012D7F30E20062082F
:101A0000DC056C08E2000310620CE3006308DD00F3
:101A1000EA1F0800DD1708003C3083160313D900C5
:101A20002330D800D730D7000A30D6004130D50057
:101A30008530D4000030D3000030D2003E30D100D9
:101A40008030D0000030CF000030CE000030CD001C
:101A50000030CC000030CB000030CA0000308316CC
:101A60000317A3000030A2000030A1000030A00046
:101A7000230883160313DD00831603172208831639
:101A80000313DC0083160317210883160313DB00FE
:101A900083160317200883160313DA005D08E1009C
:101AA0005C08E0005B08DF005A08DE0000308316A7
:101AB0000317970000309600003095000030940026
:101AC00017089B0016089A0015089900140898003A
:101AD0001B089F001A089E0019089D0018089C000A
:101AE00000309300003092000030910000309000F0
:101AF000130883160313C9008316031712088316ED
:101B00000313C80083160317110883160313C700B5
:101B100083160317100883160313C6008801FF30CD
:101B2000F2000030F3000A168A11CE250A128A1537
:101B3000003083120313E500E6000A168A1195258A
:101B40000A128A150A168A119C250A128A150A1683
:101B50008A11AB250A128A150A168A11A4270A12BD
:101B60008A1501300A168A1118260A128A15F601FA
:101B7000F60A02300A168A1154270A128A150B3007
:101B80000A168A1118260A128A1583120313881757
:101B9000831203131C0883160313C3008312031359
:101BA0001B0883160313C2004208F2004308F30027
:101BB000F401F50100300A128A1595200A128A15DF
:101BC000750883120313AD007408AC007308AB00F2
:101BD0007208AA003E30A9004C30A800CC30A70003
:101BE000CD30A6000A128A117C240A128A158312AB
:101BF0000313290883160313BB0083120313280859
:101C000083160313BA0083120313270883160313E2
:101C1000B90083120313260883160313B8003B0888
:101C200083120313AD00831603133A0883120313C0
:101C3000AC0083160313390883120313AB00831619
:101C40000313380883120313AA004130A90000309F
:101C5000A8000030A7000030A6000A128A117C24D8
:101C60000A128A1583120313290883160313BF006F
:101C700083120313280883160313BE008312031371
:101C8000270883160313BD00831203132608831647
:101C90000313BC004C3083120313C7006430C6002A
:101CA000E130C500C030C400831603133F0883121F
:101CB0000313AD00831603133E0883120313AC0015
:101CC000831603133D0883120313AB00831603131B
:101CD0003C0883120313AA004130A900C030A800B9
:101CE0000030A7000030A6000A128A117C240A12D4
:101CF0008A15831203132908C3002808C200270885
:101D0000C1002608C0000A128A153A210A128A1553
:101D1000831203134308DD004208DC004108DB00A6
:101D20004008DA000A128A1191270A128A158312D2
:101D300003135B0883160313C500831203135A08A9
:101D400083160313C4000A3083120313EE006E08D7
:101D5000F60001300A168A1154270A128A1510302B
:101D6000F8002730F900831603134308FB004208EC
:101D7000FA000A168A11C8260A128A157808303E17
:101D80000A168A118F260A128A15E830F8000330E5
:101D9000F900831603134308F5004208F4001030DD
:101DA000F2002730F3000A168A115D260A128A15FE
:101DB0007308FB007208FA000A168A11C8260A1274
:101DC0008A157808303E0A168A118F260A128A155B
:101DD0006430F8000030F900831603134308F5005F
:101DE0004208F400E830F2000330F3000A168A11CA
:101DF0005D260A128A157308FB007208FA000A169B
:101E00008A11C8260A128A157808303E0A168A11E5
:101E10008F260A128A150A30F8000030F90083165E
:101E200003134308F5004208F4006430F200003068
:101E3000F3000A168A115D260A128A157308FB0040
:101E40007208FA000A168A11C8260A128A1578083A
:101E5000303E0A168A118F260A128A150A30F200BD
:101E60000030F300831603134308F5004208F40022
:101E70000A168A115D260A128A157208303E0A1661
:101E80008A118F260A128A15093083120313EE0075
:101E90006E08F60002300A168A1154270A128A15B3
:101EA0001030F8002730F900831603134508FB00B3
:101EB0004408FA000A168A11C8260A128A157808F8
:101EC000303E0A168A118F260A128A15E830F80069
:101ED0000330F900831603134508F5004408F400A5
:101EE0001030F2002730F3000A168A115D260A121C
:101EF0008A157308FB007208FA000A168A11C826B0
:101F00000A128A157808303E0A168A118F260A129C
:101F10008A156430F8000030F90083160313450871
:101F2000F5004408F400E830F2000330F3000A162C
:101F30008A115D260A128A157308FB007208FA00DE
:101F40000A168A11C8260A128A157808303E0A161F
:101F50008A118F260A128A150A30F8000030F9001B
:101F6000831603134508F5004408F4006430F200BA
:101F70000030F3000A168A115D260A128A157308CA
:101F8000FB007208FA000A168A11C8260A128A157E
:101F90007808303E0A168A118F260A128A150A30EE
:101FA000F2000030F300831603134508F5004408DF
:101FB000F4000A168A115D260A128A157208303E4C
:101FC0000A168A118F260A128A15831603134508EA
:101FD000A9004408A8006430AA000030AB000A122F
:101FE0008A1121200A128A15413083120313EF004F
:101FF000ED30EE00EE0BFA2FEF0BFA2FFF2FC82D6E
:1020000010308A000408840A820700344734693497
:10201000613420347434723469343A3420340034F6
:1020200054346F346334203464346F343A3420349D
:0220300000347A
:102B2A00831203139716171265089500080083127B
:102B3A0003138E018F01901610168B170B1783162D
:102B4A0003130C10831203131014080083160313C3
:102B5A008714831203139B019C01831603130D141C
:102B6A00831203139D111D159D101D140800831651
:102B7A0003130D1CC72D831203130D1CC72D8E01C1
:102B8A008F010D1071088A00700E8300FE0E7E0EF2
:102B9A000900720883160313920083120313971510
:102BAA0017158316031307118312031391011213C6
:102BBA009212121292119214121012150800F200B7
:102BCA00721CEB2D831203130815EE2D83120313C7
:102BDA000811F21CF22D8815F32D8811721DF72D9C
:102BEA000816F82D0812F21DFC2D88160800881206
:102BFA000800F50083120313081075080A168A11D3
:102C0A00E4250A168A118312031388141A30F40071
:102C1A00F830F300F30B0F2EF40B0F2E0000831283
:102C2A00031388100800F900F701F80177087907FB
:102C3A0084000A168A1100200A168A11003A03191A
:102C4A0008007708790784000A168A1100200A16F4
:102C5A008A110A168A118F260A168A110130F70775
:102C6A000318F80A0030F8071B2EFA00F601F701DC
:102C7A007208F400F5017408F8007508F9007A1C66
:102C8A004C2E7808F6070318F70A7908F707013077
:102C9A000310F80DF90DFF3E031D4D2E0310FA0C1B
:102CAA007A08031D442E7708F3007608F20008001C
:102CBA007208730403198A2EF701F70AF31B712E9F
:102CCA0001300310F20DF30DFF3E031D662E013095
:102CDA00F6007608F707632E73087502031D772E30
:102CEA0072087402031C7F2E7208F4027308031C14
:102CFA00F503F50201300310F30CF20CFF3E031D3D
:102D0A00802E0130F702031D712E7508F300740836
:102D1A00F2000800F60076080F39F3007308F40091
:102D2A007608F039F3007308F500831203130814C8
:102D3A007508F30004300310F30CFF3E031DA02EA8
:102D4A0073080A168A11E4250A168A1183120313D4
:102D5A0088144230F300F30BB02E000083120313E1
:102D6A00881074080A168A11E4250A168A11831231
:102D7A00031388144230F300F30BC12E00008312B0
:102D8A0003138810080083120313A101A201780813
:102D9A0079040319012FA301A30AF91BE02E0130BC
:102DAA000310F80DF90DFF3E031DD52E0130A000CA
:102DBA002008A307D22E01300310A10DA20DFF3E59
:102DCA00031DE12E79087B02031DED2E78087A0295
:102DDA00031CF62E7808FA027908031CFB03FB028F
:102DEA00211401300310F90CF80CFF3E031DF72ED5
:102DFA000130A302031DE02E2208F9002108F80081
:102E0A000800803083160313A306270883120313CE
:102E1A00DD0083160313260883120313DC008316CE
:102E2A000313250883120313DB00831603132408F4
:102E3A0083120313DA00831603132308831203137E
:102E4A00E10083160313220883120313E00083169A
:102E5A000313210883120313DF00831603132008C8
:102E6A0083120313DE000A128A15DD22831203136A
:102E7A005D0883160313A300831203135C088316E9
:102E8A000313A200831203135B0883160313A10022
:102E9A00831203135A0883160313A000080083122F
:102EAA000313A0002003031D7D2F76087F3EF70041
:102EBA007708A3002308F70004300310F70CFF3E3D
:102ECA00031D622F7708F8007808A10023080F393C
:102EDA00F7007708A20021080A168A11FE250A16A9
:102EEA008A118312031322080A168A11FE25080082
:102EFA0002302006031D08007608BF3EF700770857
:102F0A00A3002308F70004300310F70CFF3E031D4B
:102F1A00892F7708F8007808A10023080F39F700ED
:102F2A007708A20021080A168A11FE250A168A11B4
:102F3A008312031322080A168A11FE25080000309C
:102F4A000A168A11E4250A168A118230F700DD3042
:102F5A00F600F60BAE2FF70BAE2FB32F03300A167F
:102F6A008A11FE250A168A112130F7007630F600FA
:102F7A00F60BBD2FF70BBD2F000003300A168A117E
:102F8A00FE250A168A114830F7006C30F600F60B57
:102F9A00CC2FF70BCC2F000003300A168A11FE251E
:102FAA000A168A1102300A168A11FE250A168A1191
:102FBA0002300A168A11FE250A168A1108300A16E4
:102FCA008A11FE250A168A1100300A168A11FE2570
:102FDA000A168A110C300A168A11FE250A168A1157
:102FEA0000300A168A11FE250A168A1106300A16B8
:062FFA008A11FE2508000B
:02400E003A3F37
:00000001FF
