:020000040000FA
:060000000A128A1110280B
:10000800FE00030E83120313AC000408AD000A08B7
:10001800AE000A128A11122A0A128A111328F7014D
:1000280083120313D001D101D201D301D401D50128
:10003800D601D701D801D901DA01DB0183010A12FF
:100048008A11222C053083120313C1004108B30022
:1000580001300A128A11D2230A128A11E830831257
:100068000313B5000330B6003E08B8003D08B700DA
:100078000A128A1169240A128A1183120313350895
:10008800303E0A128A11A7240A128A116430831298
:100098000313B5000030B6003E08B2003D08B100B9
:1000A800E830AF000330B0000A128A11E4240A12C3
:1000B8008A11831203133008B8002F08B7000A12F8
:1000C8008A1169240A128A11831203133508303EF3
:1000D8000A128A11A7240A128A110A3083120313FA
:1000E800B5000030B6003E08B2003D08B1006430EB
:1000F800AF000030B0000A128A11E4240A128A11F3
:10010800831203133008B8002F08B7000A128A11A7
:1001180069240A128A11831203133508303E0A1221
:100128008A11A7240A128A110A3083120313AF0016
:100138000030B0003E08B2003D08B1000A128A1132
:10014800E4240A128A11831203132F08303E0A127C
:100158008A11A7240A128A11053083120313C100D9
:100168004108B30002300A128A11D2230A128A11F6
:10017800E83083120313B5000330B6004008B80016
:100188003F08B7000A128A1169240A128A118312D9
:1001980003133508303E0A128A11A7240A128A115D
:1001A800643083120313B5000030B6004008B20073
:1001B8003F08B100E830AF000330B0000A128A11DE
:1001C800E4240A128A11831203133008B8002F0896
:1001D800B7000A128A1169240A128A1183120313BA
:1001E8003508303E0A128A11A7240A128A110A30E9
:1001F80083120313B5000030B6004008B2003F0870
:10020800B1006430AF000030B0000A128A11E42453
:100218000A128A11831203133008B8002F08B70096
:100228000A128A1169240A128A11831203133508E3
:10023800303E0A128A11A7240A128A110A30831240
:100248000313AF000030B0004008B2003F08B1000F
:100258000A128A11E4240A128A11831203132F083E
:10026800303E0A128A11A7240800831203133E089D
:10027800C2003F08C3004008C4004108C50006305A
:100288000310C20DC30DC40DC50DFF3E031D442947
:100298004508B2004408B1004308B0004208AF0066
:1002A8003E08C6003F08C7004008C8004108C9000A
:1002B80006300310C60DC70DC80DC90DFF3E031D3E
:1002C8005D290030CA002D30CB003130CC00013020
:1002D800CD004608CA024708031C470F7429752930
:1002E800CB024808031C480F7A297B29CC0249080D
:1002F800031C490F80298129CD024D08B6004C08FE
:10030800B5004B08B4004A08B3000A128A11E22269
:100318000A128A11831203133008CF002F08CE0067
:1003280001304F02003003194E02031CF7293E0822
:10033800C2003F08C3004008C4004108C50004309B
:100348000310C20DC30DC40DC50DFF3E031DA42926
:100358004508B2004408B1004308B0004208AF00A5
:100368003E08C6003F08C7004008C8004108C90049
:1003780004300310C60DC70DC80DC90DFF3E031D7F
:10038800BD290030CA002D30CB003130CC000130FF
:10039800CD004608CA024708031C470FD429D529AF
:1003A800CB024808031C480FDA29DB29CC0249088C
:1003B800031C490FE029E129CD024D08B6004C087D
:1003C800B5004B08B4004A08B3000A128A11E222A9
:1003D8000A128A11831203133008CF002F08CE00A7
:1003E800831603131815013083124F0200300319C6
:1003F8004E02031808004E088316031399001812BA
:10040800831203139817831603138717071383128E
:10041800031318168316031398160800831603137C
:100428008C1ED82A831203138C1ED82A0A128A110A
:10043800C3250A128A1183120313A0002008F700AB
:100448003A307706031D322A0830F0000030F100F8
:1004580054300A128A115F250A128A118312031373
:100468005408A000A1012008F0002108F100E8309C
:10047800F2000330F3000A128A113E250A128A118B
:10048800700883120313A2007108A3005508A40082
:10049800A5012408F0002508F1006430F2000030BE
:1004A800F3000A128A113E250A128A117008831273
:1004B80003132207A60071080318710A2307A7006F
:1004C8005608A800A9012808F0002908F1000A30F8
:1004D800F2000030F3000A128A113E250A128A112E
:1004E8007008831203132607AA0071080318710AFB
:1004F8002707AB0057082A07D2000030031801303D
:100508002B07D3005808A000A1012008F0002108FB
:10051800F100E830F2000330F3000A128A113E2598
:100528000A128A11700883120313A2007108A3002B
:100538005908A400A5012408F0002508F10064303A
:10054800F2000030F3000A128A113E250A128A11BD
:100558007008831203132207A60071080318710A92
:100568002307A7005A08A800A9012808F0002908AD
:10057800F1000A30F2000030F3000A128A113E2519
:100588000A128A117008831203132607AA00710839
:100598000318710A2707AB005B082A07D000003050
:1005A800031801302B07D10083122E088A002D086A
:1005B80084002C0E8300FE0E7E0E090083120313A6
:1005C800B901B21FF42AAF09B009B109B209AF0ADB
:1005D8000319B00A0319B10A0319B20AB901B90A11
:1005E800B61F052BB309B409B509B609B30A03192F
:1005F800B40A0319B50A0319B60A0130B700370857
:10060800B9060030BD000030BC000030BB0000302F
:10061800BA003208310430042F0403195A2BB801E8
:10062800B80AB21B252B0130B7000310AF0DB00D6F
:10063800B10DB20DB70B192B0130B7003708B80749
:10064800152B0130B7000310BA0DBB0DBC0DBD0D45
:10065800B70B272B32083602031D3C2B3108350215
:10066800031D3C2B30083402031D3C2B2F0833029A
:10067800031C4D2B2F08B3023008031C300FB402A3
:100688003108031C310FB5023208031C320FB602C1
:100698003A1401300310B20CB10CB00CAF0CFF3E91
:1006A800031D4E2B0130B802031D252B39080319F1
:1006B800682BBA09BB09BC09BD09BA0A0319BB0AE8
:1006C8000319BC0A0319BD0A3D08B2003C08B10071
:1006D8003B08B0003A08AF00080000300A128A113F
:1006E8009B250A128A11823083120313B400DD306D
:1006F800B300B30B7D2BB40B7D2B03300A128A1188
:100708007F250A128A11213083120313B400753031
:10071800B300B30B8D2BB40B8D2B922B03300A1225
:100728008A117F250A128A11483083120313B400F4
:100738006B30B300B30B9E2BB40B9E2BA32B033053
:100748000A128A117F250A128A1102300A128A11A6
:100758007F250A128A1102300A128A117F250A128D
:100768008A1108300A128A117F250A128A1100306C
:100778000A128A117F250A128A110C300A128A116C
:100788007F250A128A1100300A128A117F250A125F
:100798008A1106300A128A117F2508008312031372
:1007A800B6003603031DFB2B33087F3EB400340824
:1007B800B9003908B40004300310B40CFF3E031D1F
:1007C800E02B3408B5003508B70039080F39B400F4
:1007D8003408B80037080A128A117F250A128A11CC
:1007E8008312031338080A128A117F250800023081
:1007F8003606031D08003308BF3EB4003408B900AC
:100808003908B40004300310B40CFF3E031D072C54
:100818003408B5003508B70039080F39B400340872
:10082800B80037080A128A117F250A128A11831222
:10083800031338080A128A117F2508008316031348
:100848008601AA30831203138600831603138801D6
:100858008B170B178C16003083120313C10000305E
:10086800C0002530BF008030BE000A128A1139212D
:100878000A128A110A128A1171230A128A11013086
:100888000A128A1118250A128A1183120313B30156
:10089800B30A02300A128A11D2230A128A110630C8
:1008A8000A128A1118250A128A118312031353088F
:1008B800BE005208BD005108C0005008BF000A120F
:1008C8008A1126200A128A11592C83120313BA019D
:1008D800BB01350836040319A22CBC01BC0AB61B9F
:1008E800812C01300310B50DB60DFF3E031D762C8B
:1008F8000130B9003908BC07732C01300310BA0D58
:10090800BB0DFF3E031D822C36083802031D8E2CBA
:1009180035083702031C972C3508B7023608031C24
:10092800B803B8023A1401300310B60CB50CFF3EF8
:10093800031D982C0130BC02031D812C3B08B60016
:100948003A08B500080083120313B30033080F39BF
:10095800B0003008B1003308F039B0003008B200F8
:1009680008143208B00004300310B00CFF3E031D19
:10097800B82C30080A128A119B250A128A11831290
:1009880003138814413083120313B000B00BCA2C30
:10099800CD2C83120313881031080A128A119B2563
:1009A8000A128A1183120313881441308312031325
:1009B800B000B00BDD2CE02C831203138810080064
:1009C800831203132F0830040319132DB401B40A3A
:1009D800B01BFA2C01300310AF0DB00DFF3E031D04
:1009E800EF2C0130B3003308B407EC2C3008320286
:1009F800031D002D2F083102031C082D2F08B102FA
:100A08003008031CB203B20201300310B00CAF0C63
:100A1800FF3E031D092D0130B402031DFA2C3208D4
:100A2800B0003108AF00080083120313B600B40108
:100A3800B5013408360784000A128A11B3250A1250
:100A48008A11003A031908003408360784000A128C
:100A58008A11B3250A128A110A128A11A7240A12C6
:100A68008A11013083120313B4070318B50A003042
:100A7800B5071D2DF401F501701C482D7208F40707
:100A88000318F50A7308F50701300310F20DF30D8A
:100A9800FF3E031D492D01300310F10CF00CFF3E01
:100AA800031D502D70087104031D402D7508F100B9
:100AB8007408F0000800F400F501F60171087602E8
:100AC800031D682D70087502031808000A128A11A0
:100AD800C3250A128A11F20075087407F300730817
:100AE80084007208831380000130F5070318F60AA2
:100AF8000030F607622D83120313B2000810320883
:100B08000A128A119B250A128A1183120313881468
:100B18001A3083120313B100F730B000B00B922DD6
:100B2800B10B922D972D831203138810080083129E
:100B38000313AF002F1CA22D0815A32D0811AF1CFD
:100B4800A72D8815A82D88112F1DAC2D0816AD2DA1
:100B58000812AF1DB12D881608008812080005304C
:100B68008A000408840A82070034783420343D342B
:100B780020340034793420343D3420340034831256
:0A0B880003138C1EC32D1A08080089
:02400E003A3F37
:00000001FF
