:020000040000FA
:100000000A128A11F02FFF1B0D2883137F18831704
:100010000008840A0319FF0A080000308A00040857
:10002000840A820700344C344F345634453420342B
:1000300059344F345534203428345E345F345E34C0
:100040002934003448346F346D3420346E346134D4
:10005000793420346C3461343A34203400344234FE
:1000600041344E34203453344F344E3420344434ED
:0600700055345934003440
:1009B40000300A128A1110250A128A1101300A1213
:1009C4008A11102508007E088A007F088200E52429
:1009D4000A128A118000840A04087D06031900346F
:1009E400FF0A0319FE0AE92CF000701CFD2C831287
:1009F40003130815002D831203130811F01C042D92
:100A04008815052D8811701D092D08160A2D081248
:100A1400F01D0E2D8816080088120800F3008312BA
:100A24000313081073080A128A11F6240A128A1191
:100A34008312031388141A30F200F830F100F10B1A
:100A4400212DF20B212D00008312031388100800BE
:100A5400F40074080F39F1007108F2007408F039D9
:100A6400F1007108F3008312031308147308F100F2
:100A740004300310F10CFF3E031D3B2D71080A12D4
:100A84008A11F6240A128A1183120313881442303D
:100A9400F100F10B4B2D0000831203138810720830
:100AA4000A128A11F6240A128A1183120313881473
:100AB4004230F100F10B5C2D000083120313881007
:100AC40008005434683475342034333420342034EA
:100AD40039342F3434342F343234303431343934DB
:100AE40048346F346D3420346E34613479342034B6
:100AF4006C3461344E3445344B344F345F344334B6
:100B0400483441344E344834613470347034793468
:100B14002034623469347234743468346434613433
:100B2400793420346B346F346E346E346934633406
:100B340068346934773461342034FA01FB017A086B
:100B44007507F8007608F7000318F70AFA1BF7038D
:100B54007708F900790883120313FF0078088400EA
:100B64000A128A1103200A128A11003A0319080092
:100B74007A087507F8007608F7000318F70AFA1BD5
:100B8400F7037708F900790883120313FF00780844
:100B940084000A128A1103200A128A110A128A1185
:100BA4002A250A128A110130FA070318FB0A0030B9
:100BB400FB07A12DF7007703031D012E74087F3E68
:100BC400F5007508FA007A08F50004300310F50CF6
:100BD400FF3E031DE82D7508F6007608F8007A0834
:100BE4000F39F5007508F90078080A128A111025E2
:100BF4000A128A1179080A128A1110250800023093
:100C04007706031D08007408BF3EF5007508FA0056
:100C14007A08F50004300310F50CFF3E031D0D2E79
:100C24007508F6007608F8007A080F39F50075089B
:100C3400F90078080A128A1110250A128A11790813
:100C44000A128A111025080000300A128A11F624AB
:100C54000A128A118230F500DD30F400F40B302ED4
:100C6400F50B302E352E03300A128A1110250A1284
:100C74008A112130F5007630F400F40B3F2EF50B89
:100C84003F2E000003300A128A1110250A128A111D
:100C94004830F5006C30F400F40B4E2EF50B4E2E5C
:100CA400000003300A128A1110250A128A11023038
:100CB4000A128A1110250A128A1102300A128A11A4
:100CC40010250A128A1108300A128A1110250A12F4
:100CD4008A1100300A128A1110250A128A110C3066
:100CE4000A128A1110250A128A1100300A128A1176
:100CF40010250A128A1106300A128A1110250800DA
:100D04008316031388010A128A1126260A128A11ED
:100D1400043083120313DC005C08F40001300A126F
:100D24008A11DC250A128A11FC017C08393E8400F0
:100D3400831300080A128A112A250A128A11033021
:100D440083120313DE008A30DD005530DC00DC0B37
:100D5400A92EDD0BA92EDE0BA92E0130831203135D
:100D6400DC005C08FC0709307C02031C972E113060
:100D7400DC005C08FC007C0883120313DC005C08C4
:100D8400F40002300A128A11DC250A128A1150304A
:100D9400F5000030F6000A128A119F250A128A1102
:100DA400033083120313DE008A30DD005530DC008B
:100DB400DC0BDA2EDD0BDA2EDE0BDA2E0130FC0230
:100DC40003307C020318BD2E273083120313DE0088
:100DD4000D30DD002530DC00DC0BEE2EDD0BEE2EBD
:100DE400DE0BEE2EF52E0A128A11DA240A128A116B
:100DF400F401F40A01300A128A11DC250A128A115C
:100E04001030F5008030F6000A128A119F250A126C
:100E14008A110D3083120313DE00AF30DD00B530CC
:100E2400DC00DC0B132FDD0B132FDE0B132F1A2F1B
:100E3400F401F40A02300A128A11DC250A128A111A
:100E4400FC017C08203E8400831300080A128A11E6
:100E54002A250A128A11033083120313DE008A3012
:100E6400DD005530DC00DC0B352FDD0B352FDE0BC0
:100E7400352F013083120313DC005C08FC070F30AC
:100E84007C02031C232F273083120313DE000D3052
:100E9400DD002530DC00DC0B4D2FDD0B4D2FDE0B90
:100EA4004D2F542F0A128A11DA240A128A110330A0
:100EB40083120313DC005C08F40001300A128A1167
:100EC400DC250A128A114230F5000030F6000A12BD
:100ED4008A119F250A128A110D3083120313DE0032
:100EE400AF30DD00B530DC00DC0B762FDD0B762F68
:100EF400DE0B762F7D2F033083120313DC005C0896
:100F0400F40002300A128A11DC250A128A111D30FB
:100F1400F5008030F6000A128A119F250A128A1100
:100F24001A3083120313DE005E30DD006D30DC0006
:100F3400DC0B9A2FDD0B9A2FDE0B9A2FA12F0A12AE
:100F44008A11DA240A128A11F401F40A01300A120D
:100F54008A11DC250A128A110130F5008030F6006E
:100F64000A128A119F250A128A110D308312031363
:100F7400DE00AF30DD00B530DC00DC0BBF2FDD0B55
:100F8400BF2FDE0BBF2FC62F033083120313DC00E9
:100F94005C08F40002300A128A11DC250A128A1154
:100FA4000130F5008030F6000A128A119F250A12DA
:100FB4008A11273083120313DE000D30DD00253043
:100FC400DC00DC0BE32FDD0BE32FDE0BE32FEA2F3A
:100FD4000A128A11DA240A128A118A2E83135C30C7
:100FE400FD000530FE006330FF00203084000A124B
:0C0FF4008A11E92483010A128A11822E5E
:02400E003A3F37
:00000001FF
