:020000040000FA
:060000000A128A11FC2F18
:100E0400F000831203130C1E032F0C1270089900B8
:100E14000800803083120313A6002530A7000A12AD
:100E24008A112A270A128A1141300A128A110227CA
:100E34000A128A111A30FD005E30FC006E30FB008D
:100E4400FB0B222FFC0B222FFD0B222F0000162F51
:100E54008B170B17831603138C160C16871707139F
:100E6400981318139816181218159810181083123E
:100E7400031398171813981218169811181198102C
:100E840018102708FA002608F900F90EFA0EF030B7
:100E9400FA0579080F39FA04F030F9057908103E9B
:100EA400F0007A080318013E003EF100F201F11B44
:100EB400F2037208F3000130F7003130F6002D30F0
:100EC400F5000030F4000A128A116D2770088316A9
:100ED40003139900080083120313A101F31F7F2F4A
:100EE400F009F109F209F309F00A0319F10A0319E7
:100EF400F20A0319F30AA101A10AF71F902FF409BA
:100F0400F509F609F709F40A0319F50A0319F60AAB
:100F14000319F70A0130F8007808A1060030A5008B
:100F24000030A4000030A3000030A2007308720453
:100F3400710470040319E52FA001A00AF31BB02F5C
:100F44000130F8000310F00DF10DF20DF30DF80B64
:100F5400A42F0130F8007808A007A02F0130F80072
:100F64000310A20DA30DA40DA50DF80BB22F730849
:100F74007702031DC72F72087602031DC72F71085D
:100F84007502031DC72F70087402031CD82F700844
:100F9400F4027108031C710FF5027208031C720F2E
:100FA400F6027308031C730FF702221401300310B6
:100FB400F30CF20CF10CF00CFF3E031DD92F0130A1
:100FC400A002031DB02F21080319F32FA209A309BE
:100FD400A409A509A20A0319A30A0319A40A031957
:100FE400A50A2508F3002408F2002308F1002208CA
:0C0FF400F000080083010A128A110B2F84
:02400E003A3F37
:00000001FF
