:020000040000FA
:060000000A128A1110280B
:10000800FE00030E83120313AC000408AD000A08B7
:10001800AE000A128A1139290A128A111328F70127
:1000280083120313C201C301C401C501C601C7017C
:10003800C801C901CA01CB01CC01CD0183010A1253
:100048008A11BB2A0B3083120313C1004108B30085
:1000580001300A128A116B220A128A11E8308312BF
:100068000313B5000330B6003E08B8003D08B700DA
:100078000A128A11F9220A128A1183120313350807
:10008800303E0A128A1137230A128A116430831209
:100098000313B5000030B6003E08B2003D08B100B9
:1000A800E830AF000330B0000A128A1174230A1234
:1000B8008A11831203133008B8002F08B7000A12F8
:1000C8008A11F9220A128A11831203133508303E65
:1000D8000A128A1137230A128A110A30831203136B
:1000E800B5000030B6003E08B2003D08B1006430EB
:1000F800AF000030B0000A128A1174230A128A1164
:10010800831203133008B8002F08B7000A128A11A7
:10011800F9220A128A11831203133508303E0A1293
:100128008A1137230A128A110A3083120313AF0087
:100138000030B0003E08B2003D08B1000A128A1132
:1001480074230A128A11831203132F08303E0A12ED
:100158008A1137230A128A110B3083120313C10044
:100168004108B30002300A128A116B220A128A115E
:10017800E83083120313B5000330B6004008B80016
:100188003F08B7000A128A11F9220A128A1183124B
:1001980003133508303E0A128A1137230A128A11CE
:1001A800643083120313B5000030B6004008B20073
:1001B8003F08B100E830AF000330B0000A128A11DE
:1001C80074230A128A11831203133008B8002F0807
:1001D800B7000A128A11F9220A128A11831203132C
:1001E8003508303E0A128A1137230A128A110A305A
:1001F80083120313B5000030B6004008B2003F0870
:10020800B1006430AF000030B0000A128A117423C4
:100218000A128A11831203133008B8002F08B70096
:100228000A128A11F9220A128A1183120313350855
:10023800303E0A128A1137230A128A110A308312B1
:100248000313AF000030B0004008B2003F08B1000F
:100258000A128A1174230A128A11831203132F08AF
:10026800303E0A128A1137230800831603138C1DA7
:10027800002A831203138C1D002A0A128A11702483
:100288000A128A1183120313A0002008F7003A30DB
:100298007706031DFF290830F0000030F1004630D2
:1002A8000A128A11EF230A128A11831203134608CD
:1002B800A000A1012008F0002108F100E830F200B8
:1002C8000330F3000A128A11CE230A128A11700829
:1002D80083120313A2007108A3004708A400A50114
:1002E8002408F0002508F1006430F2000030F30023
:1002F8000A128A11CE230A128A1170088312031374
:100308002207A60071080318710A2307A7004808E6
:10031800A800A9012808F0002908F1000A30F20015
:100328000030F3000A128A11CE230A128A117008CB
:10033800831203132607AA0071080318710A2707F6
:10034800AB0049082A07C4000030031801302B0706
:10035800C5004A08A000A1012008F0002108F1000A
:10036800E830F2000330F3000A128A11CE230A1291
:100378008A11700883120313A2007108A3004B08A6
:10038800A400A5012408F0002508F1006430F2005B
:100398000030F3000A128A11CE230A128A1170085B
:1003A800831203132207A60071080318710A230792
:1003B800A7004C08A800A9012808F0002908F100A6
:1003C8000A30F2000030F3000A128A11CE230A1212
:1003D8008A117008831203132607AA0071080318EC
:1003E800710A2707AB004D082A07C200003003181E
:1003F80001302B07C3008C1183122E088A002D08A8
:1004080084002C0E8300FE0E7E0E090000300A12B6
:100418008A1147240A128A11823083120313B40006
:10042800DD30B300B30B162AB40B162A03300A12B8
:100438008A112B240A128A11213083120313B40063
:100448007530B300B30B262AB40B262A2B2A0330A7
:100458000A128A112B240A128A11483083120313B4
:10046800B4006B30B300B30B372AB40B372A3C2ADD
:1004780003300A128A112B240A128A1102300A1236
:100488008A112B240A128A1102300A128A112B248B
:100498000A128A1108300A128A112B240A128A11A8
:1004A80000300A128A112B240A128A110C300A12FF
:1004B8008A112B240A128A1100300A128A112B245D
:1004C8000A128A1106300A128A112B240800831294
:1004D8000313B6003603031D942A33087F3EB40085
:1004E8003408B9003908B40004300310B40CFF3ED6
:1004F800031D792A3408B5003508B70039080F39C3
:10050800B4003408B80037080A128A112B240A12DA
:100518008A118312031338080A128A112B2408003F
:1005280002303606031D08003308BF3EB400340805
:10053800B9003908B40004300310B40CFF3E031DA1
:10054800A02A3408B5003508B70039080F39B400B7
:100558003408B80037080A128A112B240A128A11A3
:100568008312031338080A128A112B2408008316F1
:100578000313860183120313AF01B001B1012430C4
:100588000A128A110F240A128A110A128A110A22DF
:100598000A128A118B170B17831603138C15013057
:1005A8000A128A11A8230A128A1183120313B301AB
:1005B800B30A02300A128A116B220A128A11013018
:1005C8000A128A11A8230A128A11831203134508F2
:1005D800BE004408BD004308C0004208BF000A121C
:1005E8008A1126200A128A11E92A83120313BA01F2
:1005F800BB01350836040319322BBC01BC0AB61BF3
:10060800112B01300310B50DB60DFF3E031D062B4F
:100618000130B9003908BC07032B01300310BA0DAB
:10062800BB0DFF3E031D122B36083802031D1E2B7F
:1006380035083702031C272B3508B7023608031C78
:10064800B803B8023A1401300310B60CB50CFF3EDB
:10065800031D282B0130BC02031D112B3B08B600DB
:100668003A08B500080083120313B30033080F39A2
:10067800B0003008B1003308F039B0003008B200DB
:1006880006143208B00004300310B00CFF3E031DFE
:10069800482B30080A128A1147240A128A11831239
:1006A80003138614413083120313B000B00B5A2B86
:1006B8005D2B83120313861031080A128A1147240E
:1006C8000A128A118312031386144130831203130A
:1006D800B000B00B6D2B702B83120313861008002B
:1006E800831203132F0830040319A32BB401B40A8F
:1006F800B01B8A2B01300310AF0DB00DFF3E031D58
:100708007F2B0130B3003308B4077C2B300832024A
:10071800031D902B2F083102031C982B2F08B102C0
:100728003008031CB203B20201300310B00CAF0C46
:10073800FF3E031D992B0130B402031D8A2B32089A
:10074800B0003108AF00080083120313B600B401EB
:10075800B5013408360784000A128A115F240A1288
:100768008A11003A031908003408360784000A126F
:100778008A115F240A128A110A128A1137230A126F
:100788008A11013083120313B4070318B50A003025
:10079800B507AD2BF401F501701CD82B7208F407CE
:1007A8000318F50A7308F50701300310F20DF30D6D
:1007B800FF3E031DD92B01300310F10CF00CFF3E56
:1007C800031DE02B70087104031DD02B7508F10080
:1007D8007408F0000800F400F501F60171087602CB
:1007E800031DF82B70087502031808000A128A11F5
:1007F80070240A128A11F20075087407F30073084E
:1008080084007208831380000130F5070318F60A84
:100818000030F607F22B83120313B200831603137A
:10082800871283120313321D1F2C310883160313FA
:1008380094008715252C2F08310483160313940080
:1008480087118312031332083004940008008312BE
:100858000313B200061032080A128A1147240A123A
:100868008A118312031386141A3083120313B100FA
:10087800F730B000B00B3E2CB10B3E2C432C83124A
:1008880003138610080083120313AF002F1C4E2C8D
:1008980006154F2C0611AF1C532C8615542C8611A7
:1008A8002F1D582C0616592C0612AF1D5D2C8616C6
:1008B80008008612080004308A000408840A8207A7
:1008C800003478345F34763461346C34753465348C
:1008D80020343D34203400340A128A1177248312DC
:1008E8000313130808008316031314180800772C41
:02400E003A3F37
:00000001FF
