:020000040000FA
:060000000A128A110C280F
:10000800FE00030EF0000A08F1000A128A111328F4
:100018000A128A110F2883010A128A1129288316C5
:1000280003130C1C2228831203130C1C2228803073
:100038008706FD308F008F308E000C1071088A0003
:10004800700E8300FE0E7E0E09000A128A113E20F1
:100058000A128A1183160313871383120313871353
:100068004130F300EE30F200F20B3828F30B382859
:1000780000003428FD30831203138F008F308E0068
:10008800901610169011101190108B170B178316DD
:0C00980003130C1483120313101408004F
:02400E003A3F37
:00000001FF
