:020000040000FA
:060000000A128A1110280B
:10000800FE00030E83120313D6000408D7000A0863
:10001800D8000A128A11BB2A0A128A1113288316D9
:1000280003130A128A11E4240A128A11E4000A123C
:100038008A11E5240A128A11E5000A128A11E624B7
:100048000A128A11E6000A128A11E7240A128A1192
:10005800E700831203130A128A11E0240A128A1194
:10006800D9000A128A11E1240A128A11DA000A1246
:100078008A11E2240A128A11DB000A128A11E32487
:10008800DC0083160313E801E90183120313DD0181
:10009800DE0183010A128A11442B831603134408D4
:1000A800D0004508D1004608D2004708D3004008D0
:1000B800D0024108031C410F62286328D10242087C
:1000C800031C420F68286928D2024308031C430F07
:1000D8006E286F28D3025308B0005208AF005108A9
:1000E800AE005008AD003C08D4003D08D5003E08DD
:1000F800D6003F08D7004008D4024108031C410F2E
:1001080086288728D5024208031C420F8C288D2890
:10011800D6024308031C430F92289328D702570896
:10012800A3005608A2005508A1005408A0004C08D6
:10013800D8004D08D9004E08DA004F08DB004808FF
:10014800D8024908031C490FAA28AB28D9024A0833
:10015800031C4A0FB028B128DA024B08031C4B0FC6
:10016800B628B728DB025B08A7005A08A60059087A
:10017800A5005808A4000A128A1108240A128A1134
:10018800831603132308B4002208B3002108B20021
:100198002008B1000A128A119D21831603132D0825
:1001A8004807DC000030031801302E07DE01031871
:1001B800DE0A4907DD000318DE0A2F085E07DF01A3
:1001C8000318DF0A4A07DE000318DF0A30085F0752
:1001D8004B07DF005F08BF005E08BE005D08BD007A
:1001E8005C08BC000800831203133608C2003708F5
:1001F800C3003808C4003908C5003208C2023308F1
:10020800031C330F08290929C3023408031C340FBF
:100218000E290F29C4023508031C350F1429152986
:10022800C5024508A3004408A2004308A1004208EB
:10023800A0002E08C6002F08C7003008C8003108E3
:10024800C9003208C6023308031C330F2C292D2994
:10025800C7023408031C340F32293329C802350871
:10026800031C350F38293929C9024908F300480801
:10027800F2004708F1004608F0003E08CA003F08AF
:10028800CB004008CC004108CD003A08CA023B0820
:10029800031C3B0F50295129CB023C08031C3C0F7F
:1002A80056295729CC023D08031C3D0F5C295D29BE
:1002B800CD024D08F7004C08F6004B08F5004A0837
:1002C800F4000A128A1149240A128A117308831247
:1002D8000313A7007208A6007108A5007008A400FF
:1002E8000A128A112C228312031320083A07CE001F
:1002F8000030031801302107D0010318D00A3B074A
:10030800CF000318D00A22085007D1010318D10AD8
:100318003C07D0000318D10A230851073D07D10034
:100328005108B1005008B0004F08AF004E08AE00A9
:10033800080083160313B701B01FAF29AD09AE0932
:10034800AF09B009AD0A0319AE0A0319AF0A0319B8
:10035800B00AB701B70AB41FC029B109B209B30975
:10036800B409B10A0319B20A0319B30A0319B40A82
:100378000130B5003508B7060030BB000030BA00C0
:100388000030B9000030B80030082F042E042D04C6
:100398000319152AB601B60AB01BE0290130B500C9
:1003A8000310AD0DAE0DAF0DB00DB50BD429013056
:1003B800B5003508B607D0290130B5000310B80DCF
:1003C800B90DBA0DBB0DB50BE22930083402031D77
:1003D800F7292F083302031DF7292E083202031DBF
:1003E800F7292D083102031C082A2D08B1022E080E
:1003F800031C2E0FB2022F08031C2F0FB302300864
:10040800031C300FB402381401300310B00CAF0CC9
:10041800AE0CAD0CFF3E031D092A0130B602031DC8
:10042800E02937080319232AB809B909BA09BB0909
:10043800B80A0319B90A0319BA0A0319BB0A3B080F
:10044800B0003A08AF003908AE003808AD0008001F
:1004580083120313A901A31F3E2AA009A109A20917
:10046800A309A00A0319A10A0319A20A0319A30AD6
:10047800A901A90AA71F4F2AA409A509A609A7091E
:10048800A40A0319A50A0319A60A0319A70A013021
:10049800FD007D08A9060030AD000030AC0000303A
:1004A800AB000030AA002308220421042004031909
:1004B800A42AA801A80AA31B6F2A0130FD00031073
:1004C800A00DA10DA20DA30DFD0B632A0130FD00A7
:1004D8007D08A8075F2A0130FD000310AA0DAB0DA7
:1004E800AC0DAD0DFD0B712A23082702031D862ACA
:1004F80022082602031D862A21082502031D862AB2
:1005080020082402031C972A2008A4022108031C9F
:10051800210FA5022208031C220FA6022308031C90
:10052800230FA7022A1401300310A30CA20CA10C5C
:10053800A00CFF3E031D982A0130A802031D6F2A54
:1005480029080319B22AAA09AB09AC09AD09AA0AF4
:100558000319AB0A0319AC0A0319AD0A2D08A30045
:100568002C08A2002B08A1002A08A0000800831666
:1005780003130C1C3A2B831203130C18D72A3A2B9B
:10058800831603136408D32A831603136508D32A32
:10059800831603136608D32A831603136708831286
:1005A80003138600EA2A5E08003A0319DC2AEA2ABD
:1005B8005D08003A0319C42A013A0319C82A033A04
:1005C8000319CC2A013A0319D02AEA2A03305D0616
:1005D8005E04031DF22ADD01DE01F82A0130DD0781
:1005E8000318DE0A0030DE0700300A128A11882458
:1005F8000A128A11700883120313D2007108D300FB
:10060800D401D5015508B1005408B0005308AF0013
:100618005208AE000030B5000030B4000030B3001E
:100628000030B2000030B9000030B8000330B70025
:10063800FF30B6000030BD000030BC000030BB0009
:100648000030BA000030C1000030C000FD30BF00EB
:100658008F30BE000A128A11F7200A128A118312FB
:1006680003132F088F002E088E000C1083125808D1
:100678008A0057088400560E8300FE0E7E0E09007D
:100688000A128A11C3240A128A110A128A11DB2457
:100698000A128A1100300A128A11C6230A128A1114
:1006A800831603132008E0002108E100E201E301BA
:1006B8006308BF006208BE006108BD006008BC0096
:1006C8000030C3000030C2000030C1000030C0005C
:1006D8000030C7000030C6000330C500FF30C4003A
:1006E8000030CB000030CA000230C900BC30C8005E
:1006F8000030CF000030CE002730CD001030CC00C5
:100708000A128A1151200A128A11952B6408912B1A
:100718006508912B6608912B6708831203138600DE
:10072800AA2B831603136908003A03199C2BAA2BDA
:100738006808003A03198A2B013A03198C2B033AEB
:1007480003198E2B013A0319902BAA2B0330831619
:10075800031368066904031DB42BE801E901BA2BE9
:100768000130E8070318E90A0030E9074130831629
:100778000313E100ED30E000E00BC02BE10BC02BD0
:10078800C52B4E2B83160313A8000130A2002208A4
:10079800831203139F05831603132808A20002304F
:1007A8000310A20DFF3E031DD42B0310220DA3003E
:1007B8002308831203139F040D3083160313A30029
:1007C800FB30A200A20BE62BA30BE62B831203132C
:1007D8001F151F19ED2B1E0883160313A200A30172
:1007E8002208A6002308A7002608A300A2011E08C5
:1007F8002207A4000030031801302307A5002408AD
:10080800A0002508A1000800003083160313AC00DF
:100818000030AB000030AA000030A900201C282CB2
:100828002408A907250803110318013E031DAA0778
:10083800260803110318013E031DAB0727080311FF
:100848000318013E031DAC070130A8000310A40DD6
:10085800A50DA60DA70DA80B2A2C01300310A30C7B
:10086800A20CA10CA00CFF3E031D322C230822046D
:1008780021042004031D122C2C08A3002B08A2001D
:100888002A08A1002908A00008000030FC00003058
:10089800FB000030FA000030F900701C672C740867
:1008A800F907750803110318013E031DFA077608B6
:1008B80003110318013E031DFB07770803110318F2
:1008C800013E031DFC070130F8000310F40DF50D7F
:1008D800F60DF70DF80B692C01300310F30CF20C30
:1008E800F10CF00CFF3E031D712C730872047104A7
:1008F8007004031D512C7C08F3007B08F2007A0871
:10090800F1007908F0000800F6000130F2007208E2
:10091800831203139F057608F20002300310F20DCC
:10092800FF3E031D922C0310720DF30073089F0401
:100938000D30F300FB30F200F20BA02CF30BA02CCF
:10094800A52C831203131F151F19A82C1E08F200CB
:10095800F3017208F7007308F8007708F300F20152
:10096800831603131E087207F400003003180130C1
:100978007307F5007408F0007508F1000800831685
:1009880003131F109F101F119F11831203131F17AA
:100998009F13831603131F179F17831203131F1424
:1009A800831603130C13831203130C130800831606
:1009B8000313860105140800033406340C34093483
:0809C80009340C340634033439
:02400E003A3F37
:00000001FF
