:020000040000FA
:100000000A128A11FC2F00308A000408840A820731
:1000100000344734693461342034743472346934C0
:100020003A34203400344734723461346D3400344F
:10014E00831203138C1DA7288C110800831603132A
:10015E0011151119B028831203138C118316031372
:10016E0014080800F00070088312031393000A129B
:10017E008A11A7200A128A1183160313111FC92888
:10018E000130080002300800F10083160313111429
:10019E001118CF28831203138C1183160313941D89
:1001AE00080071080A128A11B92008008316031379
:1001BE0087150716503094002830831203139400CD
:1001CE00831603139101313093008C1583120313A0
:1001DE008C110800F800780884000A128A11032096
:1001EE000A128A11003A03190800780884000A12CC
:1001FE008A1103200A128A110A128A11CB210A12BD
:10020E008A110130F7007708F807F228FA007A030E
:10021E0003191329C03014298030FB000030FC0074
:10022E0077087B07FF3EF8007808FD007D080A126C
:10023E008A1176210A128A110D30F900FB30F8006E
:10024E00F80B2729F90B27292C29080002300A124E
:10025E008A1176210A128A110D30F800FB30F70050
:10026E00F70B3729F80B37293C2928300A128A1147
:10027E0076210A128A110730F8007D30F700F70B4D
:10028E004629F80B46290C300A128A1176210A12D9
:10029E008A110730F8007D30F700F70B5429F80B60
:1002AE00542980300A128A1176210A128A110730D7
:1002BE00F8007D30F700F70B6229F80B6229013048
:1002CE000A128A1176210A128A110D30F800FB30BB
:1002DE00F700F70B7029F80B702975290800F40048
:1002EE007408F20003300310F20DFF3E031D7A294D
:1002FE000310720DF039F3007308F5007408F0392D
:10030E00F2007208F6004E300A128A11CB200A1241
:10031E008A1176080C380A128A11B9200A128A112B
:10032E000D30F300FB30F200F20B9B29F30B9B29EF
:10033E00A029760808380A128A11B9200A128A11E1
:10034E000D30F300FB30F200F20BAB29F30BAB29AF
:10035E00B02975080C380A128A11B9200A128A11AE
:10036E000D30F300FB30F200F20BBB29F30BBB296F
:10037E00C029750808380A128A11B9200A128A1182
:10038E000A128A11AD200800F4007408F20003303E
:10039E000310F20DFF3E031DCF290310720DF0392D
:1003AE00F3007308F5007408F039F2007208F600D5
:1003BE004E300A128A11CB200A128A1176080D3895
:1003CE000A128A11B9200A128A110D30F300FB307D
:1003DE00F200F20BF029F30BF029F5297608093813
:1003EE000A128A11B9200A128A110D30F300FB305D
:1003FE00F200F20B002AF30B002A052A75080D38BD
:10040E000A128A11B9200A128A110D30F300FB303C
:10041E00F200F20B102AF30B102A152A7508093870
:10042E000A128A11B9200A128A110A128A11AD20F3
:10043E0008000310831203133C0D3D0DBE003E0851
:10044E00C4004408031D342A0030BD000030BC0037
:10045E000030BB000030BA0008003A08BE003B086E
:10046E00BF003C08C0003D08C1001F300310C10C86
:10047E00C00CBF0CBE0CFF3E031D3D2A3E08C20041
:10048E004208C300BC17FF30BA05FF30BB05FF3072
:10049E00BC050030BD059630C402C41F6B2A44084B
:1004AE00803A973E031C2B2A01300310BD0CBC0C66
:1004BE00BB0CBA0CFF3E031D5C2A0130BE003E0889
:1004CE00C40703197E2A5B2A2030440203182B2A04
:1004DE00440803197E2A0130BE000310BA0DBB0D6D
:1004EE00BC0DBD0DBE0B742A0130C4026F2A430829
:1004FE0003190800BA09BB09BC09BD09BA0A0319D8
:10050E00BB0A0319BC0A0319BD0A0800FA01F71F3A
:10051E009D2AF409F509F609F709F40A0319F50AF3
:10052E000319F60A0319F70AFA01FA0AF31FAA2A9F
:10053E00F009F109F209F309F00A0319F10A031996
:10054E00F20A0319F30A7308720471047004031992
:10055E00ED2AF901F90AF31BC22A0130F800031043
:10056E00F00DF10DF20DF30DF80BB62A0130F80077
:10057E007808F907B22A73087702031DD02A720889
:10058E007602031DD02A71087502031DD02A700849
:10059E007402031CE02A7008F4027108031C710F28
:1005AE00F5027208031C720FF6027308031C730F18
:1005BE00F70201300310F30CF20CF10CF00CFF3EBD
:1005CE00031DE12A0130F902031DC22A7A0803191C
:1005DE00FB2AF409F509F609F709F40A0319F50AD5
:1005EE000319F60A0319F70A7708F3007608F200E2
:1005FE007508F1007408F000080083120313061743
:10060E0086130030FC000030FB000030FA00003092
:10061E00F900061B102BF8018312031386177908B5
:10062E00F4007A08F5007B08F6007C08F70001302C
:10063E000310F40DF50DF60DF70DFF3E031D1F2BE8
:10064E007708FC007608FB007508FA007408F900BC
:10065E001030F400F40B312B0000831203138613B9
:10066E00061F472B0130F907003003180130FA0737
:10067E00003003180130FB07003003180130FC076F
:10068E001030F400F40B492B00000130F400740814
:10069E00F80718307802031C132B831203138617E6
:1006AE0000307906F40000307A06F50080307B06C3
:1006BE00F60000307C06F7007708FC007608FB0099
:1006CE007508FA007408F9001030F400F40B6D2B65
:1006DE0000008312031386137C08F3007B08F200DC
:1006EE007A08F1007908F000080083120313A901BB
:1006FE00A31F8E2BA009A109A209A309A00A031901
:10070E00A10A0319A20A0319A30AA901A90AA71F7C
:10071E009F2BA409A509A609A709A40A0319A50ACE
:10072E000319A60A0319A70A0130FB007B08A906C4
:10073E000030AD000030AC000030AB000030AA003D
:10074E0023082204210420040319F42BA801A80A6B
:10075E00A31BBF2B0130FB000310A00DA10DA20D9A
:10076E00A30DFB0BB32B0130FB007B08A807AF2BAF
:10077E000130FB000310AA0DAB0DAC0DAD0DFB0B44
:10078E00C12B23082702031DD62B22082602031D88
:10079E00D62B21082502031DD62B20082402031C6C
:1007AE00E72B2008A4022108031C210FA502220812
:1007BE00031C220FA6022308031C230FA7022A14D0
:1007CE0001300310A30CA20CA10CA00CFF3E031DC4
:1007DE00E82B0130A802031DBF2B29080319022C98
:1007EE00AA09AB09AC09AD09AA0A0319AB0A031988
:1007FE00AC0A0319AD0A2D08A3002C08A2002B0881
:10080E00A1002A08A0000800F8007808031DF31FB5
:10081E00202C7009FA007109FB007209FC007309A3
:10082E00FD00FA0A0319FB0A0319FC0A0319FD0A53
:10083E00282C7308FD007208FC007108FB0070087C
:10084E00FA007308720471047004031D372C003013
:10085E00F3000030F2000030F1000030F00008002C
:10086E009630F4007408F900FE307D050319682CEB
:10087E000130F4007408F90701300310FD0CFC0C74
:10088E00FB0CFA0CFF3E031D442C3B2C0130F400F4
:10089E007408F9070130FA07003003180130FB071E
:1008AE00003003180130FC07003003180130FD073B
:1008BE0001300310FD0CFC0CFB0CFA0CFF3E031D6B
:1008CE00602CFF307D0503197C2C4D2C02307902F3
:1008DE00031C7E2C0130F9020130F4000310FA0DD6
:1008EE00FB0DFC0DFD0DF40B752CFC1F6D2C7918FA
:1008FE00882CFF30FA05FF30FB057F30FC05FF30FA
:10090E00FD050310F90C7908F400F501F601F70165
:10091E0018300310F40DF50DF60DF70DFF3E031D07
:10092E00902C7408FA047508FB047608FC0477080A
:10093E00FD047808031DF31FA52CFD177D08F30099
:10094E007C08F2007B08F1007A08F00008008312A0
:10095E00031327088039A8002808B1002708A8002B
:10096E002807A9002908B800A61B3814380803194F
:10097E00CE2C380A031DCB2C0030A7000030A60069
:10098E000030A5000030A400A617A701D62C003019
:10099E00A7000030A6000030A5000030A4002308F8
:1009AE008039A8002808B1062308A8002807A90046
:1009BE002908B900A21B391439080319F42C390A75
:1009CE00031DF12C0030A3000030A2000030A10066
:1009DE000030A000A217A301FC2C0030A3000030B1
:1009EE00A2000030A1000030A00023082204210440
:1009FE002004031D1B2D0030A7000030A600003080
:100A0E00A5000030A4008030A6047F30A704310872
:100A1E00A8002808A7042708A3002608A200250876
:100A2E00A1002408A00008003808031D272D00305F
:100A3E00A3000030A2000030A1000030A00008008A
:100A4E003808A800A9012908AB0039082802AA0015
:100A5E00031CAB032A087F3EB2002B080318013E8D
:100A6E00003EB3002708B0002608AF002508AE00F0
:100A7E002408AD000030A7000030A6000030A5000D
:100A8E000030A4000030B7000030B6000030B500D2
:100A9E000030B400B9011A30390203189A2D390802
:100AAE000319762D0130A8000310AD0DAE0DAF0D5C
:100ABE00B00DA80B5B2D0130A8000310A40DA50DE1
:100ACE00A60DA70DA80B642DB71B24140130A8008A
:100ADE000310B40DB50DB60DB70DA80B6F2D230871
:100AEE003002031D842D22082F02031D842D2108A0
:100AFE002E02031D842D20082D02031C952D371761
:100B0E002008AD022108031C210FAE022208031C8F
:100B1E00220FAF022308031C230FB0020130A800DE
:100B2E002808B907522D30082F042E042D04031D5A
:100B3E003414A61BBD2D0130A8000310A40DA50D65
:100B4E00A60DA70DA80BA42DB71B24140130A800C9
:100B5E000310B40DB50DB60DB70DA80BAF2DFF30AC
:100B6E00B2070318B30AFF30B307A02DB901B71FA0
:100B7E00D62DFF303405A800FF303505A900FF3013
:100B8E003605AA007F303705AB002B082A0429044E
:100B9E00280403192418D42DD62DB901B90A390801
:100BAE000319082E0130A407003003180130A507E1
:100BBE00003003180130A607003003180130A707D4
:100BCE00271C082E2408A8002508A9002608AA001C
:100BDE002708AB000130AC002B0DAB0CAA0CA90CF6
:100BEE00A80CAC0BF32D2B08A7002A08A600290889
:100BFE00A5002808A4000130B2070318B30A00307C
:100C0E00B3073308803AFF0080307F02031D112E98
:100C1E00FF303202031C212EFF3083120313B20069
:100C2E000030B3000030A7000030A6000030A50051
:100C3E000030A400831203133308803AFF00803083
:100C4E007F02031D2C2E0130320203183B2E83121D
:100C5E000313B201B3010030A7000030A60000302C
:100C6E00A5000030A400B101831203133208A800BE
:100C7E002808B800381C452EA617492E7F30A8002C
:100C8E002808A6053808A8000310280CA900290872
:100C9E00A7000E2D83160313861306170A128A1148
:100CAE00DD200A128A110A128A112D210A128A11C6
:100CBE0001300A128A11F1200A128A1107308312AA
:100CCE000313C5004508F70002300A128A110D21E0
:100CDE000A128A110B300A128A11F1200A128A1195
:100CEE000A128A1104230A128A117308831203133B
:100CFE00CC007208CB007108CA007008C900983089
:100D0E00C500C330C6008130C700FF30C800490897
:100D1E00C5074A0803184A0F952E962EC6074B088C
:100D2E0003184B0F9B2E9C2EC7074C0803184C0A1A
:100D3E00C8074808F3004708F2004608F1004508C6
:100D4E00F00001300A128A110B240A128A1173085C
:100D5E0083120313A7007208A6007108A50070087D
:100D6E00A4004030A3008230A2007530A1002530CF
:100D7E00A0000A128A11AE240A128A1183120313DA
:100D8E002308BD002208BC002108BB002008BA00C1
:100D9E000A128A1120220A128A11831203133D08A5
:100DAE00CC003C08CB003B08CA003A08C900CC1F57
:100DBE00E82E0030CC000030CB000030CA000030EE
:100DCE00C900F701F70A02300A128A110D210A1220
:100DDE008A11003083120313A3000F30A200423099
:100DEE00A1004030A0004C08A7004B08A6004A08FE
:100DFE00A5004908A4000A128A117C230A128A113E
:100E0E00831203132008303E0A128A11CB210A12D4
:100E1E008A11003083120313A3000130A200863022
:100E2E00A100A030A0004C08F7004B08F6004A08BD
:100E3E00F5004908F4000030F3000F30F2004230A4
:100E4E00F1004030F0000A128A118D220A128A1126
:100E5E00730883120313A7007208A6007108A50079
:100E6E007008A4000A128A117C230A128A118312B6
:100E7E0003132008303E0A128A11CB210A128A115E
:100E8E00003083120313A3000030A2002730A1000C
:100E9E001030A0004C08F7004B08F6004A08F50089
:100EAE004908F4000030F3000130F2008630F10002
:100EBE00A030F0000A128A118D220A128A117308CC
:100ECE0083120313A7007208A6007108A50070080C
:100EDE00A4000A128A117C230A128A1183120313A8
:100EEE002008303E0A128A11CB210A128A110030D4
:100EFE0083120313A3000030A2000330A100E830D8
:100F0E00A0004C08F7004B08F6004A08F500490807
:100F1E00F4000030F3000030F2002730F100103002
:100F2E00F0000A128A118D220A128A117308831296
:100F3E000313A7007208A6007108A5007008A4008C
:100F4E000A128A117C230A128A11831203132008B3
:100F5E00303E0A128A11CB210A128A1100308312F6
:100F6E000313A3000030A2000030A1006430A000E3
:100F7E004C08F7004B08F6004A08F5004908F40043
:100F8E000030F3000030F2000330F100E830F000E2
:100F9E000A128A118D220A128A1173088312031300
:100FAE00A7007208A6007108A5007008A4000A1216
:100FBE008A117C230A128A11831203132008303EF1
:100FCE000A128A11CB210A128A110D3083120313D1
:100FDE00C700AF30C600B530C500C50BF42FC60B29
:100FEE00F42FC70BF42FFB2F772E83010A128A11D1
:020FFE00512E72
:02400E003A3F37
:00000001FF
