:020000040000FA
:100000000A128A11FC2F00308A000408840A820731
:100010000034003400340A3400341F3400341F34F8
:1000200000341F3400340E340034043400340034FF
:1000300000340E3400340A340034113400341134E6
:10004000003411340034113400341F3400341F34B0
:100050000034043400340E3400341F3400341F34B0
:1000600000340E3400340E3400340A3400340A34C0
:1000700000340E34003411340034113400341F3491
:1000800000341B3400341B3400341F34003400347B
:1000900000340E34003410340034103400341F3473
:1000A00000341B3400341B3400341F34003400345B
:1000B000003400340034113400340A340034113474
:1000C0000034043400340E3400341134003400346D
:1000D000003400340034003400340A340034153461
:1000E0000034113400340E3400340434003400344D
:1000F00000341F3400341F340034153400341B34F2
:1001000000341B3400341F340034113400341F34E5
:020110000034B9
:100C5A00F000701C342E831203130815372E8312EA
:100C6A0003130811F01C3B2E88153C2E8811701DA9
:100C7A00402E0816412E0812F01D452E881608002F
:100C8A0088120800F30083120313081073080A126B
:100C9A008A112D260A128A118312031388141A3014
:100CAA00F200F830F100F10B582EF20B582E00002A
:100CBA008312031388100800F200732E831603139D
:100CCA00850108008316031386010800831603139F
:100CDA008701080083160313880108007208F000D0
:100CEA00F1017108003A03197B2E892E7008413AE6
:100CFA000319632E033A0319672E013A03196B2E5F
:100D0A00073A03196F2E892E0800F40074080F3968
:100D1A00F1007108F2007408F039F1007108F3006B
:100D2A008312031308147308F10004300310F10C42
:100D3A00FF3E031D9B2E71080A128A112D260A12E4
:100D4A008A118312031388144230F100F10BAB2E7F
:100D5A00000083120313881072080A128A112D26C2
:100D6A000A128A118312031388144230F100F10B1C
:100D7A00BC2E00008312031388100800F7007703C3
:100D8A00031DE82E74087F3EF5007508FA007A08FC
:100D9A00F50004300310F50CFF3E031DCF2E750835
:100DAA00F6007608F8007A080F39F5007508F90098
:100DBA0078080A128A1147260A128A1179080A1231
:100DCA008A114726080002307706031D08007408B6
:100DDA00BF3EF5007508FA007A08F50004300310E2
:100DEA00F50CFF3E031DF42E7508F6007608F80090
:100DFA007A080F39F5007508F90078080A128A117D
:100E0A0047260A128A1179080A128A114726080007
:100E1A0044300A128A1161260A128A110A128A11A8
:100E2A0070270A128A1183120313A001A00A20084C
:100E3A00FB007B08F40001300A128A11C3260A1249
:100E4A008A1101300A128A118A260A128A11831219
:100E5A000313200303193C2F2008FF3EFB007B08E5
:100E6A00F40001300A128A11C3260A128A112030AC
:100E7A000A128A118A260A128A110330FD008A3060
:100E8A00FC005530FB00FB0B482FFC0B482FFD0BD9
:100E9A00482F4F2F103083120313200603195F2F98
:100EAA002008FB007B08F40001300A128A11C326CD
:100EBA000A128A1120300A128A118A260A128A1103
:100ECA000130FB007B0883120313A00711302002B4
:100EDA000318182F1C2F00300A128A112D260A1205
:100EEA008A118230F600DD30F500F50B7A2FF60B09
:100EFA007A2F7F2F03300A128A1147260A128A1183
:100F0A002130F6007630F500F50B892FF60B892F84
:100F1A00000003300A128A1147260A128A11483041
:100F2A00F6006C30F500F50B982FF60B982F0000A1
:100F3A0003300A128A1147260A128A1102300A124B
:100F4A008A1147260A128A1102300A128A11472682
:100F5A000A128A1108300A128A1147260A128A11BD
:100F6A0000300A128A1147260A128A110C300A1214
:100F7A008A1147260A128A1100300A128A11472654
:100F8A000A128A1106300A128A1147260A128A118F
:100F9A0004300A128A1147260A128A1100300A12EC
:100FAA008A1147260A128A11F7017708F500750790
:100FBA00013E84000A128A1103200A128A110A12B7
:100FCA008A118A260A128A110130F5007508F70774
:100FDA0040307702031CDA2F00300A128A114726A2
:100FEA000A128A1102300A128A114726080083015E
:060FFA000A128A110D2FFE
:02400E003A3F37
:00000001FF
