:020000040000FA
:100000000A128A11FC2F00308A000408840A820731
:10001000003478345F34763461346C34753465344C
:1000200020343D342034003479345F347634613404
:0E0030006C347534653420343D342034003493
:10096600831603131F109F101F119F118312031369
:100976001F179F13831603131F179F178312031343
:100986001F14831603130C13831203130C1308008E
:10099600F000701CD22C831203130815D52C831279
:1009A60003130811F01CD92C8815DA2C8811701D38
:1009B600DE2C0816DF2C0812F01DE32C8816080022
:1009C60088120800F30083120313081073080A1232
:1009D6008A11CB240A128A118312031388141A303F
:1009E600F200F830F100F10BF62CF20BF62C0000B9
:1009F6008312031388100800F700F501F601750845
:100A0600770784000A128A1103200A128A11003A13
:100A1600031908007508770784000A128A11032053
:100A26000A128A110A128A1153250A128A110130F2
:100A3600F5070318F60A0030F607022D7008710450
:100A460003194E2DF501F50AF11B352D0130031062
:100A5600F00DF10DFF3E031D2A2D0130F400740840
:100A6600F507272D71087302031D3B2D70087202CE
:100A7600031C432D7008F2027108031CF303F302F2
:100A860001300310F10CF00CFF3E031D442D013024
:100A9600F502031D352D7308F1007208F0000800F9
:100AA600F40074080F39F1007108F2007408F03987
:100AB600F1007108F3008312031308147308F100A0
:100AC60004300310F10CFF3E031D642D71080A1259
:100AD6008A11CB240A128A11831203138814423016
:100AE600F100F10B742D00008312031388107208B5
:100AF6000A128A11CB240A128A118312031388144C
:100B06004230F100F10B852D00008312031388108B
:100B16000800F8000130F2007208831203139F05E3
:100B26007808F20002300310F20DFF3E031D962DE9
:100B36000310720DF30073089F040D30F300FB30B1
:100B4600F200F20BA42DF30BA42DA92D831203138F
:100B56001F151F19AC2D1E08F200F3017208F600CE
:100B66007308F7007608F300F201831603131E08D4
:100B76007207F4000030031801307307F50074089B
:100B8600F0007508F1000800FB01FC017608770407
:100B96000319FE2DFD01FD0AF71BDD2D01300310A3
:100BA600F60DF70DFF3E031DD22D0130FA007A082F
:100BB600FD07CF2D01300310FB0DFC0DFF3E031D7D
:100BC600DE2D77087902031DEA2D76087802031CCC
:100BD600F32D7608F8027708031CF903F9027B1453
:100BE60001300310F70CF60CFF3E031DF42D013007
:100BF600FD02031DDD2D7C08F7007B08F6000800CA
:100C0600F7007703031D282E74087F3EF50075084C
:100C1600FA007A08F50004300310F50CFF3E031DB8
:100C26000F2E7508F6007608F8007A080F39F500D9
:100C36007508F90078080A128A11E5240A128A1141
:100C460079080A128A11E524080002307706031D86
:100C560008007408BF3EF5007508FA007A08F5002A
:100C660004300310F50CFF3E031D342E7508F60004
:100C76007608F8007A080F39F5007508F900780843
:100C86000A128A11E5240A128A1179080A128A11AF
:100C9600E5240800831603138801FF3085000A1235
:100CA6008A11A5260A128A110A128A11B3240A1277
:100CB6008A1101300A128A11FF240A128A11F401DC
:100CC600F40A02300A128A1103260A128A110C301B
:100CD6000A128A11FF240A128A1100300A128A1196
:100CE6008C250A128A11710883120313AB0070084F
:100CF600AA002B08A7002A08A600A5308312031312
:100D0600A500A50B842E872E01300A128A118C2588
:100D16000A128A11710883120313AB007008AA0025
:100D26002B08A9002A08A8002708A1002608A00069
:100D36002908A3002808A2000A128A1101270A120C
:100D46008A11702E00300A128A11CB240A128A11D7
:100D56008230F500DD30F400F40BAF2EF50BAF2E2C
:100D6600B42E03300A128A11E5240A128A112130A0
:100D7600F5007630F400F40BBE2EF50BBE2E000007
:100D860003300A128A11E5240A128A114830F50046
:100D96006C30F400F40BCD2EF50BCD2E0000033095
:100DA6000A128A11E5240A128A1102300A128A11DD
:100DB600E5240A128A1102300A128A11E5240A125F
:100DC6008A1108300A128A11E5240A128A110030A3
:100DD6000A128A11E5240A128A110C300A128A11A3
:100DE600E5240A128A1100300A128A11E5240A1231
:100DF6008A1106300A128A11E52408000B30831284
:100E06000313A4002408F40001300A128A110326F1
:100E16000A128A11E830F6000330F7008312031332
:100E26002108F9002008F8000A128A11C7250A12BB
:100E36008A117608303E0A128A1153250A128A113F
:100E46006430F6000030F700831203132108F30024
:100E56002008F200E830F0000330F1000A128A118F
:100E660021250A128A117108F9007008F8000A1281
:100E76008A11C7250A128A117608303E0A128A118B
:100E860053250A128A110A30F6000030F700831241
:100E960003132108F3002008F2006430F00000304C
:100EA600F1000A128A1121250A128A117108F90025
:100EB6007008F8000A128A11C7250A128A117608E4
:100EC600303E0A128A1153250A128A110A30F0009E
:100ED6000030F100831203132108F3002008F2000A
:100EE6000A128A1121250A128A117008303E0A1246
:100EF6008A1153250A128A110B3083120313A40098
:100F06002408F40002300A128A1103260A128A11F2
:100F1600E830F6000330F700831203132308F900C4
:100F26002208F8000A128A11C7250A128A117608C1
:100F3600303E0A128A1153250A128A116430F600CD
:100F46000030F700831203132308F3002208F2008F
:100F5600E830F0000330F1000A128A1121250A1246
:100F66008A117108F9007008F8000A128A11C7255B
:100F76000A128A117608303E0A128A1153250A127D
:100F86008A110A30F6000030F70083120313230893
:100F9600F3002208F2006430F0000030F1000A127B
:100FA6008A1121250A128A117108F9007008F800C1
:100FB6000A128A11C7250A128A117608303E0A12C9
:100FC6008A1153250A128A110A30F0000030F10006
:100FD600831203132308F3002208F2000A128A116F
:100FE60021250A128A117008303E0A128A115325E9
:0A0FF600080083010A128A114D2E33
:02400E003A3F37
:00000001FF
