:020000040000FA
:060000000A128A11F02F24
:10039E00C034F934A434B034993492348234F834FD
:1003AE00803490347E088A007F088200D9210A1298
:1003BE008A118000840A04087D0603190034FF0A9E
:1003CE000319FE0ADD29831603131F109F141F1134
:1003DE009F11831203131F179F13831603131F17E7
:1003EE009F17831203131F14831603130C13831208
:1003FE0003130C130800F800F401F5017008F20065
:10040E00F3017208F6007308F700781C142A7608B8
:10041E00F4070318F50A7708F50701300310F60DF7
:10042E00F70DFF3E031D152A0310F80C7808031D67
:10043E000C2A7508F1007408F000080070087104A9
:10044E000319522AF501F50AF11B392A013003105E
:10045E00F00DF10DFF3E031D2E2A0130F40074083D
:10046E00F5072B2A71087302031D3F2A70087202CA
:10047E00031C472A7008F2027108031CF303F302EF
:10048E0001300310F10CF00CFF3E031D482A013021
:10049E00F502031D392A7308F1007208F0000800F6
:1004AE00F800C530F2007208831203139F05780816
:1004BE00F20002300310F20DFF3E031D612A0310FD
:1004CE00720DF30073089F040D30F300FB30F20041
:1004DE00F20B6F2AF30B6F2A742A831203131F1564
:1004EE001F19772A1E08F200F3017208F60073082E
:1004FE00F7007608F300F201831603131E08720745
:10050E00F4000030031801307307F5007408F00092
:10051E007508F1000800FB01FC0176087704031949
:10052E00C92AFD01FD0AF71BA82A01300310F60D9A
:10053E00F70DFF3E031D9D2A0130FA007A08FD07D4
:10054E009A2A01300310FB0DFC0DFF3E031DA92A54
:10055E0077087902031DB52A76087802031CBE2A95
:10056E007608F8027708031CF903F9027B140130B0
:10057E000310F70CF60CFF3E031DBF2A0130FD02DF
:10058E00031DA82A7C08F7007B08F60008008316D6
:10059E000313051488018701831203138801870151
:1005AE000A128A11EA210A128A1100300A128A11DD
:1005BE0057220A128A11710883120313C60070089B
:1005CE00C5004508F0004608F1000030F11BFF3071
:1005DE00F200F30001300A128A1138240A128A112D
:1005EE00730883120313A7007208A6007108A500F2
:1005FE007008A4003E30A300F930A200DB30A10049
:10060E002330A0000A128A11DB240A128A118312E7
:10061E0003132308BD002208BC002108BB002008DC
:10062E00BA000A128A112D230A128A118312031399
:10063E003B08C6003A08C5004608A1004508A000C0
:10064E000A128A119A230A128A11DC2A03108312C3
:10065E0003133C0D3D0DBE003E08C4004408031DAF
:10066E00412B0030BD000030BC000030BB0000301C
:10067E00BA0008003A08BE003B08BF003C08C000A4
:10068E003D08C1001F300310C10CC00CBF0CBE0CC6
:10069E00FF3E031D4A2B3E08C2004208C300BC1792
:1006AE00FF30BA05FF30BB05FF30BC050030BD057D
:1006BE009630C402C41F782B4408803A973E031C20
:1006CE00382B01300310BD0CBC0CBB0CBA0CFF3E1A
:1006DE00031D692B0130BE003E08C40703198B2B86
:1006EE00682B203044020318382B440803198B2B37
:1006FE000130BE000310BA0DBB0DBC0DBD0DBE0BFF
:10070E00812B0130C4027C2B430803190800BA095F
:10071E00BB09BC09BD09BA0A0319BB0A0319BC0AF5
:10072E000319BD0A0800831203130714C63088008C
:10073E00413083120313A300ED30A200A20BA52BB0
:10074E00A30BA52BAA2B83120313071087149C301F
:10075E008800413083120313A300ED30A200A20BD8
:10076E00B62BA30BB62BBB2B8312031387100715C7
:10077E000A30F0000030F1002108F3002008F200EA
:10078E000A128A1125220A128A117008473E840025
:10079E00831300088312031388004130831203135E
:1007AE00A300ED30A200A20BDA2BA30BDA2BDF2B6A
:1007BE0083120313071187150A30F6000030F70075
:1007CE002108F3002008F2006430F0000030F10040
:1007DE000A128A1125220A128A117108F90070086C
:1007EE00F8000A128A1192220A128A117608473EDE
:1007FE008400831300088312031388004130831290
:10080E000313A300ED30A200A20B0B2CA30B0B2C99
:10081E00102C83120313871107166430F600003074
:10082E00F7002108F9002008F8000A128A11922216
:10083E000A128A117608473E840083130008831239
:10084E0003138800413083120313A300ED30A2007E
:10085E00A20B2F2CA30B2F2C342C83120313071255
:10086E000800F8007808031DF31F4D2C7009FA00DC
:10087E007109FB007209FC007309FD00FA0A0319E5
:10088E00FB0A0319FC0A0319FD0A552C7308FD0017
:10089E007208FC007108FB007008FA0073087204FD
:1008AE0071047004031D642C0030F3000030F2005C
:1008BE000030F1000030F00008009630F4007408AB
:1008CE00F900FE307D050319952C0130F4007408F3
:1008DE00F90701300310FD0CFC0CFB0CFA0CFF3E6B
:1008EE00031D712C682C0130F4007408F9070130D7
:1008FE00FA07003003180130FB07003003180130EF
:10090E00FC07003003180130FD0701300310FD0C09
:10091E00FC0CFB0CFA0CFF3E031D8D2CFF307D05ED
:10092E000319A92C7A2C02307902031CAB2C01304E
:10093E00F9020130F4000310FA0DFB0DFC0DFD0D54
:10094E00F40BA22CFC1F9A2C7918B52CFF30FA054B
:10095E00FF30FB057F30FC05FF30FD050310F90C61
:10096E007908F400F501F601F70118300310F40DC3
:10097E00F50DF60DF70DFF3E031DBD2C7408FA04A0
:10098E007508FB047608FC047708FD047808031D3F
:10099E00F31FD22CFD177D08F3007C08F2007B08B4
:1009AE00F1007A08F000080083120313230880393F
:1009BE00A8002808AD002308A8002807A9002908C8
:1009CE00B300A21B331433080319FA2C330A031D88
:1009DE00F82C0030A3000030A2000030A10000303F
:1009EE00A000A217022D0030A3000030A20000309C
:1009FE00A1000030A00027088039A8002808AD0605
:100A0E002708A8002807A9002908B200A61B32143F
:100A1E00320803191F2D320A031D1D2D0030A700A9
:100A2E000030A6000030A5000030A400A617272D28
:100A3E000030A7000030A6000030A5000030A40052
:100A4E003208031D3308031D352D0030A30000307E
:100A5E00A2000030A1000030A00008002008A8006D
:100A6E002808F00026080A128A1102220A128A1198
:100A7E00710883120313B9007008B8003808A80073
:100A8E00A901AA01AB012B08B1002A08B000290860
:100A9E00AF002808AE003908A800A901AA01AB01D1
:100AAE002B08B7002A08B6002908B5002808B4009C
:100ABE002108A8002808F00025080A128A1102222F
:100ACE000A128A11710883120313B9007008B80054
:100ADE003808A800A901AA01AB012808AE07290809
:100AEE0003110318013E031DAF072A080311031853
:100AFE00013E031DB0072B0803110318013E031D11
:100B0E00B1073908A800A901AA01AB012808B4074A
:100B1E00290803110318013E031DB5072A08031106
:100B2E000318013E031DB6072B0803110318013EDF
:100B3E00031DB7072208A8002808F00024080A128F
:100B4E008A1102220A128A11710883120313B90044
:100B5E007008B8003808A800A901AA01AB0128083E
:100B6E00AE07290803110318013E031DAF072A081B
:100B7E0003110318013E031DB0072B0803110318C0
:100B8E00013E031DB1073908A800A901AA01AB0156
:100B9E002808B407290803110318013E031DB507E1
:100BAE002A0803110318013E031DB6072B08031173
:100BBE000318013E031DB7070830A8000310AE0D41
:100BCE00AF0DB00DB10DA80BE52D2108A80028081A
:100BDE00F00024080A128A1102220A128A117108E0
:100BEE0083120313B9007008B8003808A80039083A
:100BFE00A900AA01AB012808AE07290803110318A2
:100C0E00013E031DAF072A0803110318013E031D01
:100C1E00B0072B0803110318013E031DB10720086E
:100C2E00A8002808F00025080A128A1102220A12CA
:100C3E008A11710883120313B9007008B8003808BE
:100C4E00A8003908A900AA01AB012808AE07290897
:100C5E0003110318013E031DAF072A0803110318E1
:100C6E00013E031DB0072B0803110318013E031D9F
:100C7E00B1070830A8000310AE0DAF0DB00DB10DC9
:100C8E00A80B422E2008A8002808F00024080A12FB
:100C9E008A1102220A128A11710883120313B900F3
:100CAE007008B8003808A8003908A900AA01AB01DD
:100CBE002808AE07290803110318013E031DAF07CC
:100CCE002A0803110318013E031DB0072B08031158
:100CDE000318013E031DB1072108A8002808F000E3
:100CEE0026080A128A1102220A128A117108831228
:100CFE000313B9007008B8003808A8003908A90015
:100D0E00AA01AB012808B407290803110318013EF4
:100D1E00031DB5072A0803110318013E031DB6076C
:100D2E002B0803110318013E031DB7072208A80064
:100D3E002808F00025080A128A1102220A128A11C6
:100D4E00710883120313B9007008B8003808A800A0
:100D5E003908A900AA01AB012808B4072908031114
:100D6E000318013E031DB5072A0803110318013E9F
:100D7E00031DB6072B0803110318013E031DB70709
:100D8E002208A8002808F00026080A128A1102225A
:100D9E000A128A11710883120313B9007008B80081
:100DAE003808A8003908A900AA01AB0108300310C1
:100DBE00A80DA90DAA0DAB0DFF3E031DDE2E2808B2
:100DCE00B407290803110318013E031DB5072A08AD
:100DDE0003110318013E031DB6072B080311031858
:100DEE00013E031DB7072E08A8002F08A9003008E2
:100DFE00AA003108AB0018300310AB0CAA0CA90CDA
:100E0E00A80CFF3E031D032F2808B4072908031161
:100E1E000318013E031DB5072A0803110318013EEE
:100E2E00031DB6072B0803110318013E031DB70758
:100E3E000830A8000310AE0DAF0DB00DB10DA80B0C
:100E4E00212F33083207A800A901A90D2808823ED8
:100E5E00B80029080318013EFF3EB900B61B522FF9
:100E6E000130A8000310B40DB50DB60DB70DA80BCB
:100E7E00392FB11B34140130A8000310AE0DAF0D85
:100E8E00B00DB10DA80B442FFF30B8070318B90AE7
:100E9E00FF30B907352FB201B11F6B2FFF302E0572
:100EAE00A800FF302F05A900FF303005AA007F30C3
:100EBE003105AB002B082A04290428040319341821
:100ECE00692F6B2FB201B20A320803199D2F013020
:100EDE00B407003003180130B50700300318013095
:100EEE00B607003003180130B707371C9D2F3408A2
:100EFE00A8003508A9003608AA003708AB00013053
:100F0E00AC002B0DAB0CAA0CA90CA80CAC0B882FAB
:100F1E002B08B7002A08B6002908B5002808B40027
:100F2E000130B8070318B90A0030B9073908803AFA
:100F3E00FF0080307F02031DA62FFF303802031CF6
:100F4E00B32F7F3083120313B7008030B60000300A
:100F5E00B5000030B400E32F831203133908803A32
:100F6E00FF0080307F02031DBE2F013038020318B0
:100F7E00CC2F003083120313B7000030B6000030C0
:100F8E00B5000030B400AD01E32F8312031338080F
:100F9E00A8002808B300FF30B405FF30B5057F3038
:100FAE00B6050030B7053318B6173308A80003107E
:100FBE00280CA9002908B7002D08A8002808B70496
:100FCE003708A3003608A2003508A1003408A00097
:100FDE00080083135130FD000130FE00CF30FF00BA
:100FEE00473084000A128A11DD2183010A128A1108
:020FFE00CE2AF9
:02400E003A3F37
:00000001FF
