:020000040000FA
:060000000A128A11FC2F18
:100D5A000A128A11C32683160313111408000A12F1
:100D6A008A11C32683160313111508000A128A1161
:100D7A00C326700883120313930008008316031313
:100D8A001419C32E11081F3903190800C32E28305D
:100D9A00831203139400831603139101831203131E
:100DAA002008A4002108A5002208A6002308A700FD
:100DBA0002300310A40DA50DA60DA70DFF3E031DBD
:100DCA00DE2E2708F3002608F2002508F100240881
:100DDA00F0000130F7003130F6002D30F500003018
:100DEA00F4000A128A1102277008FF3E83160313C1
:100DFA00930094018715071608000030FC000030A4
:100E0A00FB000030FA000030F90073087204710424
:100E1A0070040319572FFD01FD0AF31B222F01301D
:100E2A00F8000310F00DF10DF20DF30DF80B162F6B
:100E3A000130F8007808FD07122F0130F80003107E
:100E4A00F90DFA0DFB0DFC0DF80B242F7308770230
:100E5A00031D392F72087602031D392F7108750296
:100E6A00031D392F70087402031C4A2F7008F402FC
:100E7A007108031C710FF5027208031C720FF60247
:100E8A007308031C730FF702791401300310F30C73
:100E9A00F20CF10CF00CFF3E031D4B2F0130FD024A
:100EAA00031D222F7C08F3007B08F2007A08F10068
:100EBA007908F0000800831603130814881408152B
:100ECA00003083120313A3000130A2008630A10070
:100EDA00A030A0000A128A11CC260A128A118312A3
:100EEA0003130818A12F081C782F0A128A11AD269D
:100EFA000A128A113030F0000030F1000A128A1109
:100F0A00BB260A128A11413083120313A900ED305D
:100F1A00A800A80B8E2FA90B8E2F932F0130F0005B
:100F2A000030F1000A128A11BB260A128A110A122B
:100F3A008A11B4260A128A11831203138818CE2F33
:100F4A00881CA52F0A128A11AD260A128A1130307E
:100F5A00F0000030F1000A128A11BB260A128A1127
:100F6A00413083120313A900ED30A800A80BBB2F50
:100F7A00A90BBB2FC02F0230F0000030F1000A127B
:100F8A008A11BB260A128A110A128A11B4260A1277
:100F9A008A11831203130819742F081DD22F0A12FB
:100FAA008A11AD260A128A113030F0000030F100A1
:100FBA000A128A11BB260A128A11413083120313BC
:100FCA00A900ED30A800A80BE82FA90BE82FED2FF8
:100FDA000330F0000030F1000A128A11BB260A120F
:100FEA008A110A128A11B4260A128A11742F8301ED
:060FFA000A128A11602FAB
:02400E003A3F37
:00000001FF
