:020000040000FA
:100000000A128A11E42FFF1B0D2883137F18831710
:100010000008840A0319FF0A080000308A00040857
:10002000840A820700340034003480343F341834AA
:10003000723431343F34F034FD3475343E34473457
:10004000583463343D34583495341D343C34823450
:10005000C434AE343A34A834783421343934EF34EB
:10006000933480343734A0349234A7343534463452
:100070005634153434340034003400340034C4347D
:10008000FF347F343F348034EF34FF34BE34903457
:10009000E134A9343E34EC3482347634BE348234D4
:1000A000AD342B343E340E343C34C334BD34873449
:1000B000D13413343D3441347834D334BB345034E8
:0A00C000483455344F344334003403
:100B68004D344134583400340A128A11E9250A12E6
:100B78008A114D30F5008030F6000A128A112226BB
:100B88000A128A11C62D7008F2007108F300730862
:100B980083120313FF00720884000A128A110320CB
:100BA8000A128A11003A0319E02D0130F2070318DE
:100BB800F30A0030F307CB2D70087202F0007108B9
:100BC800031C710A7302F10008002030F500750853
:100BD800F00000300A128A116A260A128A11283097
:100BE800F5007508F00000300A128A111E270A1253
:100BF8008A110C30F5007508F00000300A128A11CD
:100C08001E270A128A110630F5007508F000003018
:100C18000A128A111E270A128A11F001F00A0030FE
:100C28000A128A111E270A128A110230F500750865
:100C3800F00000300A128A111E270800FB01FC018F
:100C48007508F0007608F1000A128A11C7250A1201
:100C58008A1171087C02031D332E70087B02031869
:100C680008000F307B067C04031D442EC030F700BB
:100C78007708F00000300A128A111E270A128A111A
:100C88007B087507F8007608F7000318F70AFB1BBE
:100C9800F7037708F900790883120313FF0078082F
:100CA80084000A128A1103200A128A11FA007A08AB
:100CB800F00001300A128A111E270A128A11013027
:100CC800FB070318FC0A0030FC07242EF3008316E8
:100CD8000313861186100611881308138812081248
:100CE8008811081188100810831203138813081339
:100CF800881208128811081188100810731C882E91
:100D08008312031386158B2E831203138611861004
:100D1800701C922E831203130814952E831203134A
:100D280008107008F10001300310F10CFF3E031D9C
:100D3800982E711CA32E831203138814A62E8312D7
:100D4800031388107008F10002300310F10CFF3E05
:100D5800031DA92E711CB42E831203130815B72E78
:100D68008312031308117008F10003300310F10C0B
:100D7800FF3E031DBA2E711CC52E8312031388155E
:100D8800C82E8312031388117008F1000430031071
:100D9800F10CFF3E031DCB2E711CD62E83120313BC
:100DA8000816D92E8312031308127008F1000530B3
:100DB8000310F10CFF3E031DDC2E711CE72E83127D
:100DC80003138816EA2E8312031388127008F100A1
:100DD80006300310F10CFF3E031DED2E711CF82E9A
:100DE800831203130817FB2E8312031308137008CA
:100DF800F10007300310F10CFF3E031DFE2E711C9D
:100E0800092F8312031388170C2F831203138813D7
:100E180006150830F100F10B0F2F8312031306118A
:100E28004130F200EE30F100F10B182FF20B182FC1
:100E380000000800F30083160313861186100611BC
:100E480088130813881208128811081188100810CE
:100E580083120313881308138812081288110811C3
:100E680088100810731C3C2F8312031386153F2F1C
:100E780083120313861186107008F10004300310E2
:100E8800F10CFF3E031D432F71080F39F200720861
:100E9800F400741C532F831203130816562F831261
:100EA800031308127408F10001300310F10CFF3E1F
:100EB800031D592F711C642F831203138816672F83
:100EC8008312031388127408F10002300310F10C26
:100ED800FF3E031D6A2F711C752F83120313081719
:100EE800782F8312031308137408F10003300310DA
:100EF800F10CFF3E031D7B2F711C862F83120313F9
:100F08008817892F83120313881306150830F100F8
:100F1800F10B8C2F83120313061170080F39F1009F
:100F28007108F400741C9C2F8312031308169F2F5A
:100F38008312031308127408F10001300310F10C36
:100F4800FF3E031DA22F711CAD2F831203138816B9
:100F5800B02F8312031388127408F10002300310B3
:100F6800F10CFF3E031DB32F711CBE2F8312031318
:100F78000817C12F8312031308137408F1000330F4
:100F88000310F10CFF3E031DC42F711CCF2F8312D9
:100F980003138817D22F83120313881306150830FA
:100FA800F100F10BD52F8312031306114130F20023
:100FB800EE30F100F10BDE2FF20BDE2F00000800FF
:100FC8000A128A11B4250A128A11A0000A128A117B
:100FD800B5250A128A11A1000A128A11B6250A1229
:100FE8008A11A2000A128A11B725A300A401A5013B
:080FF80083010A128A11B82DD1
:02400E003A3F37
:00000001FF
