:020000040000FA
:100000000A128A11FC2F00308A000408840A820731
:1000100000344734693461342034743472346934C0
:060020003A3420340034E4
:100BAC00831603130516811601168111011081108D
:100BBC0001118312031381010800F000701CEA2D4F
:100BCC00831203130815ED2D831203130811F01C67
:100BDC00F12D8815F22D8811701DF62D0816F72DA4
:100BEC000812F01DFB2D8816080088120800F3006F
:100BFC0083120313081073080A128A11E3250A12D0
:100C0C008A118312031388141A30F200F830F100A1
:100C1C00F10B0E2EF20B0E2E000083120313881014
:100C2C000800F700F501F6017508770784000A1231
:100C3C008A1103200A128A11003A03190800750858
:100C4C00770784000A128A1103200A128A110A12E9
:100C5C008A116B260A128A110130F5070318F60A5D
:100C6C000030F6071A2E700871040319662EF50170
:100C7C00F50AF11B4D2E01300310F00DF10DFF3E66
:100C8C00031D422E0130F4007408F5073F2E710845
:100C9C007302031D532E70087202031C5B2E700826
:100CAC00F2027108031CF303F30201300310F10C80
:100CBC00F00CFF3E031D5C2E0130F502031D4D2E82
:100CCC007308F1007208F0000800F40074080F3982
:100CDC00F1007108F2007408F039F1007108F300AA
:100CEC008312031308147308F10004300310F10C81
:100CFC00FF3E031D7C2E71080A128A11E3250A128D
:100D0C008A118312031388144230F100F10B8C2EDC
:100D1C00000083120313881072080A128A11E3254B
:100D2C000A128A118312031388144230F100F10B5A
:100D3C009D2E00008312031388100800FB01FC0198
:100D4C00760877040319DB2EFD01FD0AF71BBA2E7A
:100D5C0001300310F60DF70DFF3E031DAF2E0130D1
:100D6C00FA007A08FD07AC2E01300310FB0DFC0DC8
:100D7C00FF3E031DBB2E77087902031DC72E760894
:100D8C007802031CD02E7608F8027708031CF903AE
:100D9C00F9027B1401300310F70CF60CFF3E031D17
:100DAC00D12E0130FD02031DBA2E7C08F7007B0802
:100DBC00F6000800F7007703031D052F74087F3E2B
:100DCC00F5007508FA007A08F50004300310F50CEC
:100DDC00FF3E031DEC2E7508F6007608F8007A0825
:100DEC000F39F5007508F90078080A128A11FD25EB
:100DFC000A128A1179080A128A11FD25080002309C
:100E0C007706031D08007408BF3EF5007508FA004C
:100E1C007A08F50004300310F50CFF3E031D112F6A
:100E2C007508F6007608F8007A080F39F500750891
:100E3C00F90078080A128A11FD250A128A1179081C
:100E4C000A128A11FD25080000300A128A11E325C6
:100E5C000A128A118230F500DD30F400F40B342FC5
:100E6C00F50B342F392F03300A128A11FD250A1283
:100E7C008A112130F5007630F400F40B432FF50B7A
:100E8C00432F000003300A128A11FD250A128A1121
:100E9C004830F5006C30F400F40B522FF50B522F48
:100EAC00000003300A128A11FD250A128A11023041
:100EBC000A128A11FD250A128A1102300A128A11AD
:100ECC00FD250A128A1108300A128A11FD250A1210
:100EDC008A1100300A128A11FD250A128A110C306F
:100EEC000A128A11FD250A128A1100300A128A117F
:100EFC00FD250A128A1106300A128A11FD250800F6
:100F0C008316031388010A128A11D6250A128A1134
:100F1C000A128A112A270A128A1101300A128A111E
:100F2C0017260A128A11831203130108A000A101CB
:100F3C002008A2002108A3000A30A0002008F40019
:100F4C0001300A128A11E0260A128A116430F60066
:100F5C000030F700831203132308F9002208F8006D
:100F6C000A128A11A4260A128A117608303E0A1235
:100F7C008A116B260A128A110A30F6000030F7002B
:100F8C00831203132308F3002208F2006430F000EC
:100F9C000030F1000A128A1139260A128A117108DE
:100FAC00F9007008F8000A128A11A4260A128A1194
:100FBC007608303E0A128A116B260A128A110A3000
:100FCC00F0000030F100831203132308F300220811
:100FDC00F2000A128A1139260A128A117008303E60
:100FEC000A128A116B260A128A11992F83010A128E
:040FFC008A11862FA1
:02400E003A3F37
:00000001FF
